{
	"smartcontract/Aipodo.sol": {
		"Aipodo": {
			"abi": [
				{
					"inputs": [],
					"stateMutability": "nonpayable",
					"type": "constructor"
				},
				{
					"anonymous": false,
					"inputs": [
						{
							"indexed": false,
							"internalType": "uint256",
							"name": "hash",
							"type": "uint256"
						},
						{
							"indexed": false,
							"internalType": "uint256",
							"name": "price",
							"type": "uint256"
						},
						{
							"indexed": false,
							"internalType": "address",
							"name": "buyer",
							"type": "address"
						}
					],
					"name": "ItemBuy",
					"type": "event"
				},
				{
					"anonymous": false,
					"inputs": [
						{
							"indexed": false,
							"internalType": "uint256",
							"name": "hash",
							"type": "uint256"
						},
						{
							"indexed": false,
							"internalType": "uint256",
							"name": "full_price",
							"type": "uint256"
						},
						{
							"indexed": false,
							"internalType": "uint256[]",
							"name": "parents",
							"type": "uint256[]"
						}
					],
					"name": "ItemCreated",
					"type": "event"
				},
				{
					"anonymous": false,
					"inputs": [
						{
							"indexed": false,
							"internalType": "uint256",
							"name": "hash",
							"type": "uint256"
						},
						{
							"indexed": false,
							"internalType": "uint256",
							"name": "amount",
							"type": "uint256"
						}
					],
					"name": "ItemPay",
					"type": "event"
				},
				{
					"inputs": [
						{
							"internalType": "uint256",
							"name": "_hash",
							"type": "uint256"
						},
						{
							"internalType": "uint256",
							"name": "_price",
							"type": "uint256"
						},
						{
							"internalType": "uint256[]",
							"name": "_parents",
							"type": "uint256[]"
						}
					],
					"name": "add_item",
					"outputs": [],
					"stateMutability": "nonpayable",
					"type": "function"
				},
				{
					"inputs": [
						{
							"internalType": "uint256",
							"name": "_hash",
							"type": "uint256"
						}
					],
					"name": "buy_item",
					"outputs": [],
					"stateMutability": "payable",
					"type": "function"
				},
				{
					"inputs": [
						{
							"internalType": "uint256",
							"name": "_hash",
							"type": "uint256"
						}
					],
					"name": "get_item",
					"outputs": [
						{
							"internalType": "uint256",
							"name": "hash",
							"type": "uint256"
						},
						{
							"internalType": "uint256",
							"name": "price",
							"type": "uint256"
						},
						{
							"internalType": "address",
							"name": "owner",
							"type": "address"
						},
						{
							"internalType": "uint256",
							"name": "full_price",
							"type": "uint256"
						},
						{
							"internalType": "uint256[]",
							"name": "parents",
							"type": "uint256[]"
						}
					],
					"stateMutability": "view",
					"type": "function"
				},
				{
					"inputs": [],
					"name": "get_item_list",
					"outputs": [
						{
							"internalType": "uint256[]",
							"name": "",
							"type": "uint256[]"
						}
					],
					"stateMutability": "view",
					"type": "function"
				},
				{
					"inputs": [],
					"name": "get_owner_item",
					"outputs": [
						{
							"internalType": "uint256[]",
							"name": "",
							"type": "uint256[]"
						}
					],
					"stateMutability": "view",
					"type": "function"
				},
				{
					"inputs": [
						{
							"internalType": "uint256",
							"name": "_hash",
							"type": "uint256"
						}
					],
					"name": "get_price",
					"outputs": [
						{
							"internalType": "uint256",
							"name": "",
							"type": "uint256"
						}
					],
					"stateMutability": "view",
					"type": "function"
				},
				{
					"inputs": [
						{
							"internalType": "uint256",
							"name": "",
							"type": "uint256"
						}
					],
					"name": "item_list_array",
					"outputs": [
						{
							"internalType": "uint256",
							"name": "",
							"type": "uint256"
						}
					],
					"stateMutability": "view",
					"type": "function"
				},
				{
					"inputs": [],
					"name": "my_balance",
					"outputs": [
						{
							"internalType": "uint256",
							"name": "",
							"type": "uint256"
						}
					],
					"stateMutability": "view",
					"type": "function"
				},
				{
					"inputs": [],
					"name": "withdraw",
					"outputs": [],
					"stateMutability": "nonpayable",
					"type": "function"
				}
			],
			"devdoc": {
				"kind": "dev",
				"methods": {},
				"version": 1
			},
			"evm": {
				"assembly": "    /* \"smartcontract/Aipodo.sol\":246:3846  contract Aipodo /* is ERC20 */{... */\n  mstore(0x40, 0x80)\n    /* \"smartcontract/Aipodo.sol\":597:820  constructor() {... */\n  callvalue\n  dup1\n  iszero\n  tag_1\n  jumpi\n  0x00\n  dup1\n  revert\ntag_1:\n  pop\n    /* \"smartcontract/Aipodo.sol\":621:653  add_item(1, 1, new uint256[](0)) */\n  tag_4\n    /* \"smartcontract/Aipodo.sol\":630:631  1 */\n  0x01\n    /* \"smartcontract/Aipodo.sol\":633:634  1 */\n  dup1\n    /* \"smartcontract/Aipodo.sol\":650:651  0 */\n  0x00\n    /* \"smartcontract/Aipodo.sol\":636:652  new uint256[](0) */\n  0xffffffffffffffff\n  dup2\n  gt\n  iszero\n  tag_5\n  jumpi\n  tag_6\n  tag_7\n  jump\t// in\ntag_6:\ntag_5:\n  mload(0x40)\n  swap1\n  dup1\n  dup3\n  mstore\n  dup1\n  0x20\n  mul\n  0x20\n  add\n  dup3\n  add\n  0x40\n  mstore\n  dup1\n  iszero\n  tag_8\n  jumpi\n  dup2\n  0x20\n  add\n  0x20\n  dup3\n  mul\n  dup1\n  calldatasize\n  dup4\n  calldatacopy\n  dup1\n  dup3\n  add\n  swap2\n  pop\n  pop\n  swap1\n  pop\ntag_8:\n  pop\n    /* \"smartcontract/Aipodo.sol\":621:629  add_item */\n  shl(0x20, tag_9)\n    /* \"smartcontract/Aipodo.sol\":621:653  add_item(1, 1, new uint256[](0)) */\n  0x20\n  shr\n  jump\t// in\ntag_4:\n    /* \"smartcontract/Aipodo.sol\":663:695  add_item(2, 2, new uint256[](0)) */\n  tag_10\n    /* \"smartcontract/Aipodo.sol\":672:673  2 */\n  0x02\n    /* \"smartcontract/Aipodo.sol\":675:676  2 */\n  dup1\n    /* \"smartcontract/Aipodo.sol\":692:693  0 */\n  0x00\n    /* \"smartcontract/Aipodo.sol\":678:694  new uint256[](0) */\n  0xffffffffffffffff\n  dup2\n  gt\n  iszero\n  tag_11\n  jumpi\n  tag_12\n  tag_7\n  jump\t// in\ntag_12:\ntag_11:\n  mload(0x40)\n  swap1\n  dup1\n  dup3\n  mstore\n  dup1\n  0x20\n  mul\n  0x20\n  add\n  dup3\n  add\n  0x40\n  mstore\n  dup1\n  iszero\n  tag_13\n  jumpi\n  dup2\n  0x20\n  add\n  0x20\n  dup3\n  mul\n  dup1\n  calldatasize\n  dup4\n  calldatacopy\n  dup1\n  dup3\n  add\n  swap2\n  pop\n  pop\n  swap1\n  pop\ntag_13:\n  pop\n    /* \"smartcontract/Aipodo.sol\":663:671  add_item */\n  shl(0x20, tag_9)\n    /* \"smartcontract/Aipodo.sol\":663:695  add_item(2, 2, new uint256[](0)) */\n  0x20\n  shr\n  jump\t// in\ntag_10:\n    /* \"smartcontract/Aipodo.sol\":705:725  uint256[] memory tmp */\n  0x00\n    /* \"smartcontract/Aipodo.sol\":742:743  2 */\n  0x02\n    /* \"smartcontract/Aipodo.sol\":728:744  new uint256[](2) */\n  0xffffffffffffffff\n  dup2\n  gt\n  iszero\n  tag_14\n  jumpi\n  tag_15\n  tag_7\n  jump\t// in\ntag_15:\ntag_14:\n  mload(0x40)\n  swap1\n  dup1\n  dup3\n  mstore\n  dup1\n  0x20\n  mul\n  0x20\n  add\n  dup3\n  add\n  0x40\n  mstore\n  dup1\n  iszero\n  tag_16\n  jumpi\n  dup2\n  0x20\n  add\n  0x20\n  dup3\n  mul\n  dup1\n  calldatasize\n  dup4\n  calldatacopy\n  dup1\n  dup3\n  add\n  swap2\n  pop\n  pop\n  swap1\n  pop\ntag_16:\n  pop\n    /* \"smartcontract/Aipodo.sol\":705:744  uint256[] memory tmp = new uint256[](2) */\n  swap1\n  pop\n    /* \"smartcontract/Aipodo.sol\":763:764  1 */\n  0x01\n    /* \"smartcontract/Aipodo.sol\":754:757  tmp */\n  dup2\n    /* \"smartcontract/Aipodo.sol\":758:759  0 */\n  0x00\n    /* \"smartcontract/Aipodo.sol\":754:760  tmp[0] */\n  dup2\n  mload\n  dup2\n  lt\n  tag_17\n  jumpi\n  tag_18\n  tag_19\n  jump\t// in\ntag_18:\ntag_17:\n  0x20\n  mul\n  0x20\n  add\n  add\n    /* \"smartcontract/Aipodo.sol\":754:764  tmp[0] = 1 */\n  dup2\n  dup2\n  mstore\n  pop\n  pop\n    /* \"smartcontract/Aipodo.sol\":783:784  2 */\n  0x02\n    /* \"smartcontract/Aipodo.sol\":774:777  tmp */\n  dup2\n    /* \"smartcontract/Aipodo.sol\":778:779  1 */\n  0x01\n    /* \"smartcontract/Aipodo.sol\":774:780  tmp[1] */\n  dup2\n  mload\n  dup2\n  lt\n  tag_20\n  jumpi\n  tag_21\n  tag_19\n  jump\t// in\ntag_21:\ntag_20:\n  0x20\n  mul\n  0x20\n  add\n  add\n    /* \"smartcontract/Aipodo.sol\":774:784  tmp[1] = 2 */\n  dup2\n  dup2\n  mstore\n  pop\n  pop\n    /* \"smartcontract/Aipodo.sol\":794:813  add_item(3, 3, tmp) */\n  tag_22\n    /* \"smartcontract/Aipodo.sol\":803:804  3 */\n  0x03\n    /* \"smartcontract/Aipodo.sol\":806:807  3 */\n  dup1\n    /* \"smartcontract/Aipodo.sol\":809:812  tmp */\n  dup4\n    /* \"smartcontract/Aipodo.sol\":794:802  add_item */\n  shl(0x20, tag_9)\n    /* \"smartcontract/Aipodo.sol\":794:813  add_item(3, 3, tmp) */\n  0x20\n  shr\n  jump\t// in\ntag_22:\n    /* \"smartcontract/Aipodo.sol\":611:820  {... */\n  pop\n    /* \"smartcontract/Aipodo.sol\":246:3846  contract Aipodo /* is ERC20 */{... */\n  jump(tag_23)\n    /* \"smartcontract/Aipodo.sol\":1021:1811  function add_item(uint256 _hash, uint256 _price, uint256[] memory _parents) public {... */\ntag_9:\n    /* \"smartcontract/Aipodo.sol\":1148:1149  0 */\n  0x00\n    /* \"smartcontract/Aipodo.sol\":1123:1132  item_list */\n  dup1\n    /* \"smartcontract/Aipodo.sol\":1123:1139  item_list[_hash] */\n  0x00\n    /* \"smartcontract/Aipodo.sol\":1133:1138  _hash */\n  dup6\n    /* \"smartcontract/Aipodo.sol\":1123:1139  item_list[_hash] */\n  dup2\n  mstore\n  0x20\n  add\n  swap1\n  dup2\n  mstore\n  0x20\n  add\n  0x00\n  keccak256\n    /* \"smartcontract/Aipodo.sol\":1123:1144  item_list[_hash].hash */\n  0x00\n  add\n  sload\n    /* \"smartcontract/Aipodo.sol\":1123:1149  item_list[_hash].hash == 0 */\n  eq\n    /* \"smartcontract/Aipodo.sol\":1114:1174  require (item_list[_hash].hash == 0, 'Item already present') */\n  tag_25\n  jumpi\n  mload(0x40)\n  0x08c379a000000000000000000000000000000000000000000000000000000000\n  dup2\n  mstore\n  0x04\n  add\n  tag_26\n  swap1\n  tag_27\n  jump\t// in\ntag_26:\n  mload(0x40)\n  dup1\n  swap2\n  sub\n  swap1\n  revert\ntag_25:\n    /* \"smartcontract/Aipodo.sol\":1208:1213  _hash */\n  dup3\n    /* \"smartcontract/Aipodo.sol\":1184:1193  item_list */\n  0x00\n    /* \"smartcontract/Aipodo.sol\":1184:1200  item_list[_hash] */\n  dup1\n    /* \"smartcontract/Aipodo.sol\":1194:1199  _hash */\n  dup6\n    /* \"smartcontract/Aipodo.sol\":1184:1200  item_list[_hash] */\n  dup2\n  mstore\n  0x20\n  add\n  swap1\n  dup2\n  mstore\n  0x20\n  add\n  0x00\n  keccak256\n    /* \"smartcontract/Aipodo.sol\":1184:1205  item_list[_hash].hash */\n  0x00\n  add\n    /* \"smartcontract/Aipodo.sol\":1184:1213  item_list[_hash].hash = _hash */\n  dup2\n  swap1\n  sstore\n  pop\n    /* \"smartcontract/Aipodo.sol\":1264:1272  _parents */\n  dup1\n    /* \"smartcontract/Aipodo.sol\":1264:1279  _parents.length */\n  mload\n    /* \"smartcontract/Aipodo.sol\":1250:1280  new uint256[](_parents.length) */\n  0xffffffffffffffff\n  dup2\n  gt\n  iszero\n  tag_28\n  jumpi\n  tag_29\n  tag_7\n  jump\t// in\ntag_29:\ntag_28:\n  mload(0x40)\n  swap1\n  dup1\n  dup3\n  mstore\n  dup1\n  0x20\n  mul\n  0x20\n  add\n  dup3\n  add\n  0x40\n  mstore\n  dup1\n  iszero\n  tag_30\n  jumpi\n  dup2\n  0x20\n  add\n  0x20\n  dup3\n  mul\n  dup1\n  calldatasize\n  dup4\n  calldatacopy\n  dup1\n  dup3\n  add\n  swap2\n  pop\n  pop\n  swap1\n  pop\ntag_30:\n  pop\n    /* \"smartcontract/Aipodo.sol\":1223:1232  item_list */\n  0x00\n    /* \"smartcontract/Aipodo.sol\":1223:1239  item_list[_hash] */\n  dup1\n    /* \"smartcontract/Aipodo.sol\":1233:1238  _hash */\n  dup6\n    /* \"smartcontract/Aipodo.sol\":1223:1239  item_list[_hash] */\n  dup2\n  mstore\n  0x20\n  add\n  swap1\n  dup2\n  mstore\n  0x20\n  add\n  0x00\n  keccak256\n    /* \"smartcontract/Aipodo.sol\":1223:1247  item_list[_hash].parents */\n  0x04\n  add\n    /* \"smartcontract/Aipodo.sol\":1223:1280  item_list[_hash].parents = new uint256[](_parents.length) */\n  swap1\n  dup1\n  mload\n  swap1\n  0x20\n  add\n  swap1\n  tag_31\n  swap3\n  swap2\n  swap1\n  tag_32\n  jump\t// in\ntag_31:\n  pop\n    /* \"smartcontract/Aipodo.sol\":1290:1308  uint256 full_price */\n  0x00\n    /* \"smartcontract/Aipodo.sol\":1311:1317  _price */\n  dup3\n    /* \"smartcontract/Aipodo.sol\":1290:1317  uint256 full_price = _price */\n  swap1\n  pop\n    /* \"smartcontract/Aipodo.sol\":1332:1338  uint i */\n  0x00\n    /* \"smartcontract/Aipodo.sol\":1327:1577  for (uint i=0; i< _parents.length; i++) {... */\ntag_33:\n    /* \"smartcontract/Aipodo.sol\":1345:1353  _parents */\n  dup3\n    /* \"smartcontract/Aipodo.sol\":1345:1360  _parents.length */\n  mload\n    /* \"smartcontract/Aipodo.sol\":1342:1343  i */\n  dup2\n    /* \"smartcontract/Aipodo.sol\":1342:1360  i< _parents.length */\n  lt\n    /* \"smartcontract/Aipodo.sol\":1327:1577  for (uint i=0; i< _parents.length; i++) {... */\n  iszero\n  tag_34\n  jumpi\n    /* \"smartcontract/Aipodo.sol\":1421:1422  0 */\n  0x00\n    /* \"smartcontract/Aipodo.sol\":1390:1399  item_list */\n  dup1\n    /* \"smartcontract/Aipodo.sol\":1390:1412  item_list[_parents[i]] */\n  0x00\n    /* \"smartcontract/Aipodo.sol\":1400:1408  _parents */\n  dup6\n    /* \"smartcontract/Aipodo.sol\":1409:1410  i */\n  dup5\n    /* \"smartcontract/Aipodo.sol\":1400:1411  _parents[i] */\n  dup2\n  mload\n  dup2\n  lt\n  tag_36\n  jumpi\n  tag_37\n  tag_19\n  jump\t// in\ntag_37:\ntag_36:\n  0x20\n  mul\n  0x20\n  add\n  add\n  mload\n    /* \"smartcontract/Aipodo.sol\":1390:1412  item_list[_parents[i]] */\n  dup2\n  mstore\n  0x20\n  add\n  swap1\n  dup2\n  mstore\n  0x20\n  add\n  0x00\n  keccak256\n    /* \"smartcontract/Aipodo.sol\":1390:1417  item_list[_parents[i]].hash */\n  0x00\n  add\n  sload\n    /* \"smartcontract/Aipodo.sol\":1390:1422  item_list[_parents[i]].hash != 0 */\n  sub\n    /* \"smartcontract/Aipodo.sol\":1381:1443  require (item_list[_parents[i]].hash != 0, 'Parent not found') */\n  tag_38\n  jumpi\n  mload(0x40)\n  0x08c379a000000000000000000000000000000000000000000000000000000000\n  dup2\n  mstore\n  0x04\n  add\n  tag_39\n  swap1\n  tag_40\n  jump\t// in\ntag_39:\n  mload(0x40)\n  dup1\n  swap2\n  sub\n  swap1\n  revert\ntag_38:\n    /* \"smartcontract/Aipodo.sol\":1487:1495  _parents */\n  dup3\n    /* \"smartcontract/Aipodo.sol\":1496:1497  i */\n  dup2\n    /* \"smartcontract/Aipodo.sol\":1487:1498  _parents[i] */\n  dup2\n  mload\n  dup2\n  lt\n  tag_41\n  jumpi\n  tag_42\n  tag_19\n  jump\t// in\ntag_42:\ntag_41:\n  0x20\n  mul\n  0x20\n  add\n  add\n  mload\n    /* \"smartcontract/Aipodo.sol\":1457:1466  item_list */\n  0x00\n    /* \"smartcontract/Aipodo.sol\":1457:1473  item_list[_hash] */\n  dup1\n    /* \"smartcontract/Aipodo.sol\":1467:1472  _hash */\n  dup8\n    /* \"smartcontract/Aipodo.sol\":1457:1473  item_list[_hash] */\n  dup2\n  mstore\n  0x20\n  add\n  swap1\n  dup2\n  mstore\n  0x20\n  add\n  0x00\n  keccak256\n    /* \"smartcontract/Aipodo.sol\":1457:1481  item_list[_hash].parents */\n  0x04\n  add\n    /* \"smartcontract/Aipodo.sol\":1482:1483  i */\n  dup3\n    /* \"smartcontract/Aipodo.sol\":1457:1484  item_list[_hash].parents[i] */\n  dup2\n  sload\n  dup2\n  lt\n  tag_43\n  jumpi\n  tag_44\n  tag_19\n  jump\t// in\ntag_44:\ntag_43:\n  swap1\n  0x00\n  mstore\n  keccak256(0x00, 0x20)\n  add\n    /* \"smartcontract/Aipodo.sol\":1457:1498  item_list[_hash].parents[i] = _parents[i] */\n  dup2\n  swap1\n  sstore\n  pop\n    /* \"smartcontract/Aipodo.sol\":1538:1547  item_list */\n  0x00\n    /* \"smartcontract/Aipodo.sol\":1538:1560  item_list[_parents[i]] */\n  dup1\n    /* \"smartcontract/Aipodo.sol\":1548:1556  _parents */\n  dup5\n    /* \"smartcontract/Aipodo.sol\":1557:1558  i */\n  dup4\n    /* \"smartcontract/Aipodo.sol\":1548:1559  _parents[i] */\n  dup2\n  mload\n  dup2\n  lt\n  tag_46\n  jumpi\n  tag_47\n  tag_19\n  jump\t// in\ntag_47:\ntag_46:\n  0x20\n  mul\n  0x20\n  add\n  add\n  mload\n    /* \"smartcontract/Aipodo.sol\":1538:1560  item_list[_parents[i]] */\n  dup2\n  mstore\n  0x20\n  add\n  swap1\n  dup2\n  mstore\n  0x20\n  add\n  0x00\n  keccak256\n    /* \"smartcontract/Aipodo.sol\":1538:1566  item_list[_parents[i]].price */\n  0x01\n  add\n  sload\n    /* \"smartcontract/Aipodo.sol\":1525:1535  full_price */\n  dup3\n    /* \"smartcontract/Aipodo.sol\":1525:1566  full_price + item_list[_parents[i]].price */\n  tag_48\n  swap2\n  swap1\n  tag_49\n  jump\t// in\ntag_48:\n    /* \"smartcontract/Aipodo.sol\":1512:1566  full_price = full_price + item_list[_parents[i]].price */\n  swap2\n  pop\n    /* \"smartcontract/Aipodo.sol\":1362:1365  i++ */\n  dup1\n  dup1\n  tag_50\n  swap1\n  tag_51\n  jump\t// in\ntag_50:\n  swap2\n  pop\n  pop\n    /* \"smartcontract/Aipodo.sol\":1327:1577  for (uint i=0; i< _parents.length; i++) {... */\n  jump(tag_33)\ntag_34:\n  pop\n    /* \"smartcontract/Aipodo.sol\":1611:1617  _price */\n  dup3\n    /* \"smartcontract/Aipodo.sol\":1586:1595  item_list */\n  0x00\n    /* \"smartcontract/Aipodo.sol\":1586:1602  item_list[_hash] */\n  dup1\n    /* \"smartcontract/Aipodo.sol\":1596:1601  _hash */\n  dup7\n    /* \"smartcontract/Aipodo.sol\":1586:1602  item_list[_hash] */\n  dup2\n  mstore\n  0x20\n  add\n  swap1\n  dup2\n  mstore\n  0x20\n  add\n  0x00\n  keccak256\n    /* \"smartcontract/Aipodo.sol\":1586:1608  item_list[_hash].price */\n  0x01\n  add\n    /* \"smartcontract/Aipodo.sol\":1586:1617  item_list[_hash].price = _price */\n  dup2\n  swap1\n  sstore\n  pop\n    /* \"smartcontract/Aipodo.sol\":1657:1667  full_price */\n  dup1\n    /* \"smartcontract/Aipodo.sol\":1627:1636  item_list */\n  0x00\n    /* \"smartcontract/Aipodo.sol\":1627:1643  item_list[_hash] */\n  dup1\n    /* \"smartcontract/Aipodo.sol\":1637:1642  _hash */\n  dup7\n    /* \"smartcontract/Aipodo.sol\":1627:1643  item_list[_hash] */\n  dup2\n  mstore\n  0x20\n  add\n  swap1\n  dup2\n  mstore\n  0x20\n  add\n  0x00\n  keccak256\n    /* \"smartcontract/Aipodo.sol\":1627:1654  item_list[_hash].full_price */\n  0x03\n  add\n    /* \"smartcontract/Aipodo.sol\":1627:1667  item_list[_hash].full_price = full_price */\n  dup2\n  swap1\n  sstore\n  pop\n    /* \"smartcontract/Aipodo.sol\":1702:1712  msg.sender */\n  caller\n    /* \"smartcontract/Aipodo.sol\":1677:1686  item_list */\n  0x00\n    /* \"smartcontract/Aipodo.sol\":1677:1693  item_list[_hash] */\n  dup1\n    /* \"smartcontract/Aipodo.sol\":1687:1692  _hash */\n  dup7\n    /* \"smartcontract/Aipodo.sol\":1677:1693  item_list[_hash] */\n  dup2\n  mstore\n  0x20\n  add\n  swap1\n  dup2\n  mstore\n  0x20\n  add\n  0x00\n  keccak256\n    /* \"smartcontract/Aipodo.sol\":1677:1699  item_list[_hash].owner */\n  0x02\n  add\n  0x00\n    /* \"smartcontract/Aipodo.sol\":1677:1712  item_list[_hash].owner = msg.sender */\n  0x0100\n  exp\n  dup2\n  sload\n  dup2\n  0xffffffffffffffffffffffffffffffffffffffff\n  mul\n  not\n  and\n  swap1\n  dup4\n  0xffffffffffffffffffffffffffffffffffffffff\n  and\n  mul\n  or\n  swap1\n  sstore\n  pop\n    /* \"smartcontract/Aipodo.sol\":1722:1737  item_list_array */\n  0x03\n    /* \"smartcontract/Aipodo.sol\":1743:1748  _hash */\n  dup5\n    /* \"smartcontract/Aipodo.sol\":1722:1749  item_list_array.push(_hash) */\n  swap1\n  dup1\n  0x01\n  dup2\n  sload\n  add\n  dup1\n  dup3\n  sstore\n  dup1\n  swap2\n  pop\n  pop\n  0x01\n  swap1\n  sub\n  swap1\n  0x00\n  mstore\n  keccak256(0x00, 0x20)\n  add\n  0x00\n  swap1\n  swap2\n  swap1\n  swap2\n  swap1\n  swap2\n  pop\n  sstore\n    /* \"smartcontract/Aipodo.sol\":1764:1804  ItemCreated(_hash, full_price, _parents) */\n  0x08f0c48f865c0b79f98aa03c78c16fc725b266610b1723c22b4048e230b4beb9\n    /* \"smartcontract/Aipodo.sol\":1776:1781  _hash */\n  dup5\n    /* \"smartcontract/Aipodo.sol\":1783:1793  full_price */\n  dup3\n    /* \"smartcontract/Aipodo.sol\":1795:1803  _parents */\n  dup5\n    /* \"smartcontract/Aipodo.sol\":1764:1804  ItemCreated(_hash, full_price, _parents) */\n  mload(0x40)\n  tag_53\n  swap4\n  swap3\n  swap2\n  swap1\n  tag_54\n  jump\t// in\ntag_53:\n  mload(0x40)\n  dup1\n  swap2\n  sub\n  swap1\n  log1\n    /* \"smartcontract/Aipodo.sol\":1104:1811  {... */\n  pop\n    /* \"smartcontract/Aipodo.sol\":1021:1811  function add_item(uint256 _hash, uint256 _price, uint256[] memory _parents) public {... */\n  pop\n  pop\n  pop\n  jump\t// out\n    /* \"smartcontract/Aipodo.sol\":246:3846  contract Aipodo /* is ERC20 */{... */\ntag_32:\n  dup3\n  dup1\n  sload\n  dup3\n  dup3\n  sstore\n  swap1\n  0x00\n  mstore\n  keccak256(0x00, 0x20)\n  swap1\n  dup2\n  add\n  swap3\n  dup3\n  iszero\n  tag_55\n  jumpi\n  swap2\n  0x20\n  mul\n  dup3\n  add\ntag_56:\n  dup3\n  dup2\n  gt\n  iszero\n  tag_57\n  jumpi\n  dup3\n  mload\n  dup3\n  sstore\n  swap2\n  0x20\n  add\n  swap2\n  swap1\n  0x01\n  add\n  swap1\n  jump(tag_56)\ntag_57:\ntag_55:\n  pop\n  swap1\n  pop\n  tag_58\n  swap2\n  swap1\n  tag_59\n  jump\t// in\ntag_58:\n  pop\n  swap1\n  jump\t// out\ntag_59:\ntag_60:\n  dup1\n  dup3\n  gt\n  iszero\n  tag_61\n  jumpi\n  0x00\n  dup2\n  0x00\n  swap1\n  sstore\n  pop\n  0x01\n  add\n  jump(tag_60)\ntag_61:\n  pop\n  swap1\n  jump\t// out\n    /* \"#utility.yul\":7:187   */\ntag_7:\n    /* \"#utility.yul\":55:132   */\n  0x4e487b7100000000000000000000000000000000000000000000000000000000\n    /* \"#utility.yul\":52:53   */\n  0x00\n    /* \"#utility.yul\":45:133   */\n  mstore\n    /* \"#utility.yul\":152:156   */\n  0x41\n    /* \"#utility.yul\":149:150   */\n  0x04\n    /* \"#utility.yul\":142:157   */\n  mstore\n    /* \"#utility.yul\":176:180   */\n  0x24\n    /* \"#utility.yul\":173:174   */\n  0x00\n    /* \"#utility.yul\":166:181   */\n  revert\n    /* \"#utility.yul\":193:373   */\ntag_19:\n    /* \"#utility.yul\":241:318   */\n  0x4e487b7100000000000000000000000000000000000000000000000000000000\n    /* \"#utility.yul\":238:239   */\n  0x00\n    /* \"#utility.yul\":231:319   */\n  mstore\n    /* \"#utility.yul\":338:342   */\n  0x32\n    /* \"#utility.yul\":335:336   */\n  0x04\n    /* \"#utility.yul\":328:343   */\n  mstore\n    /* \"#utility.yul\":362:366   */\n  0x24\n    /* \"#utility.yul\":359:360   */\n  0x00\n    /* \"#utility.yul\":352:367   */\n  revert\n    /* \"#utility.yul\":379:548   */\ntag_62:\n    /* \"#utility.yul\":463:474   */\n  0x00\n    /* \"#utility.yul\":497:503   */\n  dup3\n    /* \"#utility.yul\":492:495   */\n  dup3\n    /* \"#utility.yul\":485:504   */\n  mstore\n    /* \"#utility.yul\":537:541   */\n  0x20\n    /* \"#utility.yul\":532:535   */\n  dup3\n    /* \"#utility.yul\":528:542   */\n  add\n    /* \"#utility.yul\":513:542   */\n  swap1\n  pop\n    /* \"#utility.yul\":379:548   */\n  swap3\n  swap2\n  pop\n  pop\n  jump\t// out\n    /* \"#utility.yul\":554:724   */\ntag_63:\n    /* \"#utility.yul\":694:716   */\n  0x4974656d20616c72656164792070726573656e74000000000000000000000000\n    /* \"#utility.yul\":690:691   */\n  0x00\n    /* \"#utility.yul\":682:688   */\n  dup3\n    /* \"#utility.yul\":678:692   */\n  add\n    /* \"#utility.yul\":671:717   */\n  mstore\n    /* \"#utility.yul\":554:724   */\n  pop\n  jump\t// out\n    /* \"#utility.yul\":730:1096   */\ntag_64:\n    /* \"#utility.yul\":872:875   */\n  0x00\n    /* \"#utility.yul\":893:960   */\n  tag_83\n    /* \"#utility.yul\":957:959   */\n  0x14\n    /* \"#utility.yul\":952:955   */\n  dup4\n    /* \"#utility.yul\":893:960   */\n  tag_62\n  jump\t// in\ntag_83:\n    /* \"#utility.yul\":886:960   */\n  swap2\n  pop\n    /* \"#utility.yul\":969:1062   */\n  tag_84\n    /* \"#utility.yul\":1058:1061   */\n  dup3\n    /* \"#utility.yul\":969:1062   */\n  tag_63\n  jump\t// in\ntag_84:\n    /* \"#utility.yul\":1087:1089   */\n  0x20\n    /* \"#utility.yul\":1082:1085   */\n  dup3\n    /* \"#utility.yul\":1078:1090   */\n  add\n    /* \"#utility.yul\":1071:1090   */\n  swap1\n  pop\n    /* \"#utility.yul\":730:1096   */\n  swap2\n  swap1\n  pop\n  jump\t// out\n    /* \"#utility.yul\":1102:1521   */\ntag_27:\n    /* \"#utility.yul\":1268:1272   */\n  0x00\n    /* \"#utility.yul\":1306:1308   */\n  0x20\n    /* \"#utility.yul\":1295:1304   */\n  dup3\n    /* \"#utility.yul\":1291:1309   */\n  add\n    /* \"#utility.yul\":1283:1309   */\n  swap1\n  pop\n    /* \"#utility.yul\":1355:1364   */\n  dup2\n    /* \"#utility.yul\":1349:1353   */\n  dup2\n    /* \"#utility.yul\":1345:1365   */\n  sub\n    /* \"#utility.yul\":1341:1342   */\n  0x00\n    /* \"#utility.yul\":1330:1339   */\n  dup4\n    /* \"#utility.yul\":1326:1343   */\n  add\n    /* \"#utility.yul\":1319:1366   */\n  mstore\n    /* \"#utility.yul\":1383:1514   */\n  tag_86\n    /* \"#utility.yul\":1509:1513   */\n  dup2\n    /* \"#utility.yul\":1383:1514   */\n  tag_64\n  jump\t// in\ntag_86:\n    /* \"#utility.yul\":1375:1514   */\n  swap1\n  pop\n    /* \"#utility.yul\":1102:1521   */\n  swap2\n  swap1\n  pop\n  jump\t// out\n    /* \"#utility.yul\":1527:1693   */\ntag_65:\n    /* \"#utility.yul\":1667:1685   */\n  0x506172656e74206e6f7420666f756e6400000000000000000000000000000000\n    /* \"#utility.yul\":1663:1664   */\n  0x00\n    /* \"#utility.yul\":1655:1661   */\n  dup3\n    /* \"#utility.yul\":1651:1665   */\n  add\n    /* \"#utility.yul\":1644:1686   */\n  mstore\n    /* \"#utility.yul\":1527:1693   */\n  pop\n  jump\t// out\n    /* \"#utility.yul\":1699:2065   */\ntag_66:\n    /* \"#utility.yul\":1841:1844   */\n  0x00\n    /* \"#utility.yul\":1862:1929   */\n  tag_89\n    /* \"#utility.yul\":1926:1928   */\n  0x10\n    /* \"#utility.yul\":1921:1924   */\n  dup4\n    /* \"#utility.yul\":1862:1929   */\n  tag_62\n  jump\t// in\ntag_89:\n    /* \"#utility.yul\":1855:1929   */\n  swap2\n  pop\n    /* \"#utility.yul\":1938:2031   */\n  tag_90\n    /* \"#utility.yul\":2027:2030   */\n  dup3\n    /* \"#utility.yul\":1938:2031   */\n  tag_65\n  jump\t// in\ntag_90:\n    /* \"#utility.yul\":2056:2058   */\n  0x20\n    /* \"#utility.yul\":2051:2054   */\n  dup3\n    /* \"#utility.yul\":2047:2059   */\n  add\n    /* \"#utility.yul\":2040:2059   */\n  swap1\n  pop\n    /* \"#utility.yul\":1699:2065   */\n  swap2\n  swap1\n  pop\n  jump\t// out\n    /* \"#utility.yul\":2071:2490   */\ntag_40:\n    /* \"#utility.yul\":2237:2241   */\n  0x00\n    /* \"#utility.yul\":2275:2277   */\n  0x20\n    /* \"#utility.yul\":2264:2273   */\n  dup3\n    /* \"#utility.yul\":2260:2278   */\n  add\n    /* \"#utility.yul\":2252:2278   */\n  swap1\n  pop\n    /* \"#utility.yul\":2324:2333   */\n  dup2\n    /* \"#utility.yul\":2318:2322   */\n  dup2\n    /* \"#utility.yul\":2314:2334   */\n  sub\n    /* \"#utility.yul\":2310:2311   */\n  0x00\n    /* \"#utility.yul\":2299:2308   */\n  dup4\n    /* \"#utility.yul\":2295:2312   */\n  add\n    /* \"#utility.yul\":2288:2335   */\n  mstore\n    /* \"#utility.yul\":2352:2483   */\n  tag_92\n    /* \"#utility.yul\":2478:2482   */\n  dup2\n    /* \"#utility.yul\":2352:2483   */\n  tag_66\n  jump\t// in\ntag_92:\n    /* \"#utility.yul\":2344:2483   */\n  swap1\n  pop\n    /* \"#utility.yul\":2071:2490   */\n  swap2\n  swap1\n  pop\n  jump\t// out\n    /* \"#utility.yul\":2496:2573   */\ntag_67:\n    /* \"#utility.yul\":2533:2540   */\n  0x00\n    /* \"#utility.yul\":2562:2567   */\n  dup2\n    /* \"#utility.yul\":2551:2567   */\n  swap1\n  pop\n    /* \"#utility.yul\":2496:2573   */\n  swap2\n  swap1\n  pop\n  jump\t// out\n    /* \"#utility.yul\":2579:2759   */\ntag_68:\n    /* \"#utility.yul\":2627:2704   */\n  0x4e487b7100000000000000000000000000000000000000000000000000000000\n    /* \"#utility.yul\":2624:2625   */\n  0x00\n    /* \"#utility.yul\":2617:2705   */\n  mstore\n    /* \"#utility.yul\":2724:2728   */\n  0x11\n    /* \"#utility.yul\":2721:2722   */\n  0x04\n    /* \"#utility.yul\":2714:2729   */\n  mstore\n    /* \"#utility.yul\":2748:2752   */\n  0x24\n    /* \"#utility.yul\":2745:2746   */\n  0x00\n    /* \"#utility.yul\":2738:2753   */\n  revert\n    /* \"#utility.yul\":2765:2956   */\ntag_49:\n    /* \"#utility.yul\":2805:2808   */\n  0x00\n    /* \"#utility.yul\":2824:2844   */\n  tag_96\n    /* \"#utility.yul\":2842:2843   */\n  dup3\n    /* \"#utility.yul\":2824:2844   */\n  tag_67\n  jump\t// in\ntag_96:\n    /* \"#utility.yul\":2819:2844   */\n  swap2\n  pop\n    /* \"#utility.yul\":2858:2878   */\n  tag_97\n    /* \"#utility.yul\":2876:2877   */\n  dup4\n    /* \"#utility.yul\":2858:2878   */\n  tag_67\n  jump\t// in\ntag_97:\n    /* \"#utility.yul\":2853:2878   */\n  swap3\n  pop\n    /* \"#utility.yul\":2901:2902   */\n  dup3\n    /* \"#utility.yul\":2898:2899   */\n  dup3\n    /* \"#utility.yul\":2894:2903   */\n  add\n    /* \"#utility.yul\":2887:2903   */\n  swap1\n  pop\n    /* \"#utility.yul\":2922:2925   */\n  dup1\n    /* \"#utility.yul\":2919:2920   */\n  dup3\n    /* \"#utility.yul\":2916:2926   */\n  gt\n    /* \"#utility.yul\":2913:2949   */\n  iszero\n  tag_98\n  jumpi\n    /* \"#utility.yul\":2929:2947   */\n  tag_99\n  tag_68\n  jump\t// in\ntag_99:\n    /* \"#utility.yul\":2913:2949   */\ntag_98:\n    /* \"#utility.yul\":2765:2956   */\n  swap3\n  swap2\n  pop\n  pop\n  jump\t// out\n    /* \"#utility.yul\":2962:3195   */\ntag_51:\n    /* \"#utility.yul\":3001:3004   */\n  0x00\n    /* \"#utility.yul\":3024:3048   */\n  tag_101\n    /* \"#utility.yul\":3042:3047   */\n  dup3\n    /* \"#utility.yul\":3024:3048   */\n  tag_67\n  jump\t// in\ntag_101:\n    /* \"#utility.yul\":3015:3048   */\n  swap2\n  pop\n    /* \"#utility.yul\":3070:3136   */\n  0xffffffffffffffffffffffffffffffffffffffffffffffffffffffffffffffff\n    /* \"#utility.yul\":3063:3068   */\n  dup3\n    /* \"#utility.yul\":3060:3137   */\n  sub\n    /* \"#utility.yul\":3057:3160   */\n  tag_102\n  jumpi\n    /* \"#utility.yul\":3140:3158   */\n  tag_103\n  tag_68\n  jump\t// in\ntag_103:\n    /* \"#utility.yul\":3057:3160   */\ntag_102:\n    /* \"#utility.yul\":3187:3188   */\n  0x01\n    /* \"#utility.yul\":3180:3185   */\n  dup3\n    /* \"#utility.yul\":3176:3189   */\n  add\n    /* \"#utility.yul\":3169:3189   */\n  swap1\n  pop\n    /* \"#utility.yul\":2962:3195   */\n  swap2\n  swap1\n  pop\n  jump\t// out\n    /* \"#utility.yul\":3201:3319   */\ntag_69:\n    /* \"#utility.yul\":3288:3312   */\n  tag_105\n    /* \"#utility.yul\":3306:3311   */\n  dup2\n    /* \"#utility.yul\":3288:3312   */\n  tag_67\n  jump\t// in\ntag_105:\n    /* \"#utility.yul\":3283:3286   */\n  dup3\n    /* \"#utility.yul\":3276:3313   */\n  mstore\n    /* \"#utility.yul\":3201:3319   */\n  pop\n  pop\n  jump\t// out\n    /* \"#utility.yul\":3325:3439   */\ntag_70:\n    /* \"#utility.yul\":3392:3398   */\n  0x00\n    /* \"#utility.yul\":3426:3431   */\n  dup2\n    /* \"#utility.yul\":3420:3432   */\n  mload\n    /* \"#utility.yul\":3410:3432   */\n  swap1\n  pop\n    /* \"#utility.yul\":3325:3439   */\n  swap2\n  swap1\n  pop\n  jump\t// out\n    /* \"#utility.yul\":3445:3629   */\ntag_71:\n    /* \"#utility.yul\":3544:3555   */\n  0x00\n    /* \"#utility.yul\":3578:3584   */\n  dup3\n    /* \"#utility.yul\":3573:3576   */\n  dup3\n    /* \"#utility.yul\":3566:3585   */\n  mstore\n    /* \"#utility.yul\":3618:3622   */\n  0x20\n    /* \"#utility.yul\":3613:3616   */\n  dup3\n    /* \"#utility.yul\":3609:3623   */\n  add\n    /* \"#utility.yul\":3594:3623   */\n  swap1\n  pop\n    /* \"#utility.yul\":3445:3629   */\n  swap3\n  swap2\n  pop\n  pop\n  jump\t// out\n    /* \"#utility.yul\":3635:3767   */\ntag_72:\n    /* \"#utility.yul\":3702:3706   */\n  0x00\n    /* \"#utility.yul\":3725:3728   */\n  dup2\n    /* \"#utility.yul\":3717:3728   */\n  swap1\n  pop\n    /* \"#utility.yul\":3755:3759   */\n  0x20\n    /* \"#utility.yul\":3750:3753   */\n  dup3\n    /* \"#utility.yul\":3746:3760   */\n  add\n    /* \"#utility.yul\":3738:3760   */\n  swap1\n  pop\n    /* \"#utility.yul\":3635:3767   */\n  swap2\n  swap1\n  pop\n  jump\t// out\n    /* \"#utility.yul\":3773:3881   */\ntag_73:\n    /* \"#utility.yul\":3850:3874   */\n  tag_110\n    /* \"#utility.yul\":3868:3873   */\n  dup2\n    /* \"#utility.yul\":3850:3874   */\n  tag_67\n  jump\t// in\ntag_110:\n    /* \"#utility.yul\":3845:3848   */\n  dup3\n    /* \"#utility.yul\":3838:3875   */\n  mstore\n    /* \"#utility.yul\":3773:3881   */\n  pop\n  pop\n  jump\t// out\n    /* \"#utility.yul\":3887:4066   */\ntag_74:\n    /* \"#utility.yul\":3956:3966   */\n  0x00\n    /* \"#utility.yul\":3977:4023   */\n  tag_112\n    /* \"#utility.yul\":4019:4022   */\n  dup4\n    /* \"#utility.yul\":4011:4017   */\n  dup4\n    /* \"#utility.yul\":3977:4023   */\n  tag_73\n  jump\t// in\ntag_112:\n    /* \"#utility.yul\":4055:4059   */\n  0x20\n    /* \"#utility.yul\":4050:4053   */\n  dup4\n    /* \"#utility.yul\":4046:4060   */\n  add\n    /* \"#utility.yul\":4032:4060   */\n  swap1\n  pop\n    /* \"#utility.yul\":3887:4066   */\n  swap3\n  swap2\n  pop\n  pop\n  jump\t// out\n    /* \"#utility.yul\":4072:4185   */\ntag_75:\n    /* \"#utility.yul\":4142:4146   */\n  0x00\n    /* \"#utility.yul\":4174:4178   */\n  0x20\n    /* \"#utility.yul\":4169:4172   */\n  dup3\n    /* \"#utility.yul\":4165:4179   */\n  add\n    /* \"#utility.yul\":4157:4179   */\n  swap1\n  pop\n    /* \"#utility.yul\":4072:4185   */\n  swap2\n  swap1\n  pop\n  jump\t// out\n    /* \"#utility.yul\":4221:4953   */\ntag_76:\n    /* \"#utility.yul\":4340:4343   */\n  0x00\n    /* \"#utility.yul\":4369:4423   */\n  tag_115\n    /* \"#utility.yul\":4417:4422   */\n  dup3\n    /* \"#utility.yul\":4369:4423   */\n  tag_70\n  jump\t// in\ntag_115:\n    /* \"#utility.yul\":4439:4525   */\n  tag_116\n    /* \"#utility.yul\":4518:4524   */\n  dup2\n    /* \"#utility.yul\":4513:4516   */\n  dup6\n    /* \"#utility.yul\":4439:4525   */\n  tag_71\n  jump\t// in\ntag_116:\n    /* \"#utility.yul\":4432:4525   */\n  swap4\n  pop\n    /* \"#utility.yul\":4549:4605   */\n  tag_117\n    /* \"#utility.yul\":4599:4604   */\n  dup4\n    /* \"#utility.yul\":4549:4605   */\n  tag_72\n  jump\t// in\ntag_117:\n    /* \"#utility.yul\":4628:4635   */\n  dup1\n    /* \"#utility.yul\":4659:4660   */\n  0x00\n    /* \"#utility.yul\":4644:4928   */\ntag_118:\n    /* \"#utility.yul\":4669:4675   */\n  dup4\n    /* \"#utility.yul\":4666:4667   */\n  dup2\n    /* \"#utility.yul\":4663:4676   */\n  lt\n    /* \"#utility.yul\":4644:4928   */\n  iszero\n  tag_120\n  jumpi\n    /* \"#utility.yul\":4745:4751   */\n  dup2\n    /* \"#utility.yul\":4739:4752   */\n  mload\n    /* \"#utility.yul\":4772:4835   */\n  tag_121\n    /* \"#utility.yul\":4831:4834   */\n  dup9\n    /* \"#utility.yul\":4816:4829   */\n  dup3\n    /* \"#utility.yul\":4772:4835   */\n  tag_74\n  jump\t// in\ntag_121:\n    /* \"#utility.yul\":4765:4835   */\n  swap8\n  pop\n    /* \"#utility.yul\":4858:4918   */\n  tag_122\n    /* \"#utility.yul\":4911:4917   */\n  dup4\n    /* \"#utility.yul\":4858:4918   */\n  tag_75\n  jump\t// in\ntag_122:\n    /* \"#utility.yul\":4848:4918   */\n  swap3\n  pop\n    /* \"#utility.yul\":4704:4928   */\n  pop\n    /* \"#utility.yul\":4691:4692   */\n  0x01\n    /* \"#utility.yul\":4688:4689   */\n  dup2\n    /* \"#utility.yul\":4684:4693   */\n  add\n    /* \"#utility.yul\":4679:4693   */\n  swap1\n  pop\n    /* \"#utility.yul\":4644:4928   */\n  jump(tag_118)\ntag_120:\n    /* \"#utility.yul\":4648:4662   */\n  pop\n    /* \"#utility.yul\":4944:4947   */\n  dup6\n    /* \"#utility.yul\":4937:4947   */\n  swap4\n  pop\n    /* \"#utility.yul\":4345:4953   */\n  pop\n  pop\n  pop\n    /* \"#utility.yul\":4221:4953   */\n  swap3\n  swap2\n  pop\n  pop\n  jump\t// out\n    /* \"#utility.yul\":4959:5552   */\ntag_54:\n    /* \"#utility.yul\":5158:5162   */\n  0x00\n    /* \"#utility.yul\":5196:5198   */\n  0x60\n    /* \"#utility.yul\":5185:5194   */\n  dup3\n    /* \"#utility.yul\":5181:5199   */\n  add\n    /* \"#utility.yul\":5173:5199   */\n  swap1\n  pop\n    /* \"#utility.yul\":5209:5280   */\n  tag_124\n    /* \"#utility.yul\":5277:5278   */\n  0x00\n    /* \"#utility.yul\":5266:5275   */\n  dup4\n    /* \"#utility.yul\":5262:5279   */\n  add\n    /* \"#utility.yul\":5253:5259   */\n  dup7\n    /* \"#utility.yul\":5209:5280   */\n  tag_69\n  jump\t// in\ntag_124:\n    /* \"#utility.yul\":5290:5362   */\n  tag_125\n    /* \"#utility.yul\":5358:5360   */\n  0x20\n    /* \"#utility.yul\":5347:5356   */\n  dup4\n    /* \"#utility.yul\":5343:5361   */\n  add\n    /* \"#utility.yul\":5334:5340   */\n  dup6\n    /* \"#utility.yul\":5290:5362   */\n  tag_69\n  jump\t// in\ntag_125:\n    /* \"#utility.yul\":5409:5418   */\n  dup2\n    /* \"#utility.yul\":5403:5407   */\n  dup2\n    /* \"#utility.yul\":5399:5419   */\n  sub\n    /* \"#utility.yul\":5394:5396   */\n  0x40\n    /* \"#utility.yul\":5383:5392   */\n  dup4\n    /* \"#utility.yul\":5379:5397   */\n  add\n    /* \"#utility.yul\":5372:5420   */\n  mstore\n    /* \"#utility.yul\":5437:5545   */\n  tag_126\n    /* \"#utility.yul\":5540:5544   */\n  dup2\n    /* \"#utility.yul\":5531:5537   */\n  dup5\n    /* \"#utility.yul\":5437:5545   */\n  tag_76\n  jump\t// in\ntag_126:\n    /* \"#utility.yul\":5429:5545   */\n  swap1\n  pop\n    /* \"#utility.yul\":4959:5552   */\n  swap5\n  swap4\n  pop\n  pop\n  pop\n  pop\n  jump\t// out\n    /* \"smartcontract/Aipodo.sol\":246:3846  contract Aipodo /* is ERC20 */{... */\ntag_23:\n  dataSize(sub_0)\n  dup1\n  dataOffset(sub_0)\n  0x00\n  codecopy\n  0x00\n  return\nstop\n\nsub_0: assembly {\n        /* \"smartcontract/Aipodo.sol\":246:3846  contract Aipodo /* is ERC20 */{... */\n      mstore(0x40, 0x80)\n      jumpi(tag_1, lt(calldatasize, 0x04))\n      shr(0xe0, calldataload(0x00))\n      dup1\n      0xd937d19f\n      gt\n      tag_11\n      jumpi\n      dup1\n      0xd937d19f\n      eq\n      tag_6\n      jumpi\n      dup1\n      0xe4ffc438\n      eq\n      tag_7\n      jumpi\n      dup1\n      0xef7a77a2\n      eq\n      tag_8\n      jumpi\n      dup1\n      0xf8167eb8\n      eq\n      tag_9\n      jumpi\n      dup1\n      0xfe3a51d3\n      eq\n      tag_10\n      jumpi\n      jump(tag_1)\n    tag_11:\n      dup1\n      0x1602c9f5\n      eq\n      tag_2\n      jumpi\n      dup1\n      0x3ccfd60b\n      eq\n      tag_3\n      jumpi\n      dup1\n      0x99834e7b\n      eq\n      tag_4\n      jumpi\n      dup1\n      0xd93580ff\n      eq\n      tag_5\n      jumpi\n    tag_1:\n      0x00\n      dup1\n      revert\n        /* \"smartcontract/Aipodo.sol\":1021:1811  function add_item(uint256 _hash, uint256 _price, uint256[] memory _parents) public {... */\n    tag_2:\n      callvalue\n      dup1\n      iszero\n      tag_12\n      jumpi\n      0x00\n      dup1\n      revert\n    tag_12:\n      pop\n      tag_13\n      0x04\n      dup1\n      calldatasize\n      sub\n      dup2\n      add\n      swap1\n      tag_14\n      swap2\n      swap1\n      tag_15\n      jump\t// in\n    tag_14:\n      tag_16\n      jump\t// in\n    tag_13:\n      stop\n        /* \"smartcontract/Aipodo.sol\":3708:3844  function withdraw() public {... */\n    tag_3:\n      callvalue\n      dup1\n      iszero\n      tag_17\n      jumpi\n      0x00\n      dup1\n      revert\n    tag_17:\n      pop\n      tag_18\n      tag_19\n      jump\t// in\n    tag_18:\n      stop\n        /* \"smartcontract/Aipodo.sol\":3010:3481  function get_item(uint256 _hash) public view returns (... */\n    tag_4:\n      callvalue\n      dup1\n      iszero\n      tag_20\n      jumpi\n      0x00\n      dup1\n      revert\n    tag_20:\n      pop\n      tag_21\n      0x04\n      dup1\n      calldatasize\n      sub\n      dup2\n      add\n      swap1\n      tag_22\n      swap2\n      swap1\n      tag_23\n      jump\t// in\n    tag_22:\n      tag_24\n      jump\t// in\n    tag_21:\n      mload(0x40)\n      tag_25\n      swap6\n      swap5\n      swap4\n      swap3\n      swap2\n      swap1\n      tag_26\n      jump\t// in\n    tag_25:\n      mload(0x40)\n      dup1\n      swap2\n      sub\n      swap1\n      return\n        /* \"smartcontract/Aipodo.sol\":1817:1996  function get_price(uint256 _hash) public view returns (uint256) {... */\n    tag_5:\n      callvalue\n      dup1\n      iszero\n      tag_27\n      jumpi\n      0x00\n      dup1\n      revert\n    tag_27:\n      pop\n      tag_28\n      0x04\n      dup1\n      calldatasize\n      sub\n      dup2\n      add\n      swap1\n      tag_29\n      swap2\n      swap1\n      tag_23\n      jump\t// in\n    tag_29:\n      tag_30\n      jump\t// in\n    tag_28:\n      mload(0x40)\n      tag_31\n      swap2\n      swap1\n      tag_32\n      jump\t// in\n    tag_31:\n      mload(0x40)\n      dup1\n      swap2\n      sub\n      swap1\n      return\n        /* \"smartcontract/Aipodo.sol\":2902:3004  function get_item_list() public view returns (uint256[] memory){... */\n    tag_6:\n      callvalue\n      dup1\n      iszero\n      tag_33\n      jumpi\n      0x00\n      dup1\n      revert\n    tag_33:\n      pop\n      tag_34\n      tag_35\n      jump\t// in\n    tag_34:\n      mload(0x40)\n      tag_36\n      swap2\n      swap1\n      tag_37\n      jump\t// in\n    tag_36:\n      mload(0x40)\n      dup1\n      swap2\n      sub\n      swap1\n      return\n        /* \"smartcontract/Aipodo.sol\":3487:3597  function get_owner_item() public view returns (uint256[] memory){... */\n    tag_7:\n      callvalue\n      dup1\n      iszero\n      tag_38\n      jumpi\n      0x00\n      dup1\n      revert\n    tag_38:\n      pop\n      tag_39\n      tag_40\n      jump\t// in\n    tag_39:\n      mload(0x40)\n      tag_41\n      swap2\n      swap1\n      tag_37\n      jump\t// in\n    tag_41:\n      mload(0x40)\n      dup1\n      swap2\n      sub\n      swap1\n      return\n        /* \"smartcontract/Aipodo.sol\":982:1014  uint256[] public item_list_array */\n    tag_8:\n      callvalue\n      dup1\n      iszero\n      tag_42\n      jumpi\n      0x00\n      dup1\n      revert\n    tag_42:\n      pop\n      tag_43\n      0x04\n      dup1\n      calldatasize\n      sub\n      dup2\n      add\n      swap1\n      tag_44\n      swap2\n      swap1\n      tag_23\n      jump\t// in\n    tag_44:\n      tag_45\n      jump\t// in\n    tag_43:\n      mload(0x40)\n      tag_46\n      swap2\n      swap1\n      tag_32\n      jump\t// in\n    tag_46:\n      mload(0x40)\n      dup1\n      swap2\n      sub\n      swap1\n      return\n        /* \"smartcontract/Aipodo.sol\":3603:3702  function my_balance() public view returns (uint256){... */\n    tag_9:\n      callvalue\n      dup1\n      iszero\n      tag_47\n      jumpi\n      0x00\n      dup1\n      revert\n    tag_47:\n      pop\n      tag_48\n      tag_49\n      jump\t// in\n    tag_48:\n      mload(0x40)\n      tag_50\n      swap2\n      swap1\n      tag_32\n      jump\t// in\n    tag_50:\n      mload(0x40)\n      dup1\n      swap2\n      sub\n      swap1\n      return\n        /* \"smartcontract/Aipodo.sol\":2405:2896  function buy_item(uint256 _hash) public payable {... */\n    tag_10:\n      tag_51\n      0x04\n      dup1\n      calldatasize\n      sub\n      dup2\n      add\n      swap1\n      tag_52\n      swap2\n      swap1\n      tag_23\n      jump\t// in\n    tag_52:\n      tag_53\n      jump\t// in\n    tag_51:\n      stop\n        /* \"smartcontract/Aipodo.sol\":1021:1811  function add_item(uint256 _hash, uint256 _price, uint256[] memory _parents) public {... */\n    tag_16:\n        /* \"smartcontract/Aipodo.sol\":1148:1149  0 */\n      0x00\n        /* \"smartcontract/Aipodo.sol\":1123:1132  item_list */\n      dup1\n        /* \"smartcontract/Aipodo.sol\":1123:1139  item_list[_hash] */\n      0x00\n        /* \"smartcontract/Aipodo.sol\":1133:1138  _hash */\n      dup6\n        /* \"smartcontract/Aipodo.sol\":1123:1139  item_list[_hash] */\n      dup2\n      mstore\n      0x20\n      add\n      swap1\n      dup2\n      mstore\n      0x20\n      add\n      0x00\n      keccak256\n        /* \"smartcontract/Aipodo.sol\":1123:1144  item_list[_hash].hash */\n      0x00\n      add\n      sload\n        /* \"smartcontract/Aipodo.sol\":1123:1149  item_list[_hash].hash == 0 */\n      eq\n        /* \"smartcontract/Aipodo.sol\":1114:1174  require (item_list[_hash].hash == 0, 'Item already present') */\n      tag_55\n      jumpi\n      mload(0x40)\n      0x08c379a000000000000000000000000000000000000000000000000000000000\n      dup2\n      mstore\n      0x04\n      add\n      tag_56\n      swap1\n      tag_57\n      jump\t// in\n    tag_56:\n      mload(0x40)\n      dup1\n      swap2\n      sub\n      swap1\n      revert\n    tag_55:\n        /* \"smartcontract/Aipodo.sol\":1208:1213  _hash */\n      dup3\n        /* \"smartcontract/Aipodo.sol\":1184:1193  item_list */\n      0x00\n        /* \"smartcontract/Aipodo.sol\":1184:1200  item_list[_hash] */\n      dup1\n        /* \"smartcontract/Aipodo.sol\":1194:1199  _hash */\n      dup6\n        /* \"smartcontract/Aipodo.sol\":1184:1200  item_list[_hash] */\n      dup2\n      mstore\n      0x20\n      add\n      swap1\n      dup2\n      mstore\n      0x20\n      add\n      0x00\n      keccak256\n        /* \"smartcontract/Aipodo.sol\":1184:1205  item_list[_hash].hash */\n      0x00\n      add\n        /* \"smartcontract/Aipodo.sol\":1184:1213  item_list[_hash].hash = _hash */\n      dup2\n      swap1\n      sstore\n      pop\n        /* \"smartcontract/Aipodo.sol\":1264:1272  _parents */\n      dup1\n        /* \"smartcontract/Aipodo.sol\":1264:1279  _parents.length */\n      mload\n        /* \"smartcontract/Aipodo.sol\":1250:1280  new uint256[](_parents.length) */\n      0xffffffffffffffff\n      dup2\n      gt\n      iszero\n      tag_58\n      jumpi\n      tag_59\n      tag_60\n      jump\t// in\n    tag_59:\n    tag_58:\n      mload(0x40)\n      swap1\n      dup1\n      dup3\n      mstore\n      dup1\n      0x20\n      mul\n      0x20\n      add\n      dup3\n      add\n      0x40\n      mstore\n      dup1\n      iszero\n      tag_61\n      jumpi\n      dup2\n      0x20\n      add\n      0x20\n      dup3\n      mul\n      dup1\n      calldatasize\n      dup4\n      calldatacopy\n      dup1\n      dup3\n      add\n      swap2\n      pop\n      pop\n      swap1\n      pop\n    tag_61:\n      pop\n        /* \"smartcontract/Aipodo.sol\":1223:1232  item_list */\n      0x00\n        /* \"smartcontract/Aipodo.sol\":1223:1239  item_list[_hash] */\n      dup1\n        /* \"smartcontract/Aipodo.sol\":1233:1238  _hash */\n      dup6\n        /* \"smartcontract/Aipodo.sol\":1223:1239  item_list[_hash] */\n      dup2\n      mstore\n      0x20\n      add\n      swap1\n      dup2\n      mstore\n      0x20\n      add\n      0x00\n      keccak256\n        /* \"smartcontract/Aipodo.sol\":1223:1247  item_list[_hash].parents */\n      0x04\n      add\n        /* \"smartcontract/Aipodo.sol\":1223:1280  item_list[_hash].parents = new uint256[](_parents.length) */\n      swap1\n      dup1\n      mload\n      swap1\n      0x20\n      add\n      swap1\n      tag_62\n      swap3\n      swap2\n      swap1\n      tag_63\n      jump\t// in\n    tag_62:\n      pop\n        /* \"smartcontract/Aipodo.sol\":1290:1308  uint256 full_price */\n      0x00\n        /* \"smartcontract/Aipodo.sol\":1311:1317  _price */\n      dup3\n        /* \"smartcontract/Aipodo.sol\":1290:1317  uint256 full_price = _price */\n      swap1\n      pop\n        /* \"smartcontract/Aipodo.sol\":1332:1338  uint i */\n      0x00\n        /* \"smartcontract/Aipodo.sol\":1327:1577  for (uint i=0; i< _parents.length; i++) {... */\n    tag_64:\n        /* \"smartcontract/Aipodo.sol\":1345:1353  _parents */\n      dup3\n        /* \"smartcontract/Aipodo.sol\":1345:1360  _parents.length */\n      mload\n        /* \"smartcontract/Aipodo.sol\":1342:1343  i */\n      dup2\n        /* \"smartcontract/Aipodo.sol\":1342:1360  i< _parents.length */\n      lt\n        /* \"smartcontract/Aipodo.sol\":1327:1577  for (uint i=0; i< _parents.length; i++) {... */\n      iszero\n      tag_65\n      jumpi\n        /* \"smartcontract/Aipodo.sol\":1421:1422  0 */\n      0x00\n        /* \"smartcontract/Aipodo.sol\":1390:1399  item_list */\n      dup1\n        /* \"smartcontract/Aipodo.sol\":1390:1412  item_list[_parents[i]] */\n      0x00\n        /* \"smartcontract/Aipodo.sol\":1400:1408  _parents */\n      dup6\n        /* \"smartcontract/Aipodo.sol\":1409:1410  i */\n      dup5\n        /* \"smartcontract/Aipodo.sol\":1400:1411  _parents[i] */\n      dup2\n      mload\n      dup2\n      lt\n      tag_67\n      jumpi\n      tag_68\n      tag_69\n      jump\t// in\n    tag_68:\n    tag_67:\n      0x20\n      mul\n      0x20\n      add\n      add\n      mload\n        /* \"smartcontract/Aipodo.sol\":1390:1412  item_list[_parents[i]] */\n      dup2\n      mstore\n      0x20\n      add\n      swap1\n      dup2\n      mstore\n      0x20\n      add\n      0x00\n      keccak256\n        /* \"smartcontract/Aipodo.sol\":1390:1417  item_list[_parents[i]].hash */\n      0x00\n      add\n      sload\n        /* \"smartcontract/Aipodo.sol\":1390:1422  item_list[_parents[i]].hash != 0 */\n      sub\n        /* \"smartcontract/Aipodo.sol\":1381:1443  require (item_list[_parents[i]].hash != 0, 'Parent not found') */\n      tag_70\n      jumpi\n      mload(0x40)\n      0x08c379a000000000000000000000000000000000000000000000000000000000\n      dup2\n      mstore\n      0x04\n      add\n      tag_71\n      swap1\n      tag_72\n      jump\t// in\n    tag_71:\n      mload(0x40)\n      dup1\n      swap2\n      sub\n      swap1\n      revert\n    tag_70:\n        /* \"smartcontract/Aipodo.sol\":1487:1495  _parents */\n      dup3\n        /* \"smartcontract/Aipodo.sol\":1496:1497  i */\n      dup2\n        /* \"smartcontract/Aipodo.sol\":1487:1498  _parents[i] */\n      dup2\n      mload\n      dup2\n      lt\n      tag_73\n      jumpi\n      tag_74\n      tag_69\n      jump\t// in\n    tag_74:\n    tag_73:\n      0x20\n      mul\n      0x20\n      add\n      add\n      mload\n        /* \"smartcontract/Aipodo.sol\":1457:1466  item_list */\n      0x00\n        /* \"smartcontract/Aipodo.sol\":1457:1473  item_list[_hash] */\n      dup1\n        /* \"smartcontract/Aipodo.sol\":1467:1472  _hash */\n      dup8\n        /* \"smartcontract/Aipodo.sol\":1457:1473  item_list[_hash] */\n      dup2\n      mstore\n      0x20\n      add\n      swap1\n      dup2\n      mstore\n      0x20\n      add\n      0x00\n      keccak256\n        /* \"smartcontract/Aipodo.sol\":1457:1481  item_list[_hash].parents */\n      0x04\n      add\n        /* \"smartcontract/Aipodo.sol\":1482:1483  i */\n      dup3\n        /* \"smartcontract/Aipodo.sol\":1457:1484  item_list[_hash].parents[i] */\n      dup2\n      sload\n      dup2\n      lt\n      tag_75\n      jumpi\n      tag_76\n      tag_69\n      jump\t// in\n    tag_76:\n    tag_75:\n      swap1\n      0x00\n      mstore\n      keccak256(0x00, 0x20)\n      add\n        /* \"smartcontract/Aipodo.sol\":1457:1498  item_list[_hash].parents[i] = _parents[i] */\n      dup2\n      swap1\n      sstore\n      pop\n        /* \"smartcontract/Aipodo.sol\":1538:1547  item_list */\n      0x00\n        /* \"smartcontract/Aipodo.sol\":1538:1560  item_list[_parents[i]] */\n      dup1\n        /* \"smartcontract/Aipodo.sol\":1548:1556  _parents */\n      dup5\n        /* \"smartcontract/Aipodo.sol\":1557:1558  i */\n      dup4\n        /* \"smartcontract/Aipodo.sol\":1548:1559  _parents[i] */\n      dup2\n      mload\n      dup2\n      lt\n      tag_78\n      jumpi\n      tag_79\n      tag_69\n      jump\t// in\n    tag_79:\n    tag_78:\n      0x20\n      mul\n      0x20\n      add\n      add\n      mload\n        /* \"smartcontract/Aipodo.sol\":1538:1560  item_list[_parents[i]] */\n      dup2\n      mstore\n      0x20\n      add\n      swap1\n      dup2\n      mstore\n      0x20\n      add\n      0x00\n      keccak256\n        /* \"smartcontract/Aipodo.sol\":1538:1566  item_list[_parents[i]].price */\n      0x01\n      add\n      sload\n        /* \"smartcontract/Aipodo.sol\":1525:1535  full_price */\n      dup3\n        /* \"smartcontract/Aipodo.sol\":1525:1566  full_price + item_list[_parents[i]].price */\n      tag_80\n      swap2\n      swap1\n      tag_81\n      jump\t// in\n    tag_80:\n        /* \"smartcontract/Aipodo.sol\":1512:1566  full_price = full_price + item_list[_parents[i]].price */\n      swap2\n      pop\n        /* \"smartcontract/Aipodo.sol\":1362:1365  i++ */\n      dup1\n      dup1\n      tag_82\n      swap1\n      tag_83\n      jump\t// in\n    tag_82:\n      swap2\n      pop\n      pop\n        /* \"smartcontract/Aipodo.sol\":1327:1577  for (uint i=0; i< _parents.length; i++) {... */\n      jump(tag_64)\n    tag_65:\n      pop\n        /* \"smartcontract/Aipodo.sol\":1611:1617  _price */\n      dup3\n        /* \"smartcontract/Aipodo.sol\":1586:1595  item_list */\n      0x00\n        /* \"smartcontract/Aipodo.sol\":1586:1602  item_list[_hash] */\n      dup1\n        /* \"smartcontract/Aipodo.sol\":1596:1601  _hash */\n      dup7\n        /* \"smartcontract/Aipodo.sol\":1586:1602  item_list[_hash] */\n      dup2\n      mstore\n      0x20\n      add\n      swap1\n      dup2\n      mstore\n      0x20\n      add\n      0x00\n      keccak256\n        /* \"smartcontract/Aipodo.sol\":1586:1608  item_list[_hash].price */\n      0x01\n      add\n        /* \"smartcontract/Aipodo.sol\":1586:1617  item_list[_hash].price = _price */\n      dup2\n      swap1\n      sstore\n      pop\n        /* \"smartcontract/Aipodo.sol\":1657:1667  full_price */\n      dup1\n        /* \"smartcontract/Aipodo.sol\":1627:1636  item_list */\n      0x00\n        /* \"smartcontract/Aipodo.sol\":1627:1643  item_list[_hash] */\n      dup1\n        /* \"smartcontract/Aipodo.sol\":1637:1642  _hash */\n      dup7\n        /* \"smartcontract/Aipodo.sol\":1627:1643  item_list[_hash] */\n      dup2\n      mstore\n      0x20\n      add\n      swap1\n      dup2\n      mstore\n      0x20\n      add\n      0x00\n      keccak256\n        /* \"smartcontract/Aipodo.sol\":1627:1654  item_list[_hash].full_price */\n      0x03\n      add\n        /* \"smartcontract/Aipodo.sol\":1627:1667  item_list[_hash].full_price = full_price */\n      dup2\n      swap1\n      sstore\n      pop\n        /* \"smartcontract/Aipodo.sol\":1702:1712  msg.sender */\n      caller\n        /* \"smartcontract/Aipodo.sol\":1677:1686  item_list */\n      0x00\n        /* \"smartcontract/Aipodo.sol\":1677:1693  item_list[_hash] */\n      dup1\n        /* \"smartcontract/Aipodo.sol\":1687:1692  _hash */\n      dup7\n        /* \"smartcontract/Aipodo.sol\":1677:1693  item_list[_hash] */\n      dup2\n      mstore\n      0x20\n      add\n      swap1\n      dup2\n      mstore\n      0x20\n      add\n      0x00\n      keccak256\n        /* \"smartcontract/Aipodo.sol\":1677:1699  item_list[_hash].owner */\n      0x02\n      add\n      0x00\n        /* \"smartcontract/Aipodo.sol\":1677:1712  item_list[_hash].owner = msg.sender */\n      0x0100\n      exp\n      dup2\n      sload\n      dup2\n      0xffffffffffffffffffffffffffffffffffffffff\n      mul\n      not\n      and\n      swap1\n      dup4\n      0xffffffffffffffffffffffffffffffffffffffff\n      and\n      mul\n      or\n      swap1\n      sstore\n      pop\n        /* \"smartcontract/Aipodo.sol\":1722:1737  item_list_array */\n      0x03\n        /* \"smartcontract/Aipodo.sol\":1743:1748  _hash */\n      dup5\n        /* \"smartcontract/Aipodo.sol\":1722:1749  item_list_array.push(_hash) */\n      swap1\n      dup1\n      0x01\n      dup2\n      sload\n      add\n      dup1\n      dup3\n      sstore\n      dup1\n      swap2\n      pop\n      pop\n      0x01\n      swap1\n      sub\n      swap1\n      0x00\n      mstore\n      keccak256(0x00, 0x20)\n      add\n      0x00\n      swap1\n      swap2\n      swap1\n      swap2\n      swap1\n      swap2\n      pop\n      sstore\n        /* \"smartcontract/Aipodo.sol\":1764:1804  ItemCreated(_hash, full_price, _parents) */\n      0x08f0c48f865c0b79f98aa03c78c16fc725b266610b1723c22b4048e230b4beb9\n        /* \"smartcontract/Aipodo.sol\":1776:1781  _hash */\n      dup5\n        /* \"smartcontract/Aipodo.sol\":1783:1793  full_price */\n      dup3\n        /* \"smartcontract/Aipodo.sol\":1795:1803  _parents */\n      dup5\n        /* \"smartcontract/Aipodo.sol\":1764:1804  ItemCreated(_hash, full_price, _parents) */\n      mload(0x40)\n      tag_85\n      swap4\n      swap3\n      swap2\n      swap1\n      tag_86\n      jump\t// in\n    tag_85:\n      mload(0x40)\n      dup1\n      swap2\n      sub\n      swap1\n      log1\n        /* \"smartcontract/Aipodo.sol\":1104:1811  {... */\n      pop\n        /* \"smartcontract/Aipodo.sol\":1021:1811  function add_item(uint256 _hash, uint256 _price, uint256[] memory _parents) public {... */\n      pop\n      pop\n      pop\n      jump\t// out\n        /* \"smartcontract/Aipodo.sol\":3708:3844  function withdraw() public {... */\n    tag_19:\n        /* \"smartcontract/Aipodo.sol\":3753:3763  msg.sender */\n      caller\n        /* \"smartcontract/Aipodo.sol\":3745:3773  payable(msg.sender).transfer */\n      0xffffffffffffffffffffffffffffffffffffffff\n      and\n        /* \"smartcontract/Aipodo.sol\":3745:3799  payable(msg.sender).transfer(balance_list[msg.sender]) */\n      0x08fc\n        /* \"smartcontract/Aipodo.sol\":3774:3786  balance_list */\n      0x02\n        /* \"smartcontract/Aipodo.sol\":3774:3798  balance_list[msg.sender] */\n      0x00\n        /* \"smartcontract/Aipodo.sol\":3787:3797  msg.sender */\n      caller\n        /* \"smartcontract/Aipodo.sol\":3774:3798  balance_list[msg.sender] */\n      0xffffffffffffffffffffffffffffffffffffffff\n      and\n      0xffffffffffffffffffffffffffffffffffffffff\n      and\n      dup2\n      mstore\n      0x20\n      add\n      swap1\n      dup2\n      mstore\n      0x20\n      add\n      0x00\n      keccak256\n      sload\n        /* \"smartcontract/Aipodo.sol\":3745:3799  payable(msg.sender).transfer(balance_list[msg.sender]) */\n      swap1\n      dup2\n      iszero\n      mul\n      swap1\n      mload(0x40)\n      0x00\n      mload(0x40)\n      dup1\n      dup4\n      sub\n      dup2\n      dup6\n      dup9\n      dup9\n      call\n      swap4\n      pop\n      pop\n      pop\n      pop\n      iszero\n      dup1\n      iszero\n      tag_89\n      jumpi\n      returndatasize\n      0x00\n      dup1\n      returndatacopy\n      revert(0x00, returndatasize)\n    tag_89:\n      pop\n        /* \"smartcontract/Aipodo.sol\":3836:3837  0 */\n      0x00\n        /* \"smartcontract/Aipodo.sol\":3809:3821  balance_list */\n      0x02\n        /* \"smartcontract/Aipodo.sol\":3809:3833  balance_list[msg.sender] */\n      0x00\n        /* \"smartcontract/Aipodo.sol\":3822:3832  msg.sender */\n      caller\n        /* \"smartcontract/Aipodo.sol\":3809:3833  balance_list[msg.sender] */\n      0xffffffffffffffffffffffffffffffffffffffff\n      and\n      0xffffffffffffffffffffffffffffffffffffffff\n      and\n      dup2\n      mstore\n      0x20\n      add\n      swap1\n      dup2\n      mstore\n      0x20\n      add\n      0x00\n      keccak256\n        /* \"smartcontract/Aipodo.sol\":3809:3837  balance_list[msg.sender] = 0 */\n      dup2\n      swap1\n      sstore\n      pop\n        /* \"smartcontract/Aipodo.sol\":3708:3844  function withdraw() public {... */\n      jump\t// out\n        /* \"smartcontract/Aipodo.sol\":3010:3481  function get_item(uint256 _hash) public view returns (... */\n    tag_24:\n        /* \"smartcontract/Aipodo.sol\":3073:3085  uint256 hash */\n      0x00\n        /* \"smartcontract/Aipodo.sol\":3095:3108  uint256 price */\n      dup1\n        /* \"smartcontract/Aipodo.sol\":3118:3131  address owner */\n      0x00\n        /* \"smartcontract/Aipodo.sol\":3141:3159  uint256 full_price */\n      dup1\n        /* \"smartcontract/Aipodo.sol\":3169:3193  uint256[] memory parents */\n      0x60\n        /* \"smartcontract/Aipodo.sol\":3242:3243  0 */\n      0x00\n        /* \"smartcontract/Aipodo.sol\":3217:3226  item_list */\n      dup1\n        /* \"smartcontract/Aipodo.sol\":3217:3233  item_list[_hash] */\n      0x00\n        /* \"smartcontract/Aipodo.sol\":3227:3232  _hash */\n      dup9\n        /* \"smartcontract/Aipodo.sol\":3217:3233  item_list[_hash] */\n      dup2\n      mstore\n      0x20\n      add\n      swap1\n      dup2\n      mstore\n      0x20\n      add\n      0x00\n      keccak256\n        /* \"smartcontract/Aipodo.sol\":3217:3238  item_list[_hash].hash */\n      0x00\n      add\n      sload\n        /* \"smartcontract/Aipodo.sol\":3217:3243  item_list[_hash].hash != 0 */\n      sub\n        /* \"smartcontract/Aipodo.sol\":3209:3262  require(item_list[_hash].hash != 0, 'Item not found') */\n      tag_91\n      jumpi\n      mload(0x40)\n      0x08c379a000000000000000000000000000000000000000000000000000000000\n      dup2\n      mstore\n      0x04\n      add\n      tag_92\n      swap1\n      tag_93\n      jump\t// in\n    tag_92:\n      mload(0x40)\n      dup1\n      swap2\n      sub\n      swap1\n      revert\n    tag_91:\n        /* \"smartcontract/Aipodo.sol\":3279:3288  item_list */\n      0x00\n        /* \"smartcontract/Aipodo.sol\":3279:3295  item_list[_hash] */\n      dup1\n        /* \"smartcontract/Aipodo.sol\":3289:3294  _hash */\n      dup8\n        /* \"smartcontract/Aipodo.sol\":3279:3295  item_list[_hash] */\n      dup2\n      mstore\n      0x20\n      add\n      swap1\n      dup2\n      mstore\n      0x20\n      add\n      0x00\n      keccak256\n        /* \"smartcontract/Aipodo.sol\":3279:3300  item_list[_hash].hash */\n      0x00\n      add\n      sload\n        /* \"smartcontract/Aipodo.sol\":3272:3300  hash = item_list[_hash].hash */\n      swap5\n      pop\n        /* \"smartcontract/Aipodo.sol\":3318:3327  item_list */\n      0x00\n        /* \"smartcontract/Aipodo.sol\":3318:3334  item_list[_hash] */\n      dup1\n        /* \"smartcontract/Aipodo.sol\":3328:3333  _hash */\n      dup8\n        /* \"smartcontract/Aipodo.sol\":3318:3334  item_list[_hash] */\n      dup2\n      mstore\n      0x20\n      add\n      swap1\n      dup2\n      mstore\n      0x20\n      add\n      0x00\n      keccak256\n        /* \"smartcontract/Aipodo.sol\":3318:3340  item_list[_hash].price */\n      0x01\n      add\n      sload\n        /* \"smartcontract/Aipodo.sol\":3310:3340  price = item_list[_hash].price */\n      swap4\n      pop\n        /* \"smartcontract/Aipodo.sol\":3358:3367  item_list */\n      0x00\n        /* \"smartcontract/Aipodo.sol\":3358:3374  item_list[_hash] */\n      dup1\n        /* \"smartcontract/Aipodo.sol\":3368:3373  _hash */\n      dup8\n        /* \"smartcontract/Aipodo.sol\":3358:3374  item_list[_hash] */\n      dup2\n      mstore\n      0x20\n      add\n      swap1\n      dup2\n      mstore\n      0x20\n      add\n      0x00\n      keccak256\n        /* \"smartcontract/Aipodo.sol\":3358:3380  item_list[_hash].owner */\n      0x02\n      add\n      0x00\n      swap1\n      sload\n      swap1\n      0x0100\n      exp\n      swap1\n      div\n      0xffffffffffffffffffffffffffffffffffffffff\n      and\n        /* \"smartcontract/Aipodo.sol\":3350:3380  owner = item_list[_hash].owner */\n      swap3\n      pop\n        /* \"smartcontract/Aipodo.sol\":3403:3412  item_list */\n      0x00\n        /* \"smartcontract/Aipodo.sol\":3403:3419  item_list[_hash] */\n      dup1\n        /* \"smartcontract/Aipodo.sol\":3413:3418  _hash */\n      dup8\n        /* \"smartcontract/Aipodo.sol\":3403:3419  item_list[_hash] */\n      dup2\n      mstore\n      0x20\n      add\n      swap1\n      dup2\n      mstore\n      0x20\n      add\n      0x00\n      keccak256\n        /* \"smartcontract/Aipodo.sol\":3403:3430  item_list[_hash].full_price */\n      0x03\n      add\n      sload\n        /* \"smartcontract/Aipodo.sol\":3390:3430  full_price = item_list[_hash].full_price */\n      swap2\n      pop\n        /* \"smartcontract/Aipodo.sol\":3450:3459  item_list */\n      0x00\n        /* \"smartcontract/Aipodo.sol\":3450:3466  item_list[_hash] */\n      dup1\n        /* \"smartcontract/Aipodo.sol\":3460:3465  _hash */\n      dup8\n        /* \"smartcontract/Aipodo.sol\":3450:3466  item_list[_hash] */\n      dup2\n      mstore\n      0x20\n      add\n      swap1\n      dup2\n      mstore\n      0x20\n      add\n      0x00\n      keccak256\n        /* \"smartcontract/Aipodo.sol\":3450:3474  item_list[_hash].parents */\n      0x04\n      add\n        /* \"smartcontract/Aipodo.sol\":3440:3474  parents = item_list[_hash].parents */\n      dup1\n      sload\n      dup1\n      0x20\n      mul\n      0x20\n      add\n      mload(0x40)\n      swap1\n      dup2\n      add\n      0x40\n      mstore\n      dup1\n      swap3\n      swap2\n      swap1\n      dup2\n      dup2\n      mstore\n      0x20\n      add\n      dup3\n      dup1\n      sload\n      dup1\n      iszero\n      tag_94\n      jumpi\n      0x20\n      mul\n      dup3\n      add\n      swap2\n      swap1\n      0x00\n      mstore\n      keccak256(0x00, 0x20)\n      swap1\n    tag_95:\n      dup2\n      sload\n      dup2\n      mstore\n      0x20\n      add\n      swap1\n      0x01\n      add\n      swap1\n      dup1\n      dup4\n      gt\n      tag_95\n      jumpi\n    tag_94:\n      pop\n      pop\n      pop\n      pop\n      pop\n      swap1\n      pop\n        /* \"smartcontract/Aipodo.sol\":3010:3481  function get_item(uint256 _hash) public view returns (... */\n      swap2\n      swap4\n      swap6\n      swap1\n      swap3\n      swap5\n      pop\n      jump\t// out\n        /* \"smartcontract/Aipodo.sol\":1817:1996  function get_price(uint256 _hash) public view returns (uint256) {... */\n    tag_30:\n        /* \"smartcontract/Aipodo.sol\":1872:1879  uint256 */\n      0x00\n        /* \"smartcontract/Aipodo.sol\":1925:1926  0 */\n      dup1\n        /* \"smartcontract/Aipodo.sol\":1900:1909  item_list */\n      0x00\n        /* \"smartcontract/Aipodo.sol\":1900:1916  item_list[_hash] */\n      dup1\n        /* \"smartcontract/Aipodo.sol\":1910:1915  _hash */\n      dup5\n        /* \"smartcontract/Aipodo.sol\":1900:1916  item_list[_hash] */\n      dup2\n      mstore\n      0x20\n      add\n      swap1\n      dup2\n      mstore\n      0x20\n      add\n      0x00\n      keccak256\n        /* \"smartcontract/Aipodo.sol\":1900:1921  item_list[_hash].hash */\n      0x00\n      add\n      sload\n        /* \"smartcontract/Aipodo.sol\":1900:1926  item_list[_hash].hash != 0 */\n      sub\n        /* \"smartcontract/Aipodo.sol\":1891:1945  require (item_list[_hash].hash != 0, 'Item not found') */\n      tag_97\n      jumpi\n      mload(0x40)\n      0x08c379a000000000000000000000000000000000000000000000000000000000\n      dup2\n      mstore\n      0x04\n      add\n      tag_98\n      swap1\n      tag_93\n      jump\t// in\n    tag_98:\n      mload(0x40)\n      dup1\n      swap2\n      sub\n      swap1\n      revert\n    tag_97:\n        /* \"smartcontract/Aipodo.sol\":1962:1971  item_list */\n      0x00\n        /* \"smartcontract/Aipodo.sol\":1962:1978  item_list[_hash] */\n      dup1\n        /* \"smartcontract/Aipodo.sol\":1972:1977  _hash */\n      dup4\n        /* \"smartcontract/Aipodo.sol\":1962:1978  item_list[_hash] */\n      dup2\n      mstore\n      0x20\n      add\n      swap1\n      dup2\n      mstore\n      0x20\n      add\n      0x00\n      keccak256\n        /* \"smartcontract/Aipodo.sol\":1962:1989  item_list[_hash].full_price */\n      0x03\n      add\n      sload\n        /* \"smartcontract/Aipodo.sol\":1955:1989  return item_list[_hash].full_price */\n      swap1\n      pop\n        /* \"smartcontract/Aipodo.sol\":1817:1996  function get_price(uint256 _hash) public view returns (uint256) {... */\n      swap2\n      swap1\n      pop\n      jump\t// out\n        /* \"smartcontract/Aipodo.sol\":2902:3004  function get_item_list() public view returns (uint256[] memory){... */\n    tag_35:\n        /* \"smartcontract/Aipodo.sol\":2948:2964  uint256[] memory */\n      0x60\n        /* \"smartcontract/Aipodo.sol\":2982:2997  item_list_array */\n      0x03\n        /* \"smartcontract/Aipodo.sol\":2975:2997  return item_list_array */\n      dup1\n      sload\n      dup1\n      0x20\n      mul\n      0x20\n      add\n      mload(0x40)\n      swap1\n      dup2\n      add\n      0x40\n      mstore\n      dup1\n      swap3\n      swap2\n      swap1\n      dup2\n      dup2\n      mstore\n      0x20\n      add\n      dup3\n      dup1\n      sload\n      dup1\n      iszero\n      tag_100\n      jumpi\n      0x20\n      mul\n      dup3\n      add\n      swap2\n      swap1\n      0x00\n      mstore\n      keccak256(0x00, 0x20)\n      swap1\n    tag_101:\n      dup2\n      sload\n      dup2\n      mstore\n      0x20\n      add\n      swap1\n      0x01\n      add\n      swap1\n      dup1\n      dup4\n      gt\n      tag_101\n      jumpi\n    tag_100:\n      pop\n      pop\n      pop\n      pop\n      pop\n      swap1\n      pop\n        /* \"smartcontract/Aipodo.sol\":2902:3004  function get_item_list() public view returns (uint256[] memory){... */\n      swap1\n      jump\t// out\n        /* \"smartcontract/Aipodo.sol\":3487:3597  function get_owner_item() public view returns (uint256[] memory){... */\n    tag_40:\n        /* \"smartcontract/Aipodo.sol\":3534:3550  uint256[] memory */\n      0x60\n        /* \"smartcontract/Aipodo.sol\":3568:3578  owned_list */\n      0x01\n        /* \"smartcontract/Aipodo.sol\":3568:3590  owned_list[msg.sender] */\n      0x00\n        /* \"smartcontract/Aipodo.sol\":3579:3589  msg.sender */\n      caller\n        /* \"smartcontract/Aipodo.sol\":3568:3590  owned_list[msg.sender] */\n      0xffffffffffffffffffffffffffffffffffffffff\n      and\n      0xffffffffffffffffffffffffffffffffffffffff\n      and\n      dup2\n      mstore\n      0x20\n      add\n      swap1\n      dup2\n      mstore\n      0x20\n      add\n      0x00\n      keccak256\n        /* \"smartcontract/Aipodo.sol\":3561:3590  return owned_list[msg.sender] */\n      dup1\n      sload\n      dup1\n      0x20\n      mul\n      0x20\n      add\n      mload(0x40)\n      swap1\n      dup2\n      add\n      0x40\n      mstore\n      dup1\n      swap3\n      swap2\n      swap1\n      dup2\n      dup2\n      mstore\n      0x20\n      add\n      dup3\n      dup1\n      sload\n      dup1\n      iszero\n      tag_103\n      jumpi\n      0x20\n      mul\n      dup3\n      add\n      swap2\n      swap1\n      0x00\n      mstore\n      keccak256(0x00, 0x20)\n      swap1\n    tag_104:\n      dup2\n      sload\n      dup2\n      mstore\n      0x20\n      add\n      swap1\n      0x01\n      add\n      swap1\n      dup1\n      dup4\n      gt\n      tag_104\n      jumpi\n    tag_103:\n      pop\n      pop\n      pop\n      pop\n      pop\n      swap1\n      pop\n        /* \"smartcontract/Aipodo.sol\":3487:3597  function get_owner_item() public view returns (uint256[] memory){... */\n      swap1\n      jump\t// out\n        /* \"smartcontract/Aipodo.sol\":982:1014  uint256[] public item_list_array */\n    tag_45:\n      0x03\n      dup2\n      dup2\n      sload\n      dup2\n      lt\n      tag_105\n      jumpi\n      0x00\n      dup1\n      revert\n    tag_105:\n      swap1\n      0x00\n      mstore\n      keccak256(0x00, 0x20)\n      add\n      0x00\n      swap2\n      pop\n      swap1\n      pop\n      sload\n      dup2\n      jump\t// out\n        /* \"smartcontract/Aipodo.sol\":3603:3702  function my_balance() public view returns (uint256){... */\n    tag_49:\n        /* \"smartcontract/Aipodo.sol\":3646:3653  uint256 */\n      0x00\n        /* \"smartcontract/Aipodo.sol\":3671:3683  balance_list */\n      0x02\n        /* \"smartcontract/Aipodo.sol\":3671:3695  balance_list[msg.sender] */\n      0x00\n        /* \"smartcontract/Aipodo.sol\":3684:3694  msg.sender */\n      caller\n        /* \"smartcontract/Aipodo.sol\":3671:3695  balance_list[msg.sender] */\n      0xffffffffffffffffffffffffffffffffffffffff\n      and\n      0xffffffffffffffffffffffffffffffffffffffff\n      and\n      dup2\n      mstore\n      0x20\n      add\n      swap1\n      dup2\n      mstore\n      0x20\n      add\n      0x00\n      keccak256\n      sload\n        /* \"smartcontract/Aipodo.sol\":3664:3695  return balance_list[msg.sender] */\n      swap1\n      pop\n        /* \"smartcontract/Aipodo.sol\":3603:3702  function my_balance() public view returns (uint256){... */\n      swap1\n      jump\t// out\n        /* \"smartcontract/Aipodo.sol\":2405:2896  function buy_item(uint256 _hash) public payable {... */\n    tag_53:\n        /* \"smartcontract/Aipodo.sol\":2497:2498  0 */\n      0x00\n        /* \"smartcontract/Aipodo.sol\":2472:2481  item_list */\n      dup1\n        /* \"smartcontract/Aipodo.sol\":2472:2488  item_list[_hash] */\n      0x00\n        /* \"smartcontract/Aipodo.sol\":2482:2487  _hash */\n      dup4\n        /* \"smartcontract/Aipodo.sol\":2472:2488  item_list[_hash] */\n      dup2\n      mstore\n      0x20\n      add\n      swap1\n      dup2\n      mstore\n      0x20\n      add\n      0x00\n      keccak256\n        /* \"smartcontract/Aipodo.sol\":2472:2493  item_list[_hash].hash */\n      0x00\n      add\n      sload\n        /* \"smartcontract/Aipodo.sol\":2472:2498  item_list[_hash].hash != 0 */\n      sub\n        /* \"smartcontract/Aipodo.sol\":2463:2517  require (item_list[_hash].hash != 0, 'Item not found') */\n      tag_109\n      jumpi\n      mload(0x40)\n      0x08c379a000000000000000000000000000000000000000000000000000000000\n      dup2\n      mstore\n      0x04\n      add\n      tag_110\n      swap1\n      tag_93\n      jump\t// in\n    tag_110:\n      mload(0x40)\n      dup1\n      swap2\n      sub\n      swap1\n      revert\n    tag_109:\n        /* \"smartcontract/Aipodo.sol\":2549:2558  item_list */\n      0x00\n        /* \"smartcontract/Aipodo.sol\":2549:2565  item_list[_hash] */\n      dup1\n        /* \"smartcontract/Aipodo.sol\":2559:2564  _hash */\n      dup3\n        /* \"smartcontract/Aipodo.sol\":2549:2565  item_list[_hash] */\n      dup2\n      mstore\n      0x20\n      add\n      swap1\n      dup2\n      mstore\n      0x20\n      add\n      0x00\n      keccak256\n        /* \"smartcontract/Aipodo.sol\":2549:2576  item_list[_hash].full_price */\n      0x03\n      add\n      sload\n        /* \"smartcontract/Aipodo.sol\":2536:2545  msg.value */\n      callvalue\n        /* \"smartcontract/Aipodo.sol\":2536:2576  msg.value >= item_list[_hash].full_price */\n      lt\n      iszero\n        /* \"smartcontract/Aipodo.sol\":2527:2598  require (msg.value >= item_list[_hash].full_price, 'Not enought found') */\n      tag_111\n      jumpi\n      mload(0x40)\n      0x08c379a000000000000000000000000000000000000000000000000000000000\n      dup2\n      mstore\n      0x04\n      add\n      tag_112\n      swap1\n      tag_113\n      jump\t// in\n    tag_112:\n      mload(0x40)\n      dup1\n      swap2\n      sub\n      swap1\n      revert\n    tag_111:\n        /* \"smartcontract/Aipodo.sol\":2608:2622  uint256 amount */\n      0x00\n        /* \"smartcontract/Aipodo.sol\":2625:2662  pay_item(msg.value, item_list[_hash]) */\n      tag_114\n        /* \"smartcontract/Aipodo.sol\":2634:2643  msg.value */\n      callvalue\n        /* \"smartcontract/Aipodo.sol\":2645:2654  item_list */\n      0x00\n        /* \"smartcontract/Aipodo.sol\":2645:2661  item_list[_hash] */\n      dup1\n        /* \"smartcontract/Aipodo.sol\":2655:2660  _hash */\n      dup6\n        /* \"smartcontract/Aipodo.sol\":2645:2661  item_list[_hash] */\n      dup2\n      mstore\n      0x20\n      add\n      swap1\n      dup2\n      mstore\n      0x20\n      add\n      0x00\n      keccak256\n        /* \"smartcontract/Aipodo.sol\":2625:2633  pay_item */\n      tag_115\n        /* \"smartcontract/Aipodo.sol\":2625:2662  pay_item(msg.value, item_list[_hash]) */\n      jump\t// in\n    tag_114:\n        /* \"smartcontract/Aipodo.sol\":2608:2662  uint256 amount = pay_item(msg.value, item_list[_hash]) */\n      swap1\n      pop\n        /* \"smartcontract/Aipodo.sol\":2720:2732  balance_list */\n      0x02\n        /* \"smartcontract/Aipodo.sol\":2720:2756  balance_list[item_list[_hash].owner] */\n      0x00\n        /* \"smartcontract/Aipodo.sol\":2733:2742  item_list */\n      dup1\n        /* \"smartcontract/Aipodo.sol\":2733:2749  item_list[_hash] */\n      0x00\n        /* \"smartcontract/Aipodo.sol\":2743:2748  _hash */\n      dup6\n        /* \"smartcontract/Aipodo.sol\":2733:2749  item_list[_hash] */\n      dup2\n      mstore\n      0x20\n      add\n      swap1\n      dup2\n      mstore\n      0x20\n      add\n      0x00\n      keccak256\n        /* \"smartcontract/Aipodo.sol\":2733:2755  item_list[_hash].owner */\n      0x02\n      add\n      0x00\n      swap1\n      sload\n      swap1\n      0x0100\n      exp\n      swap1\n      div\n      0xffffffffffffffffffffffffffffffffffffffff\n      and\n        /* \"smartcontract/Aipodo.sol\":2720:2756  balance_list[item_list[_hash].owner] */\n      0xffffffffffffffffffffffffffffffffffffffff\n      and\n      0xffffffffffffffffffffffffffffffffffffffff\n      and\n      dup2\n      mstore\n      0x20\n      add\n      swap1\n      dup2\n      mstore\n      0x20\n      add\n      0x00\n      keccak256\n      sload\n        /* \"smartcontract/Aipodo.sol\":2711:2717  amount */\n      dup2\n        /* \"smartcontract/Aipodo.sol\":2711:2756  amount + balance_list[item_list[_hash].owner] */\n      tag_116\n      swap2\n      swap1\n      tag_81\n      jump\t// in\n    tag_116:\n        /* \"smartcontract/Aipodo.sol\":2672:2684  balance_list */\n      0x02\n        /* \"smartcontract/Aipodo.sol\":2672:2708  balance_list[item_list[_hash].owner] */\n      0x00\n        /* \"smartcontract/Aipodo.sol\":2685:2694  item_list */\n      dup1\n        /* \"smartcontract/Aipodo.sol\":2685:2701  item_list[_hash] */\n      0x00\n        /* \"smartcontract/Aipodo.sol\":2695:2700  _hash */\n      dup7\n        /* \"smartcontract/Aipodo.sol\":2685:2701  item_list[_hash] */\n      dup2\n      mstore\n      0x20\n      add\n      swap1\n      dup2\n      mstore\n      0x20\n      add\n      0x00\n      keccak256\n        /* \"smartcontract/Aipodo.sol\":2685:2707  item_list[_hash].owner */\n      0x02\n      add\n      0x00\n      swap1\n      sload\n      swap1\n      0x0100\n      exp\n      swap1\n      div\n      0xffffffffffffffffffffffffffffffffffffffff\n      and\n        /* \"smartcontract/Aipodo.sol\":2672:2708  balance_list[item_list[_hash].owner] */\n      0xffffffffffffffffffffffffffffffffffffffff\n      and\n      0xffffffffffffffffffffffffffffffffffffffff\n      and\n      dup2\n      mstore\n      0x20\n      add\n      swap1\n      dup2\n      mstore\n      0x20\n      add\n      0x00\n      keccak256\n        /* \"smartcontract/Aipodo.sol\":2672:2756  balance_list[item_list[_hash].owner] = amount + balance_list[item_list[_hash].owner] */\n      dup2\n      swap1\n      sstore\n      pop\n        /* \"smartcontract/Aipodo.sol\":2771:2793  ItemPay(_hash, amount) */\n      0x0412794071ca882aea8af3a77c06ddc350d5269100621ce7eb9db4e47e9c18fa\n        /* \"smartcontract/Aipodo.sol\":2779:2784  _hash */\n      dup3\n        /* \"smartcontract/Aipodo.sol\":2786:2792  amount */\n      dup3\n        /* \"smartcontract/Aipodo.sol\":2771:2793  ItemPay(_hash, amount) */\n      mload(0x40)\n      tag_117\n      swap3\n      swap2\n      swap1\n      tag_118\n      jump\t// in\n    tag_117:\n      mload(0x40)\n      dup1\n      swap2\n      sub\n      swap1\n      log1\n        /* \"smartcontract/Aipodo.sol\":2808:2845  ItemBuy(_hash, msg.value, msg.sender) */\n      0xc5cf601d86f12bd213afa76b1e45cda15388ce017dc71999d06a13e6460ce9b8\n        /* \"smartcontract/Aipodo.sol\":2816:2821  _hash */\n      dup3\n        /* \"smartcontract/Aipodo.sol\":2823:2832  msg.value */\n      callvalue\n        /* \"smartcontract/Aipodo.sol\":2834:2844  msg.sender */\n      caller\n        /* \"smartcontract/Aipodo.sol\":2808:2845  ItemBuy(_hash, msg.value, msg.sender) */\n      mload(0x40)\n      tag_119\n      swap4\n      swap3\n      swap2\n      swap1\n      tag_120\n      jump\t// in\n    tag_119:\n      mload(0x40)\n      dup1\n      swap2\n      sub\n      swap1\n      log1\n        /* \"smartcontract/Aipodo.sol\":2855:2865  owned_list */\n      0x01\n        /* \"smartcontract/Aipodo.sol\":2855:2877  owned_list[msg.sender] */\n      0x00\n        /* \"smartcontract/Aipodo.sol\":2866:2876  msg.sender */\n      caller\n        /* \"smartcontract/Aipodo.sol\":2855:2877  owned_list[msg.sender] */\n      0xffffffffffffffffffffffffffffffffffffffff\n      and\n      0xffffffffffffffffffffffffffffffffffffffff\n      and\n      dup2\n      mstore\n      0x20\n      add\n      swap1\n      dup2\n      mstore\n      0x20\n      add\n      0x00\n      keccak256\n        /* \"smartcontract/Aipodo.sol\":2883:2888  _hash */\n      dup3\n        /* \"smartcontract/Aipodo.sol\":2855:2889  owned_list[msg.sender].push(_hash) */\n      swap1\n      dup1\n      0x01\n      dup2\n      sload\n      add\n      dup1\n      dup3\n      sstore\n      dup1\n      swap2\n      pop\n      pop\n      0x01\n      swap1\n      sub\n      swap1\n      0x00\n      mstore\n      keccak256(0x00, 0x20)\n      add\n      0x00\n      swap1\n      swap2\n      swap1\n      swap2\n      swap1\n      swap2\n      pop\n      sstore\n        /* \"smartcontract/Aipodo.sol\":2453:2896  {... */\n      pop\n        /* \"smartcontract/Aipodo.sol\":2405:2896  function buy_item(uint256 _hash) public payable {... */\n      pop\n      jump\t// out\n        /* \"smartcontract/Aipodo.sol\":2002:2399  function pay_item(uint256 amount, Item storage item) private returns (uint256){... */\n    tag_115:\n        /* \"smartcontract/Aipodo.sol\":2072:2079  uint256 */\n      0x00\n        /* \"smartcontract/Aipodo.sol\":2108:2112  item */\n      dup2\n        /* \"smartcontract/Aipodo.sol\":2108:2118  item.price */\n      0x01\n      add\n      sload\n        /* \"smartcontract/Aipodo.sol\":2099:2105  amount */\n      dup4\n        /* \"smartcontract/Aipodo.sol\":2099:2118  amount - item.price */\n      tag_123\n      swap2\n      swap1\n      tag_124\n      jump\t// in\n    tag_123:\n        /* \"smartcontract/Aipodo.sol\":2090:2118  amount = amount - item.price */\n      swap3\n      pop\n        /* \"smartcontract/Aipodo.sol\":2168:2180  balance_list */\n      0x02\n        /* \"smartcontract/Aipodo.sol\":2168:2192  balance_list[item.owner] */\n      0x00\n        /* \"smartcontract/Aipodo.sol\":2181:2185  item */\n      dup4\n        /* \"smartcontract/Aipodo.sol\":2181:2191  item.owner */\n      0x02\n      add\n      0x00\n      swap1\n      sload\n      swap1\n      0x0100\n      exp\n      swap1\n      div\n      0xffffffffffffffffffffffffffffffffffffffff\n      and\n        /* \"smartcontract/Aipodo.sol\":2168:2192  balance_list[item.owner] */\n      0xffffffffffffffffffffffffffffffffffffffff\n      and\n      0xffffffffffffffffffffffffffffffffffffffff\n      and\n      dup2\n      mstore\n      0x20\n      add\n      swap1\n      dup2\n      mstore\n      0x20\n      add\n      0x00\n      keccak256\n      sload\n        /* \"smartcontract/Aipodo.sol\":2155:2159  item */\n      dup3\n        /* \"smartcontract/Aipodo.sol\":2155:2165  item.price */\n      0x01\n      add\n      sload\n        /* \"smartcontract/Aipodo.sol\":2155:2192  item.price + balance_list[item.owner] */\n      tag_125\n      swap2\n      swap1\n      tag_81\n      jump\t// in\n    tag_125:\n        /* \"smartcontract/Aipodo.sol\":2128:2140  balance_list */\n      0x02\n        /* \"smartcontract/Aipodo.sol\":2128:2152  balance_list[item.owner] */\n      0x00\n        /* \"smartcontract/Aipodo.sol\":2141:2145  item */\n      dup5\n        /* \"smartcontract/Aipodo.sol\":2141:2151  item.owner */\n      0x02\n      add\n      0x00\n      swap1\n      sload\n      swap1\n      0x0100\n      exp\n      swap1\n      div\n      0xffffffffffffffffffffffffffffffffffffffff\n      and\n        /* \"smartcontract/Aipodo.sol\":2128:2152  balance_list[item.owner] */\n      0xffffffffffffffffffffffffffffffffffffffff\n      and\n      0xffffffffffffffffffffffffffffffffffffffff\n      and\n      dup2\n      mstore\n      0x20\n      add\n      swap1\n      dup2\n      mstore\n      0x20\n      add\n      0x00\n      keccak256\n        /* \"smartcontract/Aipodo.sol\":2128:2192  balance_list[item.owner] = item.price + balance_list[item.owner] */\n      dup2\n      swap1\n      sstore\n      pop\n        /* \"smartcontract/Aipodo.sol\":2207:2237  ItemPay(item.hash, item.price) */\n      0x0412794071ca882aea8af3a77c06ddc350d5269100621ce7eb9db4e47e9c18fa\n        /* \"smartcontract/Aipodo.sol\":2215:2219  item */\n      dup3\n        /* \"smartcontract/Aipodo.sol\":2215:2224  item.hash */\n      0x00\n      add\n      sload\n        /* \"smartcontract/Aipodo.sol\":2226:2230  item */\n      dup4\n        /* \"smartcontract/Aipodo.sol\":2226:2236  item.price */\n      0x01\n      add\n      sload\n        /* \"smartcontract/Aipodo.sol\":2207:2237  ItemPay(item.hash, item.price) */\n      mload(0x40)\n      tag_126\n      swap3\n      swap2\n      swap1\n      tag_118\n      jump\t// in\n    tag_126:\n      mload(0x40)\n      dup1\n      swap2\n      sub\n      swap1\n      log1\n        /* \"smartcontract/Aipodo.sol\":2252:2258  uint i */\n      0x00\n        /* \"smartcontract/Aipodo.sol\":2247:2370  for (uint i=0; i < item.parents.length; i++) {... */\n    tag_127:\n        /* \"smartcontract/Aipodo.sol\":2266:2270  item */\n      dup3\n        /* \"smartcontract/Aipodo.sol\":2266:2278  item.parents */\n      0x04\n      add\n        /* \"smartcontract/Aipodo.sol\":2266:2285  item.parents.length */\n      dup1\n      sload\n      swap1\n      pop\n        /* \"smartcontract/Aipodo.sol\":2262:2263  i */\n      dup2\n        /* \"smartcontract/Aipodo.sol\":2262:2285  i < item.parents.length */\n      lt\n        /* \"smartcontract/Aipodo.sol\":2247:2370  for (uint i=0; i < item.parents.length; i++) {... */\n      iszero\n      tag_128\n      jumpi\n        /* \"smartcontract/Aipodo.sol\":2315:2359  pay_item(amount, item_list[item.parents[i]]) */\n      tag_130\n        /* \"smartcontract/Aipodo.sol\":2324:2330  amount */\n      dup5\n        /* \"smartcontract/Aipodo.sol\":2332:2341  item_list */\n      0x00\n        /* \"smartcontract/Aipodo.sol\":2332:2358  item_list[item.parents[i]] */\n      dup1\n        /* \"smartcontract/Aipodo.sol\":2342:2346  item */\n      dup7\n        /* \"smartcontract/Aipodo.sol\":2342:2354  item.parents */\n      0x04\n      add\n        /* \"smartcontract/Aipodo.sol\":2355:2356  i */\n      dup6\n        /* \"smartcontract/Aipodo.sol\":2342:2357  item.parents[i] */\n      dup2\n      sload\n      dup2\n      lt\n      tag_131\n      jumpi\n      tag_132\n      tag_69\n      jump\t// in\n    tag_132:\n    tag_131:\n      swap1\n      0x00\n      mstore\n      keccak256(0x00, 0x20)\n      add\n      sload\n        /* \"smartcontract/Aipodo.sol\":2332:2358  item_list[item.parents[i]] */\n      dup2\n      mstore\n      0x20\n      add\n      swap1\n      dup2\n      mstore\n      0x20\n      add\n      0x00\n      keccak256\n        /* \"smartcontract/Aipodo.sol\":2315:2323  pay_item */\n      tag_115\n        /* \"smartcontract/Aipodo.sol\":2315:2359  pay_item(amount, item_list[item.parents[i]]) */\n      jump\t// in\n    tag_130:\n        /* \"smartcontract/Aipodo.sol\":2306:2359  amount = pay_item(amount, item_list[item.parents[i]]) */\n      swap4\n      pop\n        /* \"smartcontract/Aipodo.sol\":2287:2290  i++ */\n      dup1\n      dup1\n      tag_134\n      swap1\n      tag_83\n      jump\t// in\n    tag_134:\n      swap2\n      pop\n      pop\n        /* \"smartcontract/Aipodo.sol\":2247:2370  for (uint i=0; i < item.parents.length; i++) {... */\n      jump(tag_127)\n    tag_128:\n      pop\n        /* \"smartcontract/Aipodo.sol\":2386:2392  amount */\n      dup3\n        /* \"smartcontract/Aipodo.sol\":2379:2392  return amount */\n      swap1\n      pop\n        /* \"smartcontract/Aipodo.sol\":2002:2399  function pay_item(uint256 amount, Item storage item) private returns (uint256){... */\n      swap3\n      swap2\n      pop\n      pop\n      jump\t// out\n    tag_63:\n      dup3\n      dup1\n      sload\n      dup3\n      dup3\n      sstore\n      swap1\n      0x00\n      mstore\n      keccak256(0x00, 0x20)\n      swap1\n      dup2\n      add\n      swap3\n      dup3\n      iszero\n      tag_135\n      jumpi\n      swap2\n      0x20\n      mul\n      dup3\n      add\n    tag_136:\n      dup3\n      dup2\n      gt\n      iszero\n      tag_137\n      jumpi\n      dup3\n      mload\n      dup3\n      sstore\n      swap2\n      0x20\n      add\n      swap2\n      swap1\n      0x01\n      add\n      swap1\n      jump(tag_136)\n    tag_137:\n    tag_135:\n      pop\n      swap1\n      pop\n      tag_138\n      swap2\n      swap1\n      tag_139\n      jump\t// in\n    tag_138:\n      pop\n      swap1\n      jump\t// out\n    tag_139:\n    tag_140:\n      dup1\n      dup3\n      gt\n      iszero\n      tag_141\n      jumpi\n      0x00\n      dup2\n      0x00\n      swap1\n      sstore\n      pop\n      0x01\n      add\n      jump(tag_140)\n    tag_141:\n      pop\n      swap1\n      jump\t// out\n        /* \"#utility.yul\":7:82   */\n    tag_142:\n        /* \"#utility.yul\":40:46   */\n      0x00\n        /* \"#utility.yul\":73:75   */\n      0x40\n        /* \"#utility.yul\":67:76   */\n      mload\n        /* \"#utility.yul\":57:76   */\n      swap1\n      pop\n        /* \"#utility.yul\":7:82   */\n      swap1\n      jump\t// out\n        /* \"#utility.yul\":88:205   */\n    tag_143:\n        /* \"#utility.yul\":197:198   */\n      0x00\n        /* \"#utility.yul\":194:195   */\n      dup1\n        /* \"#utility.yul\":187:199   */\n      revert\n        /* \"#utility.yul\":211:328   */\n    tag_144:\n        /* \"#utility.yul\":320:321   */\n      0x00\n        /* \"#utility.yul\":317:318   */\n      dup1\n        /* \"#utility.yul\":310:322   */\n      revert\n        /* \"#utility.yul\":334:411   */\n    tag_145:\n        /* \"#utility.yul\":371:378   */\n      0x00\n        /* \"#utility.yul\":400:405   */\n      dup2\n        /* \"#utility.yul\":389:405   */\n      swap1\n      pop\n        /* \"#utility.yul\":334:411   */\n      swap2\n      swap1\n      pop\n      jump\t// out\n        /* \"#utility.yul\":417:539   */\n    tag_146:\n        /* \"#utility.yul\":490:514   */\n      tag_183\n        /* \"#utility.yul\":508:513   */\n      dup2\n        /* \"#utility.yul\":490:514   */\n      tag_145\n      jump\t// in\n    tag_183:\n        /* \"#utility.yul\":483:488   */\n      dup2\n        /* \"#utility.yul\":480:515   */\n      eq\n        /* \"#utility.yul\":470:533   */\n      tag_184\n      jumpi\n        /* \"#utility.yul\":529:530   */\n      0x00\n        /* \"#utility.yul\":526:527   */\n      dup1\n        /* \"#utility.yul\":519:531   */\n      revert\n        /* \"#utility.yul\":470:533   */\n    tag_184:\n        /* \"#utility.yul\":417:539   */\n      pop\n      jump\t// out\n        /* \"#utility.yul\":545:684   */\n    tag_147:\n        /* \"#utility.yul\":591:596   */\n      0x00\n        /* \"#utility.yul\":629:635   */\n      dup2\n        /* \"#utility.yul\":616:636   */\n      calldataload\n        /* \"#utility.yul\":607:636   */\n      swap1\n      pop\n        /* \"#utility.yul\":645:678   */\n      tag_186\n        /* \"#utility.yul\":672:677   */\n      dup2\n        /* \"#utility.yul\":645:678   */\n      tag_146\n      jump\t// in\n    tag_186:\n        /* \"#utility.yul\":545:684   */\n      swap3\n      swap2\n      pop\n      pop\n      jump\t// out\n        /* \"#utility.yul\":690:807   */\n    tag_148:\n        /* \"#utility.yul\":799:800   */\n      0x00\n        /* \"#utility.yul\":796:797   */\n      dup1\n        /* \"#utility.yul\":789:801   */\n      revert\n        /* \"#utility.yul\":813:915   */\n    tag_149:\n        /* \"#utility.yul\":854:860   */\n      0x00\n        /* \"#utility.yul\":905:907   */\n      0x1f\n        /* \"#utility.yul\":901:908   */\n      not\n        /* \"#utility.yul\":896:898   */\n      0x1f\n        /* \"#utility.yul\":889:894   */\n      dup4\n        /* \"#utility.yul\":885:899   */\n      add\n        /* \"#utility.yul\":881:909   */\n      and\n        /* \"#utility.yul\":871:909   */\n      swap1\n      pop\n        /* \"#utility.yul\":813:915   */\n      swap2\n      swap1\n      pop\n      jump\t// out\n        /* \"#utility.yul\":921:1101   */\n    tag_60:\n        /* \"#utility.yul\":969:1046   */\n      0x4e487b7100000000000000000000000000000000000000000000000000000000\n        /* \"#utility.yul\":966:967   */\n      0x00\n        /* \"#utility.yul\":959:1047   */\n      mstore\n        /* \"#utility.yul\":1066:1070   */\n      0x41\n        /* \"#utility.yul\":1063:1064   */\n      0x04\n        /* \"#utility.yul\":1056:1071   */\n      mstore\n        /* \"#utility.yul\":1090:1094   */\n      0x24\n        /* \"#utility.yul\":1087:1088   */\n      0x00\n        /* \"#utility.yul\":1080:1095   */\n      revert\n        /* \"#utility.yul\":1107:1388   */\n    tag_150:\n        /* \"#utility.yul\":1190:1217   */\n      tag_191\n        /* \"#utility.yul\":1212:1216   */\n      dup3\n        /* \"#utility.yul\":1190:1217   */\n      tag_149\n      jump\t// in\n    tag_191:\n        /* \"#utility.yul\":1182:1188   */\n      dup2\n        /* \"#utility.yul\":1178:1218   */\n      add\n        /* \"#utility.yul\":1320:1326   */\n      dup2\n        /* \"#utility.yul\":1308:1318   */\n      dup2\n        /* \"#utility.yul\":1305:1327   */\n      lt\n        /* \"#utility.yul\":1284:1302   */\n      0xffffffffffffffff\n        /* \"#utility.yul\":1272:1282   */\n      dup3\n        /* \"#utility.yul\":1269:1303   */\n      gt\n        /* \"#utility.yul\":1266:1328   */\n      or\n        /* \"#utility.yul\":1263:1351   */\n      iszero\n      tag_192\n      jumpi\n        /* \"#utility.yul\":1331:1349   */\n      tag_193\n      tag_60\n      jump\t// in\n    tag_193:\n        /* \"#utility.yul\":1263:1351   */\n    tag_192:\n        /* \"#utility.yul\":1371:1381   */\n      dup1\n        /* \"#utility.yul\":1367:1369   */\n      0x40\n        /* \"#utility.yul\":1360:1382   */\n      mstore\n        /* \"#utility.yul\":1150:1388   */\n      pop\n        /* \"#utility.yul\":1107:1388   */\n      pop\n      pop\n      jump\t// out\n        /* \"#utility.yul\":1394:1523   */\n    tag_151:\n        /* \"#utility.yul\":1428:1434   */\n      0x00\n        /* \"#utility.yul\":1455:1475   */\n      tag_195\n      tag_142\n      jump\t// in\n    tag_195:\n        /* \"#utility.yul\":1445:1475   */\n      swap1\n      pop\n        /* \"#utility.yul\":1484:1517   */\n      tag_196\n        /* \"#utility.yul\":1512:1516   */\n      dup3\n        /* \"#utility.yul\":1504:1510   */\n      dup3\n        /* \"#utility.yul\":1484:1517   */\n      tag_150\n      jump\t// in\n    tag_196:\n        /* \"#utility.yul\":1394:1523   */\n      swap2\n      swap1\n      pop\n      jump\t// out\n        /* \"#utility.yul\":1529:1840   */\n    tag_152:\n        /* \"#utility.yul\":1606:1610   */\n      0x00\n        /* \"#utility.yul\":1696:1714   */\n      0xffffffffffffffff\n        /* \"#utility.yul\":1688:1694   */\n      dup3\n        /* \"#utility.yul\":1685:1715   */\n      gt\n        /* \"#utility.yul\":1682:1738   */\n      iszero\n      tag_198\n      jumpi\n        /* \"#utility.yul\":1718:1736   */\n      tag_199\n      tag_60\n      jump\t// in\n    tag_199:\n        /* \"#utility.yul\":1682:1738   */\n    tag_198:\n        /* \"#utility.yul\":1768:1772   */\n      0x20\n        /* \"#utility.yul\":1760:1766   */\n      dup3\n        /* \"#utility.yul\":1756:1773   */\n      mul\n        /* \"#utility.yul\":1748:1773   */\n      swap1\n      pop\n        /* \"#utility.yul\":1828:1832   */\n      0x20\n        /* \"#utility.yul\":1822:1826   */\n      dup2\n        /* \"#utility.yul\":1818:1833   */\n      add\n        /* \"#utility.yul\":1810:1833   */\n      swap1\n      pop\n        /* \"#utility.yul\":1529:1840   */\n      swap2\n      swap1\n      pop\n      jump\t// out\n        /* \"#utility.yul\":1846:1963   */\n    tag_153:\n        /* \"#utility.yul\":1955:1956   */\n      0x00\n        /* \"#utility.yul\":1952:1953   */\n      dup1\n        /* \"#utility.yul\":1945:1957   */\n      revert\n        /* \"#utility.yul\":1986:2696   */\n    tag_154:\n        /* \"#utility.yul\":2082:2087   */\n      0x00\n        /* \"#utility.yul\":2107:2188   */\n      tag_202\n        /* \"#utility.yul\":2123:2187   */\n      tag_203\n        /* \"#utility.yul\":2180:2186   */\n      dup5\n        /* \"#utility.yul\":2123:2187   */\n      tag_152\n      jump\t// in\n    tag_203:\n        /* \"#utility.yul\":2107:2188   */\n      tag_151\n      jump\t// in\n    tag_202:\n        /* \"#utility.yul\":2098:2188   */\n      swap1\n      pop\n        /* \"#utility.yul\":2208:2213   */\n      dup1\n        /* \"#utility.yul\":2237:2243   */\n      dup4\n        /* \"#utility.yul\":2230:2235   */\n      dup3\n        /* \"#utility.yul\":2223:2244   */\n      mstore\n        /* \"#utility.yul\":2271:2275   */\n      0x20\n        /* \"#utility.yul\":2264:2269   */\n      dup3\n        /* \"#utility.yul\":2260:2276   */\n      add\n        /* \"#utility.yul\":2253:2276   */\n      swap1\n      pop\n        /* \"#utility.yul\":2324:2328   */\n      0x20\n        /* \"#utility.yul\":2316:2322   */\n      dup5\n        /* \"#utility.yul\":2312:2329   */\n      mul\n        /* \"#utility.yul\":2304:2310   */\n      dup4\n        /* \"#utility.yul\":2300:2330   */\n      add\n        /* \"#utility.yul\":2353:2356   */\n      dup6\n        /* \"#utility.yul\":2345:2351   */\n      dup2\n        /* \"#utility.yul\":2342:2357   */\n      gt\n        /* \"#utility.yul\":2339:2461   */\n      iszero\n      tag_204\n      jumpi\n        /* \"#utility.yul\":2372:2451   */\n      tag_205\n      tag_153\n      jump\t// in\n    tag_205:\n        /* \"#utility.yul\":2339:2461   */\n    tag_204:\n        /* \"#utility.yul\":2487:2493   */\n      dup4\n        /* \"#utility.yul\":2470:2690   */\n    tag_206:\n        /* \"#utility.yul\":2504:2510   */\n      dup2\n        /* \"#utility.yul\":2499:2502   */\n      dup2\n        /* \"#utility.yul\":2496:2511   */\n      lt\n        /* \"#utility.yul\":2470:2690   */\n      iszero\n      tag_208\n      jumpi\n        /* \"#utility.yul\":2579:2582   */\n      dup1\n        /* \"#utility.yul\":2608:2645   */\n      tag_209\n        /* \"#utility.yul\":2641:2644   */\n      dup9\n        /* \"#utility.yul\":2629:2639   */\n      dup3\n        /* \"#utility.yul\":2608:2645   */\n      tag_147\n      jump\t// in\n    tag_209:\n        /* \"#utility.yul\":2603:2606   */\n      dup5\n        /* \"#utility.yul\":2596:2646   */\n      mstore\n        /* \"#utility.yul\":2675:2679   */\n      0x20\n        /* \"#utility.yul\":2670:2673   */\n      dup5\n        /* \"#utility.yul\":2666:2680   */\n      add\n        /* \"#utility.yul\":2659:2680   */\n      swap4\n      pop\n        /* \"#utility.yul\":2546:2690   */\n      pop\n        /* \"#utility.yul\":2530:2534   */\n      0x20\n        /* \"#utility.yul\":2525:2528   */\n      dup2\n        /* \"#utility.yul\":2521:2535   */\n      add\n        /* \"#utility.yul\":2514:2535   */\n      swap1\n      pop\n        /* \"#utility.yul\":2470:2690   */\n      jump(tag_206)\n    tag_208:\n        /* \"#utility.yul\":2474:2495   */\n      pop\n        /* \"#utility.yul\":2088:2696   */\n      pop\n      pop\n        /* \"#utility.yul\":1986:2696   */\n      swap4\n      swap3\n      pop\n      pop\n      pop\n      jump\t// out\n        /* \"#utility.yul\":2719:3089   */\n    tag_155:\n        /* \"#utility.yul\":2790:2795   */\n      0x00\n        /* \"#utility.yul\":2839:2842   */\n      dup3\n        /* \"#utility.yul\":2832:2836   */\n      0x1f\n        /* \"#utility.yul\":2824:2830   */\n      dup4\n        /* \"#utility.yul\":2820:2837   */\n      add\n        /* \"#utility.yul\":2816:2843   */\n      slt\n        /* \"#utility.yul\":2806:2928   */\n      tag_211\n      jumpi\n        /* \"#utility.yul\":2847:2926   */\n      tag_212\n      tag_148\n      jump\t// in\n    tag_212:\n        /* \"#utility.yul\":2806:2928   */\n    tag_211:\n        /* \"#utility.yul\":2964:2970   */\n      dup2\n        /* \"#utility.yul\":2951:2971   */\n      calldataload\n        /* \"#utility.yul\":2989:3083   */\n      tag_213\n        /* \"#utility.yul\":3079:3082   */\n      dup5\n        /* \"#utility.yul\":3071:3077   */\n      dup3\n        /* \"#utility.yul\":3064:3068   */\n      0x20\n        /* \"#utility.yul\":3056:3062   */\n      dup7\n        /* \"#utility.yul\":3052:3069   */\n      add\n        /* \"#utility.yul\":2989:3083   */\n      tag_154\n      jump\t// in\n    tag_213:\n        /* \"#utility.yul\":2980:3083   */\n      swap2\n      pop\n        /* \"#utility.yul\":2796:3089   */\n      pop\n        /* \"#utility.yul\":2719:3089   */\n      swap3\n      swap2\n      pop\n      pop\n      jump\t// out\n        /* \"#utility.yul\":3095:3924   */\n    tag_15:\n        /* \"#utility.yul\":3197:3203   */\n      0x00\n        /* \"#utility.yul\":3205:3211   */\n      dup1\n        /* \"#utility.yul\":3213:3219   */\n      0x00\n        /* \"#utility.yul\":3262:3264   */\n      0x60\n        /* \"#utility.yul\":3250:3259   */\n      dup5\n        /* \"#utility.yul\":3241:3248   */\n      dup7\n        /* \"#utility.yul\":3237:3260   */\n      sub\n        /* \"#utility.yul\":3233:3265   */\n      slt\n        /* \"#utility.yul\":3230:3349   */\n      iszero\n      tag_215\n      jumpi\n        /* \"#utility.yul\":3268:3347   */\n      tag_216\n      tag_143\n      jump\t// in\n    tag_216:\n        /* \"#utility.yul\":3230:3349   */\n    tag_215:\n        /* \"#utility.yul\":3388:3389   */\n      0x00\n        /* \"#utility.yul\":3413:3466   */\n      tag_217\n        /* \"#utility.yul\":3458:3465   */\n      dup7\n        /* \"#utility.yul\":3449:3455   */\n      dup3\n        /* \"#utility.yul\":3438:3447   */\n      dup8\n        /* \"#utility.yul\":3434:3456   */\n      add\n        /* \"#utility.yul\":3413:3466   */\n      tag_147\n      jump\t// in\n    tag_217:\n        /* \"#utility.yul\":3403:3466   */\n      swap4\n      pop\n        /* \"#utility.yul\":3359:3476   */\n      pop\n        /* \"#utility.yul\":3515:3517   */\n      0x20\n        /* \"#utility.yul\":3541:3594   */\n      tag_218\n        /* \"#utility.yul\":3586:3593   */\n      dup7\n        /* \"#utility.yul\":3577:3583   */\n      dup3\n        /* \"#utility.yul\":3566:3575   */\n      dup8\n        /* \"#utility.yul\":3562:3584   */\n      add\n        /* \"#utility.yul\":3541:3594   */\n      tag_147\n      jump\t// in\n    tag_218:\n        /* \"#utility.yul\":3531:3594   */\n      swap3\n      pop\n        /* \"#utility.yul\":3486:3604   */\n      pop\n        /* \"#utility.yul\":3671:3673   */\n      0x40\n        /* \"#utility.yul\":3660:3669   */\n      dup5\n        /* \"#utility.yul\":3656:3674   */\n      add\n        /* \"#utility.yul\":3643:3675   */\n      calldataload\n        /* \"#utility.yul\":3702:3720   */\n      0xffffffffffffffff\n        /* \"#utility.yul\":3694:3700   */\n      dup2\n        /* \"#utility.yul\":3691:3721   */\n      gt\n        /* \"#utility.yul\":3688:3805   */\n      iszero\n      tag_219\n      jumpi\n        /* \"#utility.yul\":3724:3803   */\n      tag_220\n      tag_144\n      jump\t// in\n    tag_220:\n        /* \"#utility.yul\":3688:3805   */\n    tag_219:\n        /* \"#utility.yul\":3829:3907   */\n      tag_221\n        /* \"#utility.yul\":3899:3906   */\n      dup7\n        /* \"#utility.yul\":3890:3896   */\n      dup3\n        /* \"#utility.yul\":3879:3888   */\n      dup8\n        /* \"#utility.yul\":3875:3897   */\n      add\n        /* \"#utility.yul\":3829:3907   */\n      tag_155\n      jump\t// in\n    tag_221:\n        /* \"#utility.yul\":3819:3907   */\n      swap2\n      pop\n        /* \"#utility.yul\":3614:3917   */\n      pop\n        /* \"#utility.yul\":3095:3924   */\n      swap3\n      pop\n      swap3\n      pop\n      swap3\n      jump\t// out\n        /* \"#utility.yul\":3930:4259   */\n    tag_23:\n        /* \"#utility.yul\":3989:3995   */\n      0x00\n        /* \"#utility.yul\":4038:4040   */\n      0x20\n        /* \"#utility.yul\":4026:4035   */\n      dup3\n        /* \"#utility.yul\":4017:4024   */\n      dup5\n        /* \"#utility.yul\":4013:4036   */\n      sub\n        /* \"#utility.yul\":4009:4041   */\n      slt\n        /* \"#utility.yul\":4006:4125   */\n      iszero\n      tag_223\n      jumpi\n        /* \"#utility.yul\":4044:4123   */\n      tag_224\n      tag_143\n      jump\t// in\n    tag_224:\n        /* \"#utility.yul\":4006:4125   */\n    tag_223:\n        /* \"#utility.yul\":4164:4165   */\n      0x00\n        /* \"#utility.yul\":4189:4242   */\n      tag_225\n        /* \"#utility.yul\":4234:4241   */\n      dup5\n        /* \"#utility.yul\":4225:4231   */\n      dup3\n        /* \"#utility.yul\":4214:4223   */\n      dup6\n        /* \"#utility.yul\":4210:4232   */\n      add\n        /* \"#utility.yul\":4189:4242   */\n      tag_147\n      jump\t// in\n    tag_225:\n        /* \"#utility.yul\":4179:4242   */\n      swap2\n      pop\n        /* \"#utility.yul\":4135:4252   */\n      pop\n        /* \"#utility.yul\":3930:4259   */\n      swap3\n      swap2\n      pop\n      pop\n      jump\t// out\n        /* \"#utility.yul\":4265:4383   */\n    tag_156:\n        /* \"#utility.yul\":4352:4376   */\n      tag_227\n        /* \"#utility.yul\":4370:4375   */\n      dup2\n        /* \"#utility.yul\":4352:4376   */\n      tag_145\n      jump\t// in\n    tag_227:\n        /* \"#utility.yul\":4347:4350   */\n      dup3\n        /* \"#utility.yul\":4340:4377   */\n      mstore\n        /* \"#utility.yul\":4265:4383   */\n      pop\n      pop\n      jump\t// out\n        /* \"#utility.yul\":4389:4515   */\n    tag_157:\n        /* \"#utility.yul\":4426:4433   */\n      0x00\n        /* \"#utility.yul\":4466:4508   */\n      0xffffffffffffffffffffffffffffffffffffffff\n        /* \"#utility.yul\":4459:4464   */\n      dup3\n        /* \"#utility.yul\":4455:4509   */\n      and\n        /* \"#utility.yul\":4444:4509   */\n      swap1\n      pop\n        /* \"#utility.yul\":4389:4515   */\n      swap2\n      swap1\n      pop\n      jump\t// out\n        /* \"#utility.yul\":4521:4617   */\n    tag_158:\n        /* \"#utility.yul\":4558:4565   */\n      0x00\n        /* \"#utility.yul\":4587:4611   */\n      tag_230\n        /* \"#utility.yul\":4605:4610   */\n      dup3\n        /* \"#utility.yul\":4587:4611   */\n      tag_157\n      jump\t// in\n    tag_230:\n        /* \"#utility.yul\":4576:4611   */\n      swap1\n      pop\n        /* \"#utility.yul\":4521:4617   */\n      swap2\n      swap1\n      pop\n      jump\t// out\n        /* \"#utility.yul\":4623:4741   */\n    tag_159:\n        /* \"#utility.yul\":4710:4734   */\n      tag_232\n        /* \"#utility.yul\":4728:4733   */\n      dup2\n        /* \"#utility.yul\":4710:4734   */\n      tag_158\n      jump\t// in\n    tag_232:\n        /* \"#utility.yul\":4705:4708   */\n      dup3\n        /* \"#utility.yul\":4698:4735   */\n      mstore\n        /* \"#utility.yul\":4623:4741   */\n      pop\n      pop\n      jump\t// out\n        /* \"#utility.yul\":4747:4861   */\n    tag_160:\n        /* \"#utility.yul\":4814:4820   */\n      0x00\n        /* \"#utility.yul\":4848:4853   */\n      dup2\n        /* \"#utility.yul\":4842:4854   */\n      mload\n        /* \"#utility.yul\":4832:4854   */\n      swap1\n      pop\n        /* \"#utility.yul\":4747:4861   */\n      swap2\n      swap1\n      pop\n      jump\t// out\n        /* \"#utility.yul\":4867:5051   */\n    tag_161:\n        /* \"#utility.yul\":4966:4977   */\n      0x00\n        /* \"#utility.yul\":5000:5006   */\n      dup3\n        /* \"#utility.yul\":4995:4998   */\n      dup3\n        /* \"#utility.yul\":4988:5007   */\n      mstore\n        /* \"#utility.yul\":5040:5044   */\n      0x20\n        /* \"#utility.yul\":5035:5038   */\n      dup3\n        /* \"#utility.yul\":5031:5045   */\n      add\n        /* \"#utility.yul\":5016:5045   */\n      swap1\n      pop\n        /* \"#utility.yul\":4867:5051   */\n      swap3\n      swap2\n      pop\n      pop\n      jump\t// out\n        /* \"#utility.yul\":5057:5189   */\n    tag_162:\n        /* \"#utility.yul\":5124:5128   */\n      0x00\n        /* \"#utility.yul\":5147:5150   */\n      dup2\n        /* \"#utility.yul\":5139:5150   */\n      swap1\n      pop\n        /* \"#utility.yul\":5177:5181   */\n      0x20\n        /* \"#utility.yul\":5172:5175   */\n      dup3\n        /* \"#utility.yul\":5168:5182   */\n      add\n        /* \"#utility.yul\":5160:5182   */\n      swap1\n      pop\n        /* \"#utility.yul\":5057:5189   */\n      swap2\n      swap1\n      pop\n      jump\t// out\n        /* \"#utility.yul\":5195:5303   */\n    tag_163:\n        /* \"#utility.yul\":5272:5296   */\n      tag_237\n        /* \"#utility.yul\":5290:5295   */\n      dup2\n        /* \"#utility.yul\":5272:5296   */\n      tag_145\n      jump\t// in\n    tag_237:\n        /* \"#utility.yul\":5267:5270   */\n      dup3\n        /* \"#utility.yul\":5260:5297   */\n      mstore\n        /* \"#utility.yul\":5195:5303   */\n      pop\n      pop\n      jump\t// out\n        /* \"#utility.yul\":5309:5488   */\n    tag_164:\n        /* \"#utility.yul\":5378:5388   */\n      0x00\n        /* \"#utility.yul\":5399:5445   */\n      tag_239\n        /* \"#utility.yul\":5441:5444   */\n      dup4\n        /* \"#utility.yul\":5433:5439   */\n      dup4\n        /* \"#utility.yul\":5399:5445   */\n      tag_163\n      jump\t// in\n    tag_239:\n        /* \"#utility.yul\":5477:5481   */\n      0x20\n        /* \"#utility.yul\":5472:5475   */\n      dup4\n        /* \"#utility.yul\":5468:5482   */\n      add\n        /* \"#utility.yul\":5454:5482   */\n      swap1\n      pop\n        /* \"#utility.yul\":5309:5488   */\n      swap3\n      swap2\n      pop\n      pop\n      jump\t// out\n        /* \"#utility.yul\":5494:5607   */\n    tag_165:\n        /* \"#utility.yul\":5564:5568   */\n      0x00\n        /* \"#utility.yul\":5596:5600   */\n      0x20\n        /* \"#utility.yul\":5591:5594   */\n      dup3\n        /* \"#utility.yul\":5587:5601   */\n      add\n        /* \"#utility.yul\":5579:5601   */\n      swap1\n      pop\n        /* \"#utility.yul\":5494:5607   */\n      swap2\n      swap1\n      pop\n      jump\t// out\n        /* \"#utility.yul\":5643:6375   */\n    tag_166:\n        /* \"#utility.yul\":5762:5765   */\n      0x00\n        /* \"#utility.yul\":5791:5845   */\n      tag_242\n        /* \"#utility.yul\":5839:5844   */\n      dup3\n        /* \"#utility.yul\":5791:5845   */\n      tag_160\n      jump\t// in\n    tag_242:\n        /* \"#utility.yul\":5861:5947   */\n      tag_243\n        /* \"#utility.yul\":5940:5946   */\n      dup2\n        /* \"#utility.yul\":5935:5938   */\n      dup6\n        /* \"#utility.yul\":5861:5947   */\n      tag_161\n      jump\t// in\n    tag_243:\n        /* \"#utility.yul\":5854:5947   */\n      swap4\n      pop\n        /* \"#utility.yul\":5971:6027   */\n      tag_244\n        /* \"#utility.yul\":6021:6026   */\n      dup4\n        /* \"#utility.yul\":5971:6027   */\n      tag_162\n      jump\t// in\n    tag_244:\n        /* \"#utility.yul\":6050:6057   */\n      dup1\n        /* \"#utility.yul\":6081:6082   */\n      0x00\n        /* \"#utility.yul\":6066:6350   */\n    tag_245:\n        /* \"#utility.yul\":6091:6097   */\n      dup4\n        /* \"#utility.yul\":6088:6089   */\n      dup2\n        /* \"#utility.yul\":6085:6098   */\n      lt\n        /* \"#utility.yul\":6066:6350   */\n      iszero\n      tag_247\n      jumpi\n        /* \"#utility.yul\":6167:6173   */\n      dup2\n        /* \"#utility.yul\":6161:6174   */\n      mload\n        /* \"#utility.yul\":6194:6257   */\n      tag_248\n        /* \"#utility.yul\":6253:6256   */\n      dup9\n        /* \"#utility.yul\":6238:6251   */\n      dup3\n        /* \"#utility.yul\":6194:6257   */\n      tag_164\n      jump\t// in\n    tag_248:\n        /* \"#utility.yul\":6187:6257   */\n      swap8\n      pop\n        /* \"#utility.yul\":6280:6340   */\n      tag_249\n        /* \"#utility.yul\":6333:6339   */\n      dup4\n        /* \"#utility.yul\":6280:6340   */\n      tag_165\n      jump\t// in\n    tag_249:\n        /* \"#utility.yul\":6270:6340   */\n      swap3\n      pop\n        /* \"#utility.yul\":6126:6350   */\n      pop\n        /* \"#utility.yul\":6113:6114   */\n      0x01\n        /* \"#utility.yul\":6110:6111   */\n      dup2\n        /* \"#utility.yul\":6106:6115   */\n      add\n        /* \"#utility.yul\":6101:6115   */\n      swap1\n      pop\n        /* \"#utility.yul\":6066:6350   */\n      jump(tag_245)\n    tag_247:\n        /* \"#utility.yul\":6070:6084   */\n      pop\n        /* \"#utility.yul\":6366:6369   */\n      dup6\n        /* \"#utility.yul\":6359:6369   */\n      swap4\n      pop\n        /* \"#utility.yul\":5767:6375   */\n      pop\n      pop\n      pop\n        /* \"#utility.yul\":5643:6375   */\n      swap3\n      swap2\n      pop\n      pop\n      jump\t// out\n        /* \"#utility.yul\":6381:7196   */\n    tag_26:\n        /* \"#utility.yul\":6636:6640   */\n      0x00\n        /* \"#utility.yul\":6674:6677   */\n      0xa0\n        /* \"#utility.yul\":6663:6672   */\n      dup3\n        /* \"#utility.yul\":6659:6678   */\n      add\n        /* \"#utility.yul\":6651:6678   */\n      swap1\n      pop\n        /* \"#utility.yul\":6688:6759   */\n      tag_251\n        /* \"#utility.yul\":6756:6757   */\n      0x00\n        /* \"#utility.yul\":6745:6754   */\n      dup4\n        /* \"#utility.yul\":6741:6758   */\n      add\n        /* \"#utility.yul\":6732:6738   */\n      dup9\n        /* \"#utility.yul\":6688:6759   */\n      tag_156\n      jump\t// in\n    tag_251:\n        /* \"#utility.yul\":6769:6841   */\n      tag_252\n        /* \"#utility.yul\":6837:6839   */\n      0x20\n        /* \"#utility.yul\":6826:6835   */\n      dup4\n        /* \"#utility.yul\":6822:6840   */\n      add\n        /* \"#utility.yul\":6813:6819   */\n      dup8\n        /* \"#utility.yul\":6769:6841   */\n      tag_156\n      jump\t// in\n    tag_252:\n        /* \"#utility.yul\":6851:6923   */\n      tag_253\n        /* \"#utility.yul\":6919:6921   */\n      0x40\n        /* \"#utility.yul\":6908:6917   */\n      dup4\n        /* \"#utility.yul\":6904:6922   */\n      add\n        /* \"#utility.yul\":6895:6901   */\n      dup7\n        /* \"#utility.yul\":6851:6923   */\n      tag_159\n      jump\t// in\n    tag_253:\n        /* \"#utility.yul\":6933:7005   */\n      tag_254\n        /* \"#utility.yul\":7001:7003   */\n      0x60\n        /* \"#utility.yul\":6990:6999   */\n      dup4\n        /* \"#utility.yul\":6986:7004   */\n      add\n        /* \"#utility.yul\":6977:6983   */\n      dup6\n        /* \"#utility.yul\":6933:7005   */\n      tag_156\n      jump\t// in\n    tag_254:\n        /* \"#utility.yul\":7053:7062   */\n      dup2\n        /* \"#utility.yul\":7047:7051   */\n      dup2\n        /* \"#utility.yul\":7043:7063   */\n      sub\n        /* \"#utility.yul\":7037:7040   */\n      0x80\n        /* \"#utility.yul\":7026:7035   */\n      dup4\n        /* \"#utility.yul\":7022:7041   */\n      add\n        /* \"#utility.yul\":7015:7064   */\n      mstore\n        /* \"#utility.yul\":7081:7189   */\n      tag_255\n        /* \"#utility.yul\":7184:7188   */\n      dup2\n        /* \"#utility.yul\":7175:7181   */\n      dup5\n        /* \"#utility.yul\":7081:7189   */\n      tag_166\n      jump\t// in\n    tag_255:\n        /* \"#utility.yul\":7073:7189   */\n      swap1\n      pop\n        /* \"#utility.yul\":6381:7196   */\n      swap7\n      swap6\n      pop\n      pop\n      pop\n      pop\n      pop\n      pop\n      jump\t// out\n        /* \"#utility.yul\":7202:7424   */\n    tag_32:\n        /* \"#utility.yul\":7295:7299   */\n      0x00\n        /* \"#utility.yul\":7333:7335   */\n      0x20\n        /* \"#utility.yul\":7322:7331   */\n      dup3\n        /* \"#utility.yul\":7318:7336   */\n      add\n        /* \"#utility.yul\":7310:7336   */\n      swap1\n      pop\n        /* \"#utility.yul\":7346:7417   */\n      tag_257\n        /* \"#utility.yul\":7414:7415   */\n      0x00\n        /* \"#utility.yul\":7403:7412   */\n      dup4\n        /* \"#utility.yul\":7399:7416   */\n      add\n        /* \"#utility.yul\":7390:7396   */\n      dup5\n        /* \"#utility.yul\":7346:7417   */\n      tag_156\n      jump\t// in\n    tag_257:\n        /* \"#utility.yul\":7202:7424   */\n      swap3\n      swap2\n      pop\n      pop\n      jump\t// out\n        /* \"#utility.yul\":7430:7803   */\n    tag_37:\n        /* \"#utility.yul\":7573:7577   */\n      0x00\n        /* \"#utility.yul\":7611:7613   */\n      0x20\n        /* \"#utility.yul\":7600:7609   */\n      dup3\n        /* \"#utility.yul\":7596:7614   */\n      add\n        /* \"#utility.yul\":7588:7614   */\n      swap1\n      pop\n        /* \"#utility.yul\":7660:7669   */\n      dup2\n        /* \"#utility.yul\":7654:7658   */\n      dup2\n        /* \"#utility.yul\":7650:7670   */\n      sub\n        /* \"#utility.yul\":7646:7647   */\n      0x00\n        /* \"#utility.yul\":7635:7644   */\n      dup4\n        /* \"#utility.yul\":7631:7648   */\n      add\n        /* \"#utility.yul\":7624:7671   */\n      mstore\n        /* \"#utility.yul\":7688:7796   */\n      tag_259\n        /* \"#utility.yul\":7791:7795   */\n      dup2\n        /* \"#utility.yul\":7782:7788   */\n      dup5\n        /* \"#utility.yul\":7688:7796   */\n      tag_166\n      jump\t// in\n    tag_259:\n        /* \"#utility.yul\":7680:7796   */\n      swap1\n      pop\n        /* \"#utility.yul\":7430:7803   */\n      swap3\n      swap2\n      pop\n      pop\n      jump\t// out\n        /* \"#utility.yul\":7809:7978   */\n    tag_167:\n        /* \"#utility.yul\":7893:7904   */\n      0x00\n        /* \"#utility.yul\":7927:7933   */\n      dup3\n        /* \"#utility.yul\":7922:7925   */\n      dup3\n        /* \"#utility.yul\":7915:7934   */\n      mstore\n        /* \"#utility.yul\":7967:7971   */\n      0x20\n        /* \"#utility.yul\":7962:7965   */\n      dup3\n        /* \"#utility.yul\":7958:7972   */\n      add\n        /* \"#utility.yul\":7943:7972   */\n      swap1\n      pop\n        /* \"#utility.yul\":7809:7978   */\n      swap3\n      swap2\n      pop\n      pop\n      jump\t// out\n        /* \"#utility.yul\":7984:8154   */\n    tag_168:\n        /* \"#utility.yul\":8124:8146   */\n      0x4974656d20616c72656164792070726573656e74000000000000000000000000\n        /* \"#utility.yul\":8120:8121   */\n      0x00\n        /* \"#utility.yul\":8112:8118   */\n      dup3\n        /* \"#utility.yul\":8108:8122   */\n      add\n        /* \"#utility.yul\":8101:8147   */\n      mstore\n        /* \"#utility.yul\":7984:8154   */\n      pop\n      jump\t// out\n        /* \"#utility.yul\":8160:8526   */\n    tag_169:\n        /* \"#utility.yul\":8302:8305   */\n      0x00\n        /* \"#utility.yul\":8323:8390   */\n      tag_263\n        /* \"#utility.yul\":8387:8389   */\n      0x14\n        /* \"#utility.yul\":8382:8385   */\n      dup4\n        /* \"#utility.yul\":8323:8390   */\n      tag_167\n      jump\t// in\n    tag_263:\n        /* \"#utility.yul\":8316:8390   */\n      swap2\n      pop\n        /* \"#utility.yul\":8399:8492   */\n      tag_264\n        /* \"#utility.yul\":8488:8491   */\n      dup3\n        /* \"#utility.yul\":8399:8492   */\n      tag_168\n      jump\t// in\n    tag_264:\n        /* \"#utility.yul\":8517:8519   */\n      0x20\n        /* \"#utility.yul\":8512:8515   */\n      dup3\n        /* \"#utility.yul\":8508:8520   */\n      add\n        /* \"#utility.yul\":8501:8520   */\n      swap1\n      pop\n        /* \"#utility.yul\":8160:8526   */\n      swap2\n      swap1\n      pop\n      jump\t// out\n        /* \"#utility.yul\":8532:8951   */\n    tag_57:\n        /* \"#utility.yul\":8698:8702   */\n      0x00\n        /* \"#utility.yul\":8736:8738   */\n      0x20\n        /* \"#utility.yul\":8725:8734   */\n      dup3\n        /* \"#utility.yul\":8721:8739   */\n      add\n        /* \"#utility.yul\":8713:8739   */\n      swap1\n      pop\n        /* \"#utility.yul\":8785:8794   */\n      dup2\n        /* \"#utility.yul\":8779:8783   */\n      dup2\n        /* \"#utility.yul\":8775:8795   */\n      sub\n        /* \"#utility.yul\":8771:8772   */\n      0x00\n        /* \"#utility.yul\":8760:8769   */\n      dup4\n        /* \"#utility.yul\":8756:8773   */\n      add\n        /* \"#utility.yul\":8749:8796   */\n      mstore\n        /* \"#utility.yul\":8813:8944   */\n      tag_266\n        /* \"#utility.yul\":8939:8943   */\n      dup2\n        /* \"#utility.yul\":8813:8944   */\n      tag_169\n      jump\t// in\n    tag_266:\n        /* \"#utility.yul\":8805:8944   */\n      swap1\n      pop\n        /* \"#utility.yul\":8532:8951   */\n      swap2\n      swap1\n      pop\n      jump\t// out\n        /* \"#utility.yul\":8957:9137   */\n    tag_69:\n        /* \"#utility.yul\":9005:9082   */\n      0x4e487b7100000000000000000000000000000000000000000000000000000000\n        /* \"#utility.yul\":9002:9003   */\n      0x00\n        /* \"#utility.yul\":8995:9083   */\n      mstore\n        /* \"#utility.yul\":9102:9106   */\n      0x32\n        /* \"#utility.yul\":9099:9100   */\n      0x04\n        /* \"#utility.yul\":9092:9107   */\n      mstore\n        /* \"#utility.yul\":9126:9130   */\n      0x24\n        /* \"#utility.yul\":9123:9124   */\n      0x00\n        /* \"#utility.yul\":9116:9131   */\n      revert\n        /* \"#utility.yul\":9143:9309   */\n    tag_170:\n        /* \"#utility.yul\":9283:9301   */\n      0x506172656e74206e6f7420666f756e6400000000000000000000000000000000\n        /* \"#utility.yul\":9279:9280   */\n      0x00\n        /* \"#utility.yul\":9271:9277   */\n      dup3\n        /* \"#utility.yul\":9267:9281   */\n      add\n        /* \"#utility.yul\":9260:9302   */\n      mstore\n        /* \"#utility.yul\":9143:9309   */\n      pop\n      jump\t// out\n        /* \"#utility.yul\":9315:9681   */\n    tag_171:\n        /* \"#utility.yul\":9457:9460   */\n      0x00\n        /* \"#utility.yul\":9478:9545   */\n      tag_270\n        /* \"#utility.yul\":9542:9544   */\n      0x10\n        /* \"#utility.yul\":9537:9540   */\n      dup4\n        /* \"#utility.yul\":9478:9545   */\n      tag_167\n      jump\t// in\n    tag_270:\n        /* \"#utility.yul\":9471:9545   */\n      swap2\n      pop\n        /* \"#utility.yul\":9554:9647   */\n      tag_271\n        /* \"#utility.yul\":9643:9646   */\n      dup3\n        /* \"#utility.yul\":9554:9647   */\n      tag_170\n      jump\t// in\n    tag_271:\n        /* \"#utility.yul\":9672:9674   */\n      0x20\n        /* \"#utility.yul\":9667:9670   */\n      dup3\n        /* \"#utility.yul\":9663:9675   */\n      add\n        /* \"#utility.yul\":9656:9675   */\n      swap1\n      pop\n        /* \"#utility.yul\":9315:9681   */\n      swap2\n      swap1\n      pop\n      jump\t// out\n        /* \"#utility.yul\":9687:10106   */\n    tag_72:\n        /* \"#utility.yul\":9853:9857   */\n      0x00\n        /* \"#utility.yul\":9891:9893   */\n      0x20\n        /* \"#utility.yul\":9880:9889   */\n      dup3\n        /* \"#utility.yul\":9876:9894   */\n      add\n        /* \"#utility.yul\":9868:9894   */\n      swap1\n      pop\n        /* \"#utility.yul\":9940:9949   */\n      dup2\n        /* \"#utility.yul\":9934:9938   */\n      dup2\n        /* \"#utility.yul\":9930:9950   */\n      sub\n        /* \"#utility.yul\":9926:9927   */\n      0x00\n        /* \"#utility.yul\":9915:9924   */\n      dup4\n        /* \"#utility.yul\":9911:9928   */\n      add\n        /* \"#utility.yul\":9904:9951   */\n      mstore\n        /* \"#utility.yul\":9968:10099   */\n      tag_273\n        /* \"#utility.yul\":10094:10098   */\n      dup2\n        /* \"#utility.yul\":9968:10099   */\n      tag_171\n      jump\t// in\n    tag_273:\n        /* \"#utility.yul\":9960:10099   */\n      swap1\n      pop\n        /* \"#utility.yul\":9687:10106   */\n      swap2\n      swap1\n      pop\n      jump\t// out\n        /* \"#utility.yul\":10112:10292   */\n    tag_172:\n        /* \"#utility.yul\":10160:10237   */\n      0x4e487b7100000000000000000000000000000000000000000000000000000000\n        /* \"#utility.yul\":10157:10158   */\n      0x00\n        /* \"#utility.yul\":10150:10238   */\n      mstore\n        /* \"#utility.yul\":10257:10261   */\n      0x11\n        /* \"#utility.yul\":10254:10255   */\n      0x04\n        /* \"#utility.yul\":10247:10262   */\n      mstore\n        /* \"#utility.yul\":10281:10285   */\n      0x24\n        /* \"#utility.yul\":10278:10279   */\n      0x00\n        /* \"#utility.yul\":10271:10286   */\n      revert\n        /* \"#utility.yul\":10298:10489   */\n    tag_81:\n        /* \"#utility.yul\":10338:10341   */\n      0x00\n        /* \"#utility.yul\":10357:10377   */\n      tag_276\n        /* \"#utility.yul\":10375:10376   */\n      dup3\n        /* \"#utility.yul\":10357:10377   */\n      tag_145\n      jump\t// in\n    tag_276:\n        /* \"#utility.yul\":10352:10377   */\n      swap2\n      pop\n        /* \"#utility.yul\":10391:10411   */\n      tag_277\n        /* \"#utility.yul\":10409:10410   */\n      dup4\n        /* \"#utility.yul\":10391:10411   */\n      tag_145\n      jump\t// in\n    tag_277:\n        /* \"#utility.yul\":10386:10411   */\n      swap3\n      pop\n        /* \"#utility.yul\":10434:10435   */\n      dup3\n        /* \"#utility.yul\":10431:10432   */\n      dup3\n        /* \"#utility.yul\":10427:10436   */\n      add\n        /* \"#utility.yul\":10420:10436   */\n      swap1\n      pop\n        /* \"#utility.yul\":10455:10458   */\n      dup1\n        /* \"#utility.yul\":10452:10453   */\n      dup3\n        /* \"#utility.yul\":10449:10459   */\n      gt\n        /* \"#utility.yul\":10446:10482   */\n      iszero\n      tag_278\n      jumpi\n        /* \"#utility.yul\":10462:10480   */\n      tag_279\n      tag_172\n      jump\t// in\n    tag_279:\n        /* \"#utility.yul\":10446:10482   */\n    tag_278:\n        /* \"#utility.yul\":10298:10489   */\n      swap3\n      swap2\n      pop\n      pop\n      jump\t// out\n        /* \"#utility.yul\":10495:10728   */\n    tag_83:\n        /* \"#utility.yul\":10534:10537   */\n      0x00\n        /* \"#utility.yul\":10557:10581   */\n      tag_281\n        /* \"#utility.yul\":10575:10580   */\n      dup3\n        /* \"#utility.yul\":10557:10581   */\n      tag_145\n      jump\t// in\n    tag_281:\n        /* \"#utility.yul\":10548:10581   */\n      swap2\n      pop\n        /* \"#utility.yul\":10603:10669   */\n      0xffffffffffffffffffffffffffffffffffffffffffffffffffffffffffffffff\n        /* \"#utility.yul\":10596:10601   */\n      dup3\n        /* \"#utility.yul\":10593:10670   */\n      sub\n        /* \"#utility.yul\":10590:10693   */\n      tag_282\n      jumpi\n        /* \"#utility.yul\":10673:10691   */\n      tag_283\n      tag_172\n      jump\t// in\n    tag_283:\n        /* \"#utility.yul\":10590:10693   */\n    tag_282:\n        /* \"#utility.yul\":10720:10721   */\n      0x01\n        /* \"#utility.yul\":10713:10718   */\n      dup3\n        /* \"#utility.yul\":10709:10722   */\n      add\n        /* \"#utility.yul\":10702:10722   */\n      swap1\n      pop\n        /* \"#utility.yul\":10495:10728   */\n      swap2\n      swap1\n      pop\n      jump\t// out\n        /* \"#utility.yul\":10734:11327   */\n    tag_86:\n        /* \"#utility.yul\":10933:10937   */\n      0x00\n        /* \"#utility.yul\":10971:10973   */\n      0x60\n        /* \"#utility.yul\":10960:10969   */\n      dup3\n        /* \"#utility.yul\":10956:10974   */\n      add\n        /* \"#utility.yul\":10948:10974   */\n      swap1\n      pop\n        /* \"#utility.yul\":10984:11055   */\n      tag_285\n        /* \"#utility.yul\":11052:11053   */\n      0x00\n        /* \"#utility.yul\":11041:11050   */\n      dup4\n        /* \"#utility.yul\":11037:11054   */\n      add\n        /* \"#utility.yul\":11028:11034   */\n      dup7\n        /* \"#utility.yul\":10984:11055   */\n      tag_156\n      jump\t// in\n    tag_285:\n        /* \"#utility.yul\":11065:11137   */\n      tag_286\n        /* \"#utility.yul\":11133:11135   */\n      0x20\n        /* \"#utility.yul\":11122:11131   */\n      dup4\n        /* \"#utility.yul\":11118:11136   */\n      add\n        /* \"#utility.yul\":11109:11115   */\n      dup6\n        /* \"#utility.yul\":11065:11137   */\n      tag_156\n      jump\t// in\n    tag_286:\n        /* \"#utility.yul\":11184:11193   */\n      dup2\n        /* \"#utility.yul\":11178:11182   */\n      dup2\n        /* \"#utility.yul\":11174:11194   */\n      sub\n        /* \"#utility.yul\":11169:11171   */\n      0x40\n        /* \"#utility.yul\":11158:11167   */\n      dup4\n        /* \"#utility.yul\":11154:11172   */\n      add\n        /* \"#utility.yul\":11147:11195   */\n      mstore\n        /* \"#utility.yul\":11212:11320   */\n      tag_287\n        /* \"#utility.yul\":11315:11319   */\n      dup2\n        /* \"#utility.yul\":11306:11312   */\n      dup5\n        /* \"#utility.yul\":11212:11320   */\n      tag_166\n      jump\t// in\n    tag_287:\n        /* \"#utility.yul\":11204:11320   */\n      swap1\n      pop\n        /* \"#utility.yul\":10734:11327   */\n      swap5\n      swap4\n      pop\n      pop\n      pop\n      pop\n      jump\t// out\n        /* \"#utility.yul\":11333:11497   */\n    tag_173:\n        /* \"#utility.yul\":11473:11489   */\n      0x4974656d206e6f7420666f756e64000000000000000000000000000000000000\n        /* \"#utility.yul\":11469:11470   */\n      0x00\n        /* \"#utility.yul\":11461:11467   */\n      dup3\n        /* \"#utility.yul\":11457:11471   */\n      add\n        /* \"#utility.yul\":11450:11490   */\n      mstore\n        /* \"#utility.yul\":11333:11497   */\n      pop\n      jump\t// out\n        /* \"#utility.yul\":11503:11869   */\n    tag_174:\n        /* \"#utility.yul\":11645:11648   */\n      0x00\n        /* \"#utility.yul\":11666:11733   */\n      tag_290\n        /* \"#utility.yul\":11730:11732   */\n      0x0e\n        /* \"#utility.yul\":11725:11728   */\n      dup4\n        /* \"#utility.yul\":11666:11733   */\n      tag_167\n      jump\t// in\n    tag_290:\n        /* \"#utility.yul\":11659:11733   */\n      swap2\n      pop\n        /* \"#utility.yul\":11742:11835   */\n      tag_291\n        /* \"#utility.yul\":11831:11834   */\n      dup3\n        /* \"#utility.yul\":11742:11835   */\n      tag_173\n      jump\t// in\n    tag_291:\n        /* \"#utility.yul\":11860:11862   */\n      0x20\n        /* \"#utility.yul\":11855:11858   */\n      dup3\n        /* \"#utility.yul\":11851:11863   */\n      add\n        /* \"#utility.yul\":11844:11863   */\n      swap1\n      pop\n        /* \"#utility.yul\":11503:11869   */\n      swap2\n      swap1\n      pop\n      jump\t// out\n        /* \"#utility.yul\":11875:12294   */\n    tag_93:\n        /* \"#utility.yul\":12041:12045   */\n      0x00\n        /* \"#utility.yul\":12079:12081   */\n      0x20\n        /* \"#utility.yul\":12068:12077   */\n      dup3\n        /* \"#utility.yul\":12064:12082   */\n      add\n        /* \"#utility.yul\":12056:12082   */\n      swap1\n      pop\n        /* \"#utility.yul\":12128:12137   */\n      dup2\n        /* \"#utility.yul\":12122:12126   */\n      dup2\n        /* \"#utility.yul\":12118:12138   */\n      sub\n        /* \"#utility.yul\":12114:12115   */\n      0x00\n        /* \"#utility.yul\":12103:12112   */\n      dup4\n        /* \"#utility.yul\":12099:12116   */\n      add\n        /* \"#utility.yul\":12092:12139   */\n      mstore\n        /* \"#utility.yul\":12156:12287   */\n      tag_293\n        /* \"#utility.yul\":12282:12286   */\n      dup2\n        /* \"#utility.yul\":12156:12287   */\n      tag_174\n      jump\t// in\n    tag_293:\n        /* \"#utility.yul\":12148:12287   */\n      swap1\n      pop\n        /* \"#utility.yul\":11875:12294   */\n      swap2\n      swap1\n      pop\n      jump\t// out\n        /* \"#utility.yul\":12300:12467   */\n    tag_175:\n        /* \"#utility.yul\":12440:12459   */\n      0x4e6f7420656e6f7567687420666f756e64000000000000000000000000000000\n        /* \"#utility.yul\":12436:12437   */\n      0x00\n        /* \"#utility.yul\":12428:12434   */\n      dup3\n        /* \"#utility.yul\":12424:12438   */\n      add\n        /* \"#utility.yul\":12417:12460   */\n      mstore\n        /* \"#utility.yul\":12300:12467   */\n      pop\n      jump\t// out\n        /* \"#utility.yul\":12473:12839   */\n    tag_176:\n        /* \"#utility.yul\":12615:12618   */\n      0x00\n        /* \"#utility.yul\":12636:12703   */\n      tag_296\n        /* \"#utility.yul\":12700:12702   */\n      0x11\n        /* \"#utility.yul\":12695:12698   */\n      dup4\n        /* \"#utility.yul\":12636:12703   */\n      tag_167\n      jump\t// in\n    tag_296:\n        /* \"#utility.yul\":12629:12703   */\n      swap2\n      pop\n        /* \"#utility.yul\":12712:12805   */\n      tag_297\n        /* \"#utility.yul\":12801:12804   */\n      dup3\n        /* \"#utility.yul\":12712:12805   */\n      tag_175\n      jump\t// in\n    tag_297:\n        /* \"#utility.yul\":12830:12832   */\n      0x20\n        /* \"#utility.yul\":12825:12828   */\n      dup3\n        /* \"#utility.yul\":12821:12833   */\n      add\n        /* \"#utility.yul\":12814:12833   */\n      swap1\n      pop\n        /* \"#utility.yul\":12473:12839   */\n      swap2\n      swap1\n      pop\n      jump\t// out\n        /* \"#utility.yul\":12845:13264   */\n    tag_113:\n        /* \"#utility.yul\":13011:13015   */\n      0x00\n        /* \"#utility.yul\":13049:13051   */\n      0x20\n        /* \"#utility.yul\":13038:13047   */\n      dup3\n        /* \"#utility.yul\":13034:13052   */\n      add\n        /* \"#utility.yul\":13026:13052   */\n      swap1\n      pop\n        /* \"#utility.yul\":13098:13107   */\n      dup2\n        /* \"#utility.yul\":13092:13096   */\n      dup2\n        /* \"#utility.yul\":13088:13108   */\n      sub\n        /* \"#utility.yul\":13084:13085   */\n      0x00\n        /* \"#utility.yul\":13073:13082   */\n      dup4\n        /* \"#utility.yul\":13069:13086   */\n      add\n        /* \"#utility.yul\":13062:13109   */\n      mstore\n        /* \"#utility.yul\":13126:13257   */\n      tag_299\n        /* \"#utility.yul\":13252:13256   */\n      dup2\n        /* \"#utility.yul\":13126:13257   */\n      tag_176\n      jump\t// in\n    tag_299:\n        /* \"#utility.yul\":13118:13257   */\n      swap1\n      pop\n        /* \"#utility.yul\":12845:13264   */\n      swap2\n      swap1\n      pop\n      jump\t// out\n        /* \"#utility.yul\":13270:13602   */\n    tag_118:\n        /* \"#utility.yul\":13391:13395   */\n      0x00\n        /* \"#utility.yul\":13429:13431   */\n      0x40\n        /* \"#utility.yul\":13418:13427   */\n      dup3\n        /* \"#utility.yul\":13414:13432   */\n      add\n        /* \"#utility.yul\":13406:13432   */\n      swap1\n      pop\n        /* \"#utility.yul\":13442:13513   */\n      tag_301\n        /* \"#utility.yul\":13510:13511   */\n      0x00\n        /* \"#utility.yul\":13499:13508   */\n      dup4\n        /* \"#utility.yul\":13495:13512   */\n      add\n        /* \"#utility.yul\":13486:13492   */\n      dup6\n        /* \"#utility.yul\":13442:13513   */\n      tag_156\n      jump\t// in\n    tag_301:\n        /* \"#utility.yul\":13523:13595   */\n      tag_302\n        /* \"#utility.yul\":13591:13593   */\n      0x20\n        /* \"#utility.yul\":13580:13589   */\n      dup4\n        /* \"#utility.yul\":13576:13594   */\n      add\n        /* \"#utility.yul\":13567:13573   */\n      dup5\n        /* \"#utility.yul\":13523:13595   */\n      tag_156\n      jump\t// in\n    tag_302:\n        /* \"#utility.yul\":13270:13602   */\n      swap4\n      swap3\n      pop\n      pop\n      pop\n      jump\t// out\n        /* \"#utility.yul\":13608:14050   */\n    tag_120:\n        /* \"#utility.yul\":13757:13761   */\n      0x00\n        /* \"#utility.yul\":13795:13797   */\n      0x60\n        /* \"#utility.yul\":13784:13793   */\n      dup3\n        /* \"#utility.yul\":13780:13798   */\n      add\n        /* \"#utility.yul\":13772:13798   */\n      swap1\n      pop\n        /* \"#utility.yul\":13808:13879   */\n      tag_304\n        /* \"#utility.yul\":13876:13877   */\n      0x00\n        /* \"#utility.yul\":13865:13874   */\n      dup4\n        /* \"#utility.yul\":13861:13878   */\n      add\n        /* \"#utility.yul\":13852:13858   */\n      dup7\n        /* \"#utility.yul\":13808:13879   */\n      tag_156\n      jump\t// in\n    tag_304:\n        /* \"#utility.yul\":13889:13961   */\n      tag_305\n        /* \"#utility.yul\":13957:13959   */\n      0x20\n        /* \"#utility.yul\":13946:13955   */\n      dup4\n        /* \"#utility.yul\":13942:13960   */\n      add\n        /* \"#utility.yul\":13933:13939   */\n      dup6\n        /* \"#utility.yul\":13889:13961   */\n      tag_156\n      jump\t// in\n    tag_305:\n        /* \"#utility.yul\":13971:14043   */\n      tag_306\n        /* \"#utility.yul\":14039:14041   */\n      0x40\n        /* \"#utility.yul\":14028:14037   */\n      dup4\n        /* \"#utility.yul\":14024:14042   */\n      add\n        /* \"#utility.yul\":14015:14021   */\n      dup5\n        /* \"#utility.yul\":13971:14043   */\n      tag_159\n      jump\t// in\n    tag_306:\n        /* \"#utility.yul\":13608:14050   */\n      swap5\n      swap4\n      pop\n      pop\n      pop\n      pop\n      jump\t// out\n        /* \"#utility.yul\":14056:14250   */\n    tag_124:\n        /* \"#utility.yul\":14096:14100   */\n      0x00\n        /* \"#utility.yul\":14116:14136   */\n      tag_308\n        /* \"#utility.yul\":14134:14135   */\n      dup3\n        /* \"#utility.yul\":14116:14136   */\n      tag_145\n      jump\t// in\n    tag_308:\n        /* \"#utility.yul\":14111:14136   */\n      swap2\n      pop\n        /* \"#utility.yul\":14150:14170   */\n      tag_309\n        /* \"#utility.yul\":14168:14169   */\n      dup4\n        /* \"#utility.yul\":14150:14170   */\n      tag_145\n      jump\t// in\n    tag_309:\n        /* \"#utility.yul\":14145:14170   */\n      swap3\n      pop\n        /* \"#utility.yul\":14194:14195   */\n      dup3\n        /* \"#utility.yul\":14191:14192   */\n      dup3\n        /* \"#utility.yul\":14187:14196   */\n      sub\n        /* \"#utility.yul\":14179:14196   */\n      swap1\n      pop\n        /* \"#utility.yul\":14218:14219   */\n      dup2\n        /* \"#utility.yul\":14212:14216   */\n      dup2\n        /* \"#utility.yul\":14209:14220   */\n      gt\n        /* \"#utility.yul\":14206:14243   */\n      iszero\n      tag_310\n      jumpi\n        /* \"#utility.yul\":14223:14241   */\n      tag_311\n      tag_172\n      jump\t// in\n    tag_311:\n        /* \"#utility.yul\":14206:14243   */\n    tag_310:\n        /* \"#utility.yul\":14056:14250   */\n      swap3\n      swap2\n      pop\n      pop\n      jump\t// out\n\n    auxdata: 0xa26469706673582212202168192ae1dd95f15eb6864470543861ed6e66b8415b2fe0953865358566ff3e64736f6c63430008120033\n}\n",
				"bytecode": {
					"linkReferences": {},
					"object": "60806040523480156200001157600080fd5b5062000073600180600067ffffffffffffffff81111562000037576200003662000517565b5b604051908082528060200260200182016040528015620000665781602001602082028036833780820191505090505b506200018b60201b60201c565b620000d4600280600067ffffffffffffffff81111562000098576200009762000517565b5b604051908082528060200260200182016040528015620000c75781602001602082028036833780820191505090505b506200018b60201b60201c565b6000600267ffffffffffffffff811115620000f457620000f362000517565b5b604051908082528060200260200182016040528015620001235781602001602082028036833780820191505090505b5090506001816000815181106200013f576200013e62000546565b5b60200260200101818152505060028160018151811062000164576200016362000546565b5b60200260200101818152505062000184600380836200018b60201b60201c565b506200084e565b60008060008581526020019081526020016000206000015414620001e6576040517f08c379a0000000000000000000000000000000000000000000000000000000008152600401620001dd90620005d6565b60405180910390fd5b8260008085815260200190815260200160002060000181905550805167ffffffffffffffff8111156200021e576200021d62000517565b5b6040519080825280602002602001820160405280156200024d5781602001602082028036833780820191505090505b50600080858152602001908152602001600020600401908051906020019062000278929190620004a6565b50600082905060005b8251811015620003b1576000806000858481518110620002a657620002a562000546565b5b60200260200101518152602001908152602001600020600001540362000303576040517f08c379a0000000000000000000000000000000000000000000000000000000008152600401620002fa9062000648565b60405180910390fd5b82818151811062000319576200031862000546565b5b602002602001015160008087815260200190815260200160002060040182815481106200034b576200034a62000546565b5b906000526020600020018190555060008084838151811062000372576200037162000546565b5b602002602001015181526020019081526020016000206001015482620003999190620006a3565b91508080620003a890620006de565b91505062000281565b50826000808681526020019081526020016000206001018190555080600080868152602001908152602001600020600301819055503360008086815260200190815260200160002060020160006101000a81548173ffffffffffffffffffffffffffffffffffffffff021916908373ffffffffffffffffffffffffffffffffffffffff16021790555060038490806001815401808255809150506001900390600052602060002001600090919091909150557f08f0c48f865c0b79f98aa03c78c16fc725b266610b1723c22b4048e230b4beb984828460405162000498939291906200080a565b60405180910390a150505050565b828054828255906000526020600020908101928215620004e5579160200282015b82811115620004e4578251825591602001919060010190620004c7565b5b509050620004f49190620004f8565b5090565b5b8082111562000513576000816000905550600101620004f9565b5090565b7f4e487b7100000000000000000000000000000000000000000000000000000000600052604160045260246000fd5b7f4e487b7100000000000000000000000000000000000000000000000000000000600052603260045260246000fd5b600082825260208201905092915050565b7f4974656d20616c72656164792070726573656e74000000000000000000000000600082015250565b6000620005be60148362000575565b9150620005cb8262000586565b602082019050919050565b60006020820190508181036000830152620005f181620005af565b9050919050565b7f506172656e74206e6f7420666f756e6400000000000000000000000000000000600082015250565b60006200063060108362000575565b91506200063d82620005f8565b602082019050919050565b60006020820190508181036000830152620006638162000621565b9050919050565b6000819050919050565b7f4e487b7100000000000000000000000000000000000000000000000000000000600052601160045260246000fd5b6000620006b0826200066a565b9150620006bd836200066a565b9250828201905080821115620006d857620006d762000674565b5b92915050565b6000620006eb826200066a565b91507fffffffffffffffffffffffffffffffffffffffffffffffffffffffffffffffff820362000720576200071f62000674565b5b600182019050919050565b62000736816200066a565b82525050565b600081519050919050565b600082825260208201905092915050565b6000819050602082019050919050565b62000773816200066a565b82525050565b600062000787838362000768565b60208301905092915050565b6000602082019050919050565b6000620007ad826200073c565b620007b9818562000747565b9350620007c68362000758565b8060005b83811015620007fd578151620007e1888262000779565b9750620007ee8362000793565b925050600181019050620007ca565b5085935050505092915050565b60006060820190506200082160008301866200072b565b6200083060208301856200072b565b8181036040830152620008448184620007a0565b9050949350505050565b611539806200085e6000396000f3fe6080604052600436106100865760003560e01c8063d937d19f11610059578063d937d19f14610149578063e4ffc43814610174578063ef7a77a21461019f578063f8167eb8146101dc578063fe3a51d31461020757610086565b80631602c9f51461008b5780633ccfd60b146100b457806399834e7b146100cb578063d93580ff1461010c575b600080fd5b34801561009757600080fd5b506100b260048036038101906100ad9190610f55565b610223565b005b3480156100c057600080fd5b506100c961051e565b005b3480156100d757600080fd5b506100f260048036038101906100ed9190610fc4565b6105eb565b6040516101039594939291906110ff565b60405180910390f35b34801561011857600080fd5b50610133600480360381019061012e9190610fc4565b61073a565b6040516101409190611159565b60405180910390f35b34801561015557600080fd5b5061015e6107b0565b60405161016b9190611174565b60405180910390f35b34801561018057600080fd5b50610189610808565b6040516101969190611174565b60405180910390f35b3480156101ab57600080fd5b506101c660048036038101906101c19190610fc4565b61089d565b6040516101d39190611159565b60405180910390f35b3480156101e857600080fd5b506101f16108c1565b6040516101fe9190611159565b60405180910390f35b610221600480360381019061021c9190610fc4565b610908565b005b6000806000858152602001908152602001600020600001541461027b576040517f08c379a0000000000000000000000000000000000000000000000000000000008152600401610272906111f3565b60405180910390fd5b8260008085815260200190815260200160002060000181905550805167ffffffffffffffff8111156102b0576102af610e12565b5b6040519080825280602002602001820160405280156102de5781602001602082028036833780820191505090505b506000808581526020019081526020016000206004019080519060200190610307929190610d48565b50600082905060005b825181101561042b57600080600085848151811061033157610330611213565b5b60200260200101518152602001908152602001600020600001540361038b576040517f08c379a00000000000000000000000000000000000000000000000000000000081526004016103829061128e565b60405180910390fd5b82818151811061039e5761039d611213565b5b602002602001015160008087815260200190815260200160002060040182815481106103cd576103cc611213565b5b90600052602060002001819055506000808483815181106103f1576103f0611213565b5b60200260200101518152602001908152602001600020600101548261041691906112dd565b9150808061042390611311565b915050610310565b50826000808681526020019081526020016000206001018190555080600080868152602001908152602001600020600301819055503360008086815260200190815260200160002060020160006101000a81548173ffffffffffffffffffffffffffffffffffffffff021916908373ffffffffffffffffffffffffffffffffffffffff16021790555060038490806001815401808255809150506001900390600052602060002001600090919091909150557f08f0c48f865c0b79f98aa03c78c16fc725b266610b1723c22b4048e230b4beb984828460405161051093929190611359565b60405180910390a150505050565b3373ffffffffffffffffffffffffffffffffffffffff166108fc600260003373ffffffffffffffffffffffffffffffffffffffff1673ffffffffffffffffffffffffffffffffffffffff168152602001908152602001600020549081150290604051600060405180830381858888f193505050501580156105a3573d6000803e3d6000fd5b506000600260003373ffffffffffffffffffffffffffffffffffffffff1673ffffffffffffffffffffffffffffffffffffffff16815260200190815260200160002081905550565b60008060008060606000806000888152602001908152602001600020600001540361064b576040517f08c379a0000000000000000000000000000000000000000000000000000000008152600401610642906113e3565b60405180910390fd5b60008087815260200190815260200160002060000154945060008087815260200190815260200160002060010154935060008087815260200190815260200160002060020160009054906101000a900473ffffffffffffffffffffffffffffffffffffffff16925060008087815260200190815260200160002060030154915060008087815260200190815260200160002060040180548060200260200160405190810160405280929190818152602001828054801561072a57602002820191906000526020600020905b815481526020019060010190808311610716575b5050505050905091939590929450565b6000806000808481526020019081526020016000206000015403610793576040517f08c379a000000000000000000000000000000000000000000000000000000000815260040161078a906113e3565b60405180910390fd5b600080838152602001908152602001600020600301549050919050565b606060038054806020026020016040519081016040528092919081815260200182805480156107fe57602002820191906000526020600020905b8154815260200190600101908083116107ea575b5050505050905090565b6060600160003373ffffffffffffffffffffffffffffffffffffffff1673ffffffffffffffffffffffffffffffffffffffff16815260200190815260200160002080548060200260200160405190810160405280929190818152602001828054801561089357602002820191906000526020600020905b81548152602001906001019080831161087f575b5050505050905090565b600381815481106108ad57600080fd5b906000526020600020016000915090505481565b6000600260003373ffffffffffffffffffffffffffffffffffffffff1673ffffffffffffffffffffffffffffffffffffffff16815260200190815260200160002054905090565b60008060008381526020019081526020016000206000015403610960576040517f08c379a0000000000000000000000000000000000000000000000000000000008152600401610957906113e3565b60405180910390fd5b600080828152602001908152602001600020600301543410156109b8576040517f08c379a00000000000000000000000000000000000000000000000000000000081526004016109af9061144f565b60405180910390fd5b60006109d534600080858152602001908152602001600020610bad565b90506002600080600085815260200190815260200160002060020160009054906101000a900473ffffffffffffffffffffffffffffffffffffffff1673ffffffffffffffffffffffffffffffffffffffff1673ffffffffffffffffffffffffffffffffffffffff1681526020019081526020016000205481610a5791906112dd565b6002600080600086815260200190815260200160002060020160009054906101000a900473ffffffffffffffffffffffffffffffffffffffff1673ffffffffffffffffffffffffffffffffffffffff1673ffffffffffffffffffffffffffffffffffffffff168152602001908152602001600020819055507f0412794071ca882aea8af3a77c06ddc350d5269100621ce7eb9db4e47e9c18fa8282604051610b0092919061146f565b60405180910390a17fc5cf601d86f12bd213afa76b1e45cda15388ce017dc71999d06a13e6460ce9b8823433604051610b3b93929190611498565b60405180910390a1600160003373ffffffffffffffffffffffffffffffffffffffff1673ffffffffffffffffffffffffffffffffffffffff1681526020019081526020016000208290806001815401808255809150506001900390600052602060002001600090919091909150555050565b6000816001015483610bbf91906114cf565b9250600260008360020160009054906101000a900473ffffffffffffffffffffffffffffffffffffffff1673ffffffffffffffffffffffffffffffffffffffff1673ffffffffffffffffffffffffffffffffffffffff168152602001908152602001600020548260010154610c3491906112dd565b600260008460020160009054906101000a900473ffffffffffffffffffffffffffffffffffffffff1673ffffffffffffffffffffffffffffffffffffffff1673ffffffffffffffffffffffffffffffffffffffff168152602001908152602001600020819055507f0412794071ca882aea8af3a77c06ddc350d5269100621ce7eb9db4e47e9c18fa82600001548360010154604051610cd492919061146f565b60405180910390a160005b8260040180549050811015610d3e57610d2984600080866004018581548110610d0b57610d0a611213565b5b90600052602060002001548152602001908152602001600020610bad565b93508080610d3690611311565b915050610cdf565b5082905092915050565b828054828255906000526020600020908101928215610d84579160200282015b82811115610d83578251825591602001919060010190610d68565b5b509050610d919190610d95565b5090565b5b80821115610dae576000816000905550600101610d96565b5090565b6000604051905090565b600080fd5b600080fd5b6000819050919050565b610dd981610dc6565b8114610de457600080fd5b50565b600081359050610df681610dd0565b92915050565b600080fd5b6000601f19601f8301169050919050565b7f4e487b7100000000000000000000000000000000000000000000000000000000600052604160045260246000fd5b610e4a82610e01565b810181811067ffffffffffffffff82111715610e6957610e68610e12565b5b80604052505050565b6000610e7c610db2565b9050610e888282610e41565b919050565b600067ffffffffffffffff821115610ea857610ea7610e12565b5b602082029050602081019050919050565b600080fd5b6000610ed1610ecc84610e8d565b610e72565b90508083825260208201905060208402830185811115610ef457610ef3610eb9565b5b835b81811015610f1d5780610f098882610de7565b845260208401935050602081019050610ef6565b5050509392505050565b600082601f830112610f3c57610f3b610dfc565b5b8135610f4c848260208601610ebe565b91505092915050565b600080600060608486031215610f6e57610f6d610dbc565b5b6000610f7c86828701610de7565b9350506020610f8d86828701610de7565b925050604084013567ffffffffffffffff811115610fae57610fad610dc1565b5b610fba86828701610f27565b9150509250925092565b600060208284031215610fda57610fd9610dbc565b5b6000610fe884828501610de7565b91505092915050565b610ffa81610dc6565b82525050565b600073ffffffffffffffffffffffffffffffffffffffff82169050919050565b600061102b82611000565b9050919050565b61103b81611020565b82525050565b600081519050919050565b600082825260208201905092915050565b6000819050602082019050919050565b61107681610dc6565b82525050565b6000611088838361106d565b60208301905092915050565b6000602082019050919050565b60006110ac82611041565b6110b6818561104c565b93506110c18361105d565b8060005b838110156110f25781516110d9888261107c565b97506110e483611094565b9250506001810190506110c5565b5085935050505092915050565b600060a0820190506111146000830188610ff1565b6111216020830187610ff1565b61112e6040830186611032565b61113b6060830185610ff1565b818103608083015261114d81846110a1565b90509695505050505050565b600060208201905061116e6000830184610ff1565b92915050565b6000602082019050818103600083015261118e81846110a1565b905092915050565b600082825260208201905092915050565b7f4974656d20616c72656164792070726573656e74000000000000000000000000600082015250565b60006111dd601483611196565b91506111e8826111a7565b602082019050919050565b6000602082019050818103600083015261120c816111d0565b9050919050565b7f4e487b7100000000000000000000000000000000000000000000000000000000600052603260045260246000fd5b7f506172656e74206e6f7420666f756e6400000000000000000000000000000000600082015250565b6000611278601083611196565b915061128382611242565b602082019050919050565b600060208201905081810360008301526112a78161126b565b9050919050565b7f4e487b7100000000000000000000000000000000000000000000000000000000600052601160045260246000fd5b60006112e882610dc6565b91506112f383610dc6565b925082820190508082111561130b5761130a6112ae565b5b92915050565b600061131c82610dc6565b91507fffffffffffffffffffffffffffffffffffffffffffffffffffffffffffffffff820361134e5761134d6112ae565b5b600182019050919050565b600060608201905061136e6000830186610ff1565b61137b6020830185610ff1565b818103604083015261138d81846110a1565b9050949350505050565b7f4974656d206e6f7420666f756e64000000000000000000000000000000000000600082015250565b60006113cd600e83611196565b91506113d882611397565b602082019050919050565b600060208201905081810360008301526113fc816113c0565b9050919050565b7f4e6f7420656e6f7567687420666f756e64000000000000000000000000000000600082015250565b6000611439601183611196565b915061144482611403565b602082019050919050565b600060208201905081810360008301526114688161142c565b9050919050565b60006040820190506114846000830185610ff1565b6114916020830184610ff1565b9392505050565b60006060820190506114ad6000830186610ff1565b6114ba6020830185610ff1565b6114c76040830184611032565b949350505050565b60006114da82610dc6565b91506114e583610dc6565b92508282039050818111156114fd576114fc6112ae565b5b9291505056fea26469706673582212202168192ae1dd95f15eb6864470543861ed6e66b8415b2fe0953865358566ff3e64736f6c63430008120033",
					"opcodes": "PUSH1 0x80 PUSH1 0x40 MSTORE CALLVALUE DUP1 ISZERO PUSH3 0x11 JUMPI PUSH1 0x0 DUP1 REVERT JUMPDEST POP PUSH3 0x73 PUSH1 0x1 DUP1 PUSH1 0x0 PUSH8 0xFFFFFFFFFFFFFFFF DUP2 GT ISZERO PUSH3 0x37 JUMPI PUSH3 0x36 PUSH3 0x517 JUMP JUMPDEST JUMPDEST PUSH1 0x40 MLOAD SWAP1 DUP1 DUP3 MSTORE DUP1 PUSH1 0x20 MUL PUSH1 0x20 ADD DUP3 ADD PUSH1 0x40 MSTORE DUP1 ISZERO PUSH3 0x66 JUMPI DUP2 PUSH1 0x20 ADD PUSH1 0x20 DUP3 MUL DUP1 CALLDATASIZE DUP4 CALLDATACOPY DUP1 DUP3 ADD SWAP2 POP POP SWAP1 POP JUMPDEST POP PUSH3 0x18B PUSH1 0x20 SHL PUSH1 0x20 SHR JUMP JUMPDEST PUSH3 0xD4 PUSH1 0x2 DUP1 PUSH1 0x0 PUSH8 0xFFFFFFFFFFFFFFFF DUP2 GT ISZERO PUSH3 0x98 JUMPI PUSH3 0x97 PUSH3 0x517 JUMP JUMPDEST JUMPDEST PUSH1 0x40 MLOAD SWAP1 DUP1 DUP3 MSTORE DUP1 PUSH1 0x20 MUL PUSH1 0x20 ADD DUP3 ADD PUSH1 0x40 MSTORE DUP1 ISZERO PUSH3 0xC7 JUMPI DUP2 PUSH1 0x20 ADD PUSH1 0x20 DUP3 MUL DUP1 CALLDATASIZE DUP4 CALLDATACOPY DUP1 DUP3 ADD SWAP2 POP POP SWAP1 POP JUMPDEST POP PUSH3 0x18B PUSH1 0x20 SHL PUSH1 0x20 SHR JUMP JUMPDEST PUSH1 0x0 PUSH1 0x2 PUSH8 0xFFFFFFFFFFFFFFFF DUP2 GT ISZERO PUSH3 0xF4 JUMPI PUSH3 0xF3 PUSH3 0x517 JUMP JUMPDEST JUMPDEST PUSH1 0x40 MLOAD SWAP1 DUP1 DUP3 MSTORE DUP1 PUSH1 0x20 MUL PUSH1 0x20 ADD DUP3 ADD PUSH1 0x40 MSTORE DUP1 ISZERO PUSH3 0x123 JUMPI DUP2 PUSH1 0x20 ADD PUSH1 0x20 DUP3 MUL DUP1 CALLDATASIZE DUP4 CALLDATACOPY DUP1 DUP3 ADD SWAP2 POP POP SWAP1 POP JUMPDEST POP SWAP1 POP PUSH1 0x1 DUP2 PUSH1 0x0 DUP2 MLOAD DUP2 LT PUSH3 0x13F JUMPI PUSH3 0x13E PUSH3 0x546 JUMP JUMPDEST JUMPDEST PUSH1 0x20 MUL PUSH1 0x20 ADD ADD DUP2 DUP2 MSTORE POP POP PUSH1 0x2 DUP2 PUSH1 0x1 DUP2 MLOAD DUP2 LT PUSH3 0x164 JUMPI PUSH3 0x163 PUSH3 0x546 JUMP JUMPDEST JUMPDEST PUSH1 0x20 MUL PUSH1 0x20 ADD ADD DUP2 DUP2 MSTORE POP POP PUSH3 0x184 PUSH1 0x3 DUP1 DUP4 PUSH3 0x18B PUSH1 0x20 SHL PUSH1 0x20 SHR JUMP JUMPDEST POP PUSH3 0x84E JUMP JUMPDEST PUSH1 0x0 DUP1 PUSH1 0x0 DUP6 DUP2 MSTORE PUSH1 0x20 ADD SWAP1 DUP2 MSTORE PUSH1 0x20 ADD PUSH1 0x0 KECCAK256 PUSH1 0x0 ADD SLOAD EQ PUSH3 0x1E6 JUMPI PUSH1 0x40 MLOAD PUSH32 0x8C379A000000000000000000000000000000000000000000000000000000000 DUP2 MSTORE PUSH1 0x4 ADD PUSH3 0x1DD SWAP1 PUSH3 0x5D6 JUMP JUMPDEST PUSH1 0x40 MLOAD DUP1 SWAP2 SUB SWAP1 REVERT JUMPDEST DUP3 PUSH1 0x0 DUP1 DUP6 DUP2 MSTORE PUSH1 0x20 ADD SWAP1 DUP2 MSTORE PUSH1 0x20 ADD PUSH1 0x0 KECCAK256 PUSH1 0x0 ADD DUP2 SWAP1 SSTORE POP DUP1 MLOAD PUSH8 0xFFFFFFFFFFFFFFFF DUP2 GT ISZERO PUSH3 0x21E JUMPI PUSH3 0x21D PUSH3 0x517 JUMP JUMPDEST JUMPDEST PUSH1 0x40 MLOAD SWAP1 DUP1 DUP3 MSTORE DUP1 PUSH1 0x20 MUL PUSH1 0x20 ADD DUP3 ADD PUSH1 0x40 MSTORE DUP1 ISZERO PUSH3 0x24D JUMPI DUP2 PUSH1 0x20 ADD PUSH1 0x20 DUP3 MUL DUP1 CALLDATASIZE DUP4 CALLDATACOPY DUP1 DUP3 ADD SWAP2 POP POP SWAP1 POP JUMPDEST POP PUSH1 0x0 DUP1 DUP6 DUP2 MSTORE PUSH1 0x20 ADD SWAP1 DUP2 MSTORE PUSH1 0x20 ADD PUSH1 0x0 KECCAK256 PUSH1 0x4 ADD SWAP1 DUP1 MLOAD SWAP1 PUSH1 0x20 ADD SWAP1 PUSH3 0x278 SWAP3 SWAP2 SWAP1 PUSH3 0x4A6 JUMP JUMPDEST POP PUSH1 0x0 DUP3 SWAP1 POP PUSH1 0x0 JUMPDEST DUP3 MLOAD DUP2 LT ISZERO PUSH3 0x3B1 JUMPI PUSH1 0x0 DUP1 PUSH1 0x0 DUP6 DUP5 DUP2 MLOAD DUP2 LT PUSH3 0x2A6 JUMPI PUSH3 0x2A5 PUSH3 0x546 JUMP JUMPDEST JUMPDEST PUSH1 0x20 MUL PUSH1 0x20 ADD ADD MLOAD DUP2 MSTORE PUSH1 0x20 ADD SWAP1 DUP2 MSTORE PUSH1 0x20 ADD PUSH1 0x0 KECCAK256 PUSH1 0x0 ADD SLOAD SUB PUSH3 0x303 JUMPI PUSH1 0x40 MLOAD PUSH32 0x8C379A000000000000000000000000000000000000000000000000000000000 DUP2 MSTORE PUSH1 0x4 ADD PUSH3 0x2FA SWAP1 PUSH3 0x648 JUMP JUMPDEST PUSH1 0x40 MLOAD DUP1 SWAP2 SUB SWAP1 REVERT JUMPDEST DUP3 DUP2 DUP2 MLOAD DUP2 LT PUSH3 0x319 JUMPI PUSH3 0x318 PUSH3 0x546 JUMP JUMPDEST JUMPDEST PUSH1 0x20 MUL PUSH1 0x20 ADD ADD MLOAD PUSH1 0x0 DUP1 DUP8 DUP2 MSTORE PUSH1 0x20 ADD SWAP1 DUP2 MSTORE PUSH1 0x20 ADD PUSH1 0x0 KECCAK256 PUSH1 0x4 ADD DUP3 DUP2 SLOAD DUP2 LT PUSH3 0x34B JUMPI PUSH3 0x34A PUSH3 0x546 JUMP JUMPDEST JUMPDEST SWAP1 PUSH1 0x0 MSTORE PUSH1 0x20 PUSH1 0x0 KECCAK256 ADD DUP2 SWAP1 SSTORE POP PUSH1 0x0 DUP1 DUP5 DUP4 DUP2 MLOAD DUP2 LT PUSH3 0x372 JUMPI PUSH3 0x371 PUSH3 0x546 JUMP JUMPDEST JUMPDEST PUSH1 0x20 MUL PUSH1 0x20 ADD ADD MLOAD DUP2 MSTORE PUSH1 0x20 ADD SWAP1 DUP2 MSTORE PUSH1 0x20 ADD PUSH1 0x0 KECCAK256 PUSH1 0x1 ADD SLOAD DUP3 PUSH3 0x399 SWAP2 SWAP1 PUSH3 0x6A3 JUMP JUMPDEST SWAP2 POP DUP1 DUP1 PUSH3 0x3A8 SWAP1 PUSH3 0x6DE JUMP JUMPDEST SWAP2 POP POP PUSH3 0x281 JUMP JUMPDEST POP DUP3 PUSH1 0x0 DUP1 DUP7 DUP2 MSTORE PUSH1 0x20 ADD SWAP1 DUP2 MSTORE PUSH1 0x20 ADD PUSH1 0x0 KECCAK256 PUSH1 0x1 ADD DUP2 SWAP1 SSTORE POP DUP1 PUSH1 0x0 DUP1 DUP7 DUP2 MSTORE PUSH1 0x20 ADD SWAP1 DUP2 MSTORE PUSH1 0x20 ADD PUSH1 0x0 KECCAK256 PUSH1 0x3 ADD DUP2 SWAP1 SSTORE POP CALLER PUSH1 0x0 DUP1 DUP7 DUP2 MSTORE PUSH1 0x20 ADD SWAP1 DUP2 MSTORE PUSH1 0x20 ADD PUSH1 0x0 KECCAK256 PUSH1 0x2 ADD PUSH1 0x0 PUSH2 0x100 EXP DUP2 SLOAD DUP2 PUSH20 0xFFFFFFFFFFFFFFFFFFFFFFFFFFFFFFFFFFFFFFFF MUL NOT AND SWAP1 DUP4 PUSH20 0xFFFFFFFFFFFFFFFFFFFFFFFFFFFFFFFFFFFFFFFF AND MUL OR SWAP1 SSTORE POP PUSH1 0x3 DUP5 SWAP1 DUP1 PUSH1 0x1 DUP2 SLOAD ADD DUP1 DUP3 SSTORE DUP1 SWAP2 POP POP PUSH1 0x1 SWAP1 SUB SWAP1 PUSH1 0x0 MSTORE PUSH1 0x20 PUSH1 0x0 KECCAK256 ADD PUSH1 0x0 SWAP1 SWAP2 SWAP1 SWAP2 SWAP1 SWAP2 POP SSTORE PUSH32 0x8F0C48F865C0B79F98AA03C78C16FC725B266610B1723C22B4048E230B4BEB9 DUP5 DUP3 DUP5 PUSH1 0x40 MLOAD PUSH3 0x498 SWAP4 SWAP3 SWAP2 SWAP1 PUSH3 0x80A JUMP JUMPDEST PUSH1 0x40 MLOAD DUP1 SWAP2 SUB SWAP1 LOG1 POP POP POP POP JUMP JUMPDEST DUP3 DUP1 SLOAD DUP3 DUP3 SSTORE SWAP1 PUSH1 0x0 MSTORE PUSH1 0x20 PUSH1 0x0 KECCAK256 SWAP1 DUP2 ADD SWAP3 DUP3 ISZERO PUSH3 0x4E5 JUMPI SWAP2 PUSH1 0x20 MUL DUP3 ADD JUMPDEST DUP3 DUP2 GT ISZERO PUSH3 0x4E4 JUMPI DUP3 MLOAD DUP3 SSTORE SWAP2 PUSH1 0x20 ADD SWAP2 SWAP1 PUSH1 0x1 ADD SWAP1 PUSH3 0x4C7 JUMP JUMPDEST JUMPDEST POP SWAP1 POP PUSH3 0x4F4 SWAP2 SWAP1 PUSH3 0x4F8 JUMP JUMPDEST POP SWAP1 JUMP JUMPDEST JUMPDEST DUP1 DUP3 GT ISZERO PUSH3 0x513 JUMPI PUSH1 0x0 DUP2 PUSH1 0x0 SWAP1 SSTORE POP PUSH1 0x1 ADD PUSH3 0x4F9 JUMP JUMPDEST POP SWAP1 JUMP JUMPDEST PUSH32 0x4E487B7100000000000000000000000000000000000000000000000000000000 PUSH1 0x0 MSTORE PUSH1 0x41 PUSH1 0x4 MSTORE PUSH1 0x24 PUSH1 0x0 REVERT JUMPDEST PUSH32 0x4E487B7100000000000000000000000000000000000000000000000000000000 PUSH1 0x0 MSTORE PUSH1 0x32 PUSH1 0x4 MSTORE PUSH1 0x24 PUSH1 0x0 REVERT JUMPDEST PUSH1 0x0 DUP3 DUP3 MSTORE PUSH1 0x20 DUP3 ADD SWAP1 POP SWAP3 SWAP2 POP POP JUMP JUMPDEST PUSH32 0x4974656D20616C72656164792070726573656E74000000000000000000000000 PUSH1 0x0 DUP3 ADD MSTORE POP JUMP JUMPDEST PUSH1 0x0 PUSH3 0x5BE PUSH1 0x14 DUP4 PUSH3 0x575 JUMP JUMPDEST SWAP2 POP PUSH3 0x5CB DUP3 PUSH3 0x586 JUMP JUMPDEST PUSH1 0x20 DUP3 ADD SWAP1 POP SWAP2 SWAP1 POP JUMP JUMPDEST PUSH1 0x0 PUSH1 0x20 DUP3 ADD SWAP1 POP DUP2 DUP2 SUB PUSH1 0x0 DUP4 ADD MSTORE PUSH3 0x5F1 DUP2 PUSH3 0x5AF JUMP JUMPDEST SWAP1 POP SWAP2 SWAP1 POP JUMP JUMPDEST PUSH32 0x506172656E74206E6F7420666F756E6400000000000000000000000000000000 PUSH1 0x0 DUP3 ADD MSTORE POP JUMP JUMPDEST PUSH1 0x0 PUSH3 0x630 PUSH1 0x10 DUP4 PUSH3 0x575 JUMP JUMPDEST SWAP2 POP PUSH3 0x63D DUP3 PUSH3 0x5F8 JUMP JUMPDEST PUSH1 0x20 DUP3 ADD SWAP1 POP SWAP2 SWAP1 POP JUMP JUMPDEST PUSH1 0x0 PUSH1 0x20 DUP3 ADD SWAP1 POP DUP2 DUP2 SUB PUSH1 0x0 DUP4 ADD MSTORE PUSH3 0x663 DUP2 PUSH3 0x621 JUMP JUMPDEST SWAP1 POP SWAP2 SWAP1 POP JUMP JUMPDEST PUSH1 0x0 DUP2 SWAP1 POP SWAP2 SWAP1 POP JUMP JUMPDEST PUSH32 0x4E487B7100000000000000000000000000000000000000000000000000000000 PUSH1 0x0 MSTORE PUSH1 0x11 PUSH1 0x4 MSTORE PUSH1 0x24 PUSH1 0x0 REVERT JUMPDEST PUSH1 0x0 PUSH3 0x6B0 DUP3 PUSH3 0x66A JUMP JUMPDEST SWAP2 POP PUSH3 0x6BD DUP4 PUSH3 0x66A JUMP JUMPDEST SWAP3 POP DUP3 DUP3 ADD SWAP1 POP DUP1 DUP3 GT ISZERO PUSH3 0x6D8 JUMPI PUSH3 0x6D7 PUSH3 0x674 JUMP JUMPDEST JUMPDEST SWAP3 SWAP2 POP POP JUMP JUMPDEST PUSH1 0x0 PUSH3 0x6EB DUP3 PUSH3 0x66A JUMP JUMPDEST SWAP2 POP PUSH32 0xFFFFFFFFFFFFFFFFFFFFFFFFFFFFFFFFFFFFFFFFFFFFFFFFFFFFFFFFFFFFFFFF DUP3 SUB PUSH3 0x720 JUMPI PUSH3 0x71F PUSH3 0x674 JUMP JUMPDEST JUMPDEST PUSH1 0x1 DUP3 ADD SWAP1 POP SWAP2 SWAP1 POP JUMP JUMPDEST PUSH3 0x736 DUP2 PUSH3 0x66A JUMP JUMPDEST DUP3 MSTORE POP POP JUMP JUMPDEST PUSH1 0x0 DUP2 MLOAD SWAP1 POP SWAP2 SWAP1 POP JUMP JUMPDEST PUSH1 0x0 DUP3 DUP3 MSTORE PUSH1 0x20 DUP3 ADD SWAP1 POP SWAP3 SWAP2 POP POP JUMP JUMPDEST PUSH1 0x0 DUP2 SWAP1 POP PUSH1 0x20 DUP3 ADD SWAP1 POP SWAP2 SWAP1 POP JUMP JUMPDEST PUSH3 0x773 DUP2 PUSH3 0x66A JUMP JUMPDEST DUP3 MSTORE POP POP JUMP JUMPDEST PUSH1 0x0 PUSH3 0x787 DUP4 DUP4 PUSH3 0x768 JUMP JUMPDEST PUSH1 0x20 DUP4 ADD SWAP1 POP SWAP3 SWAP2 POP POP JUMP JUMPDEST PUSH1 0x0 PUSH1 0x20 DUP3 ADD SWAP1 POP SWAP2 SWAP1 POP JUMP JUMPDEST PUSH1 0x0 PUSH3 0x7AD DUP3 PUSH3 0x73C JUMP JUMPDEST PUSH3 0x7B9 DUP2 DUP6 PUSH3 0x747 JUMP JUMPDEST SWAP4 POP PUSH3 0x7C6 DUP4 PUSH3 0x758 JUMP JUMPDEST DUP1 PUSH1 0x0 JUMPDEST DUP4 DUP2 LT ISZERO PUSH3 0x7FD JUMPI DUP2 MLOAD PUSH3 0x7E1 DUP9 DUP3 PUSH3 0x779 JUMP JUMPDEST SWAP8 POP PUSH3 0x7EE DUP4 PUSH3 0x793 JUMP JUMPDEST SWAP3 POP POP PUSH1 0x1 DUP2 ADD SWAP1 POP PUSH3 0x7CA JUMP JUMPDEST POP DUP6 SWAP4 POP POP POP POP SWAP3 SWAP2 POP POP JUMP JUMPDEST PUSH1 0x0 PUSH1 0x60 DUP3 ADD SWAP1 POP PUSH3 0x821 PUSH1 0x0 DUP4 ADD DUP7 PUSH3 0x72B JUMP JUMPDEST PUSH3 0x830 PUSH1 0x20 DUP4 ADD DUP6 PUSH3 0x72B JUMP JUMPDEST DUP2 DUP2 SUB PUSH1 0x40 DUP4 ADD MSTORE PUSH3 0x844 DUP2 DUP5 PUSH3 0x7A0 JUMP JUMPDEST SWAP1 POP SWAP5 SWAP4 POP POP POP POP JUMP JUMPDEST PUSH2 0x1539 DUP1 PUSH3 0x85E PUSH1 0x0 CODECOPY PUSH1 0x0 RETURN INVALID PUSH1 0x80 PUSH1 0x40 MSTORE PUSH1 0x4 CALLDATASIZE LT PUSH2 0x86 JUMPI PUSH1 0x0 CALLDATALOAD PUSH1 0xE0 SHR DUP1 PUSH4 0xD937D19F GT PUSH2 0x59 JUMPI DUP1 PUSH4 0xD937D19F EQ PUSH2 0x149 JUMPI DUP1 PUSH4 0xE4FFC438 EQ PUSH2 0x174 JUMPI DUP1 PUSH4 0xEF7A77A2 EQ PUSH2 0x19F JUMPI DUP1 PUSH4 0xF8167EB8 EQ PUSH2 0x1DC JUMPI DUP1 PUSH4 0xFE3A51D3 EQ PUSH2 0x207 JUMPI PUSH2 0x86 JUMP JUMPDEST DUP1 PUSH4 0x1602C9F5 EQ PUSH2 0x8B JUMPI DUP1 PUSH4 0x3CCFD60B EQ PUSH2 0xB4 JUMPI DUP1 PUSH4 0x99834E7B EQ PUSH2 0xCB JUMPI DUP1 PUSH4 0xD93580FF EQ PUSH2 0x10C JUMPI JUMPDEST PUSH1 0x0 DUP1 REVERT JUMPDEST CALLVALUE DUP1 ISZERO PUSH2 0x97 JUMPI PUSH1 0x0 DUP1 REVERT JUMPDEST POP PUSH2 0xB2 PUSH1 0x4 DUP1 CALLDATASIZE SUB DUP2 ADD SWAP1 PUSH2 0xAD SWAP2 SWAP1 PUSH2 0xF55 JUMP JUMPDEST PUSH2 0x223 JUMP JUMPDEST STOP JUMPDEST CALLVALUE DUP1 ISZERO PUSH2 0xC0 JUMPI PUSH1 0x0 DUP1 REVERT JUMPDEST POP PUSH2 0xC9 PUSH2 0x51E JUMP JUMPDEST STOP JUMPDEST CALLVALUE DUP1 ISZERO PUSH2 0xD7 JUMPI PUSH1 0x0 DUP1 REVERT JUMPDEST POP PUSH2 0xF2 PUSH1 0x4 DUP1 CALLDATASIZE SUB DUP2 ADD SWAP1 PUSH2 0xED SWAP2 SWAP1 PUSH2 0xFC4 JUMP JUMPDEST PUSH2 0x5EB JUMP JUMPDEST PUSH1 0x40 MLOAD PUSH2 0x103 SWAP6 SWAP5 SWAP4 SWAP3 SWAP2 SWAP1 PUSH2 0x10FF JUMP JUMPDEST PUSH1 0x40 MLOAD DUP1 SWAP2 SUB SWAP1 RETURN JUMPDEST CALLVALUE DUP1 ISZERO PUSH2 0x118 JUMPI PUSH1 0x0 DUP1 REVERT JUMPDEST POP PUSH2 0x133 PUSH1 0x4 DUP1 CALLDATASIZE SUB DUP2 ADD SWAP1 PUSH2 0x12E SWAP2 SWAP1 PUSH2 0xFC4 JUMP JUMPDEST PUSH2 0x73A JUMP JUMPDEST PUSH1 0x40 MLOAD PUSH2 0x140 SWAP2 SWAP1 PUSH2 0x1159 JUMP JUMPDEST PUSH1 0x40 MLOAD DUP1 SWAP2 SUB SWAP1 RETURN JUMPDEST CALLVALUE DUP1 ISZERO PUSH2 0x155 JUMPI PUSH1 0x0 DUP1 REVERT JUMPDEST POP PUSH2 0x15E PUSH2 0x7B0 JUMP JUMPDEST PUSH1 0x40 MLOAD PUSH2 0x16B SWAP2 SWAP1 PUSH2 0x1174 JUMP JUMPDEST PUSH1 0x40 MLOAD DUP1 SWAP2 SUB SWAP1 RETURN JUMPDEST CALLVALUE DUP1 ISZERO PUSH2 0x180 JUMPI PUSH1 0x0 DUP1 REVERT JUMPDEST POP PUSH2 0x189 PUSH2 0x808 JUMP JUMPDEST PUSH1 0x40 MLOAD PUSH2 0x196 SWAP2 SWAP1 PUSH2 0x1174 JUMP JUMPDEST PUSH1 0x40 MLOAD DUP1 SWAP2 SUB SWAP1 RETURN JUMPDEST CALLVALUE DUP1 ISZERO PUSH2 0x1AB JUMPI PUSH1 0x0 DUP1 REVERT JUMPDEST POP PUSH2 0x1C6 PUSH1 0x4 DUP1 CALLDATASIZE SUB DUP2 ADD SWAP1 PUSH2 0x1C1 SWAP2 SWAP1 PUSH2 0xFC4 JUMP JUMPDEST PUSH2 0x89D JUMP JUMPDEST PUSH1 0x40 MLOAD PUSH2 0x1D3 SWAP2 SWAP1 PUSH2 0x1159 JUMP JUMPDEST PUSH1 0x40 MLOAD DUP1 SWAP2 SUB SWAP1 RETURN JUMPDEST CALLVALUE DUP1 ISZERO PUSH2 0x1E8 JUMPI PUSH1 0x0 DUP1 REVERT JUMPDEST POP PUSH2 0x1F1 PUSH2 0x8C1 JUMP JUMPDEST PUSH1 0x40 MLOAD PUSH2 0x1FE SWAP2 SWAP1 PUSH2 0x1159 JUMP JUMPDEST PUSH1 0x40 MLOAD DUP1 SWAP2 SUB SWAP1 RETURN JUMPDEST PUSH2 0x221 PUSH1 0x4 DUP1 CALLDATASIZE SUB DUP2 ADD SWAP1 PUSH2 0x21C SWAP2 SWAP1 PUSH2 0xFC4 JUMP JUMPDEST PUSH2 0x908 JUMP JUMPDEST STOP JUMPDEST PUSH1 0x0 DUP1 PUSH1 0x0 DUP6 DUP2 MSTORE PUSH1 0x20 ADD SWAP1 DUP2 MSTORE PUSH1 0x20 ADD PUSH1 0x0 KECCAK256 PUSH1 0x0 ADD SLOAD EQ PUSH2 0x27B JUMPI PUSH1 0x40 MLOAD PUSH32 0x8C379A000000000000000000000000000000000000000000000000000000000 DUP2 MSTORE PUSH1 0x4 ADD PUSH2 0x272 SWAP1 PUSH2 0x11F3 JUMP JUMPDEST PUSH1 0x40 MLOAD DUP1 SWAP2 SUB SWAP1 REVERT JUMPDEST DUP3 PUSH1 0x0 DUP1 DUP6 DUP2 MSTORE PUSH1 0x20 ADD SWAP1 DUP2 MSTORE PUSH1 0x20 ADD PUSH1 0x0 KECCAK256 PUSH1 0x0 ADD DUP2 SWAP1 SSTORE POP DUP1 MLOAD PUSH8 0xFFFFFFFFFFFFFFFF DUP2 GT ISZERO PUSH2 0x2B0 JUMPI PUSH2 0x2AF PUSH2 0xE12 JUMP JUMPDEST JUMPDEST PUSH1 0x40 MLOAD SWAP1 DUP1 DUP3 MSTORE DUP1 PUSH1 0x20 MUL PUSH1 0x20 ADD DUP3 ADD PUSH1 0x40 MSTORE DUP1 ISZERO PUSH2 0x2DE JUMPI DUP2 PUSH1 0x20 ADD PUSH1 0x20 DUP3 MUL DUP1 CALLDATASIZE DUP4 CALLDATACOPY DUP1 DUP3 ADD SWAP2 POP POP SWAP1 POP JUMPDEST POP PUSH1 0x0 DUP1 DUP6 DUP2 MSTORE PUSH1 0x20 ADD SWAP1 DUP2 MSTORE PUSH1 0x20 ADD PUSH1 0x0 KECCAK256 PUSH1 0x4 ADD SWAP1 DUP1 MLOAD SWAP1 PUSH1 0x20 ADD SWAP1 PUSH2 0x307 SWAP3 SWAP2 SWAP1 PUSH2 0xD48 JUMP JUMPDEST POP PUSH1 0x0 DUP3 SWAP1 POP PUSH1 0x0 JUMPDEST DUP3 MLOAD DUP2 LT ISZERO PUSH2 0x42B JUMPI PUSH1 0x0 DUP1 PUSH1 0x0 DUP6 DUP5 DUP2 MLOAD DUP2 LT PUSH2 0x331 JUMPI PUSH2 0x330 PUSH2 0x1213 JUMP JUMPDEST JUMPDEST PUSH1 0x20 MUL PUSH1 0x20 ADD ADD MLOAD DUP2 MSTORE PUSH1 0x20 ADD SWAP1 DUP2 MSTORE PUSH1 0x20 ADD PUSH1 0x0 KECCAK256 PUSH1 0x0 ADD SLOAD SUB PUSH2 0x38B JUMPI PUSH1 0x40 MLOAD PUSH32 0x8C379A000000000000000000000000000000000000000000000000000000000 DUP2 MSTORE PUSH1 0x4 ADD PUSH2 0x382 SWAP1 PUSH2 0x128E JUMP JUMPDEST PUSH1 0x40 MLOAD DUP1 SWAP2 SUB SWAP1 REVERT JUMPDEST DUP3 DUP2 DUP2 MLOAD DUP2 LT PUSH2 0x39E JUMPI PUSH2 0x39D PUSH2 0x1213 JUMP JUMPDEST JUMPDEST PUSH1 0x20 MUL PUSH1 0x20 ADD ADD MLOAD PUSH1 0x0 DUP1 DUP8 DUP2 MSTORE PUSH1 0x20 ADD SWAP1 DUP2 MSTORE PUSH1 0x20 ADD PUSH1 0x0 KECCAK256 PUSH1 0x4 ADD DUP3 DUP2 SLOAD DUP2 LT PUSH2 0x3CD JUMPI PUSH2 0x3CC PUSH2 0x1213 JUMP JUMPDEST JUMPDEST SWAP1 PUSH1 0x0 MSTORE PUSH1 0x20 PUSH1 0x0 KECCAK256 ADD DUP2 SWAP1 SSTORE POP PUSH1 0x0 DUP1 DUP5 DUP4 DUP2 MLOAD DUP2 LT PUSH2 0x3F1 JUMPI PUSH2 0x3F0 PUSH2 0x1213 JUMP JUMPDEST JUMPDEST PUSH1 0x20 MUL PUSH1 0x20 ADD ADD MLOAD DUP2 MSTORE PUSH1 0x20 ADD SWAP1 DUP2 MSTORE PUSH1 0x20 ADD PUSH1 0x0 KECCAK256 PUSH1 0x1 ADD SLOAD DUP3 PUSH2 0x416 SWAP2 SWAP1 PUSH2 0x12DD JUMP JUMPDEST SWAP2 POP DUP1 DUP1 PUSH2 0x423 SWAP1 PUSH2 0x1311 JUMP JUMPDEST SWAP2 POP POP PUSH2 0x310 JUMP JUMPDEST POP DUP3 PUSH1 0x0 DUP1 DUP7 DUP2 MSTORE PUSH1 0x20 ADD SWAP1 DUP2 MSTORE PUSH1 0x20 ADD PUSH1 0x0 KECCAK256 PUSH1 0x1 ADD DUP2 SWAP1 SSTORE POP DUP1 PUSH1 0x0 DUP1 DUP7 DUP2 MSTORE PUSH1 0x20 ADD SWAP1 DUP2 MSTORE PUSH1 0x20 ADD PUSH1 0x0 KECCAK256 PUSH1 0x3 ADD DUP2 SWAP1 SSTORE POP CALLER PUSH1 0x0 DUP1 DUP7 DUP2 MSTORE PUSH1 0x20 ADD SWAP1 DUP2 MSTORE PUSH1 0x20 ADD PUSH1 0x0 KECCAK256 PUSH1 0x2 ADD PUSH1 0x0 PUSH2 0x100 EXP DUP2 SLOAD DUP2 PUSH20 0xFFFFFFFFFFFFFFFFFFFFFFFFFFFFFFFFFFFFFFFF MUL NOT AND SWAP1 DUP4 PUSH20 0xFFFFFFFFFFFFFFFFFFFFFFFFFFFFFFFFFFFFFFFF AND MUL OR SWAP1 SSTORE POP PUSH1 0x3 DUP5 SWAP1 DUP1 PUSH1 0x1 DUP2 SLOAD ADD DUP1 DUP3 SSTORE DUP1 SWAP2 POP POP PUSH1 0x1 SWAP1 SUB SWAP1 PUSH1 0x0 MSTORE PUSH1 0x20 PUSH1 0x0 KECCAK256 ADD PUSH1 0x0 SWAP1 SWAP2 SWAP1 SWAP2 SWAP1 SWAP2 POP SSTORE PUSH32 0x8F0C48F865C0B79F98AA03C78C16FC725B266610B1723C22B4048E230B4BEB9 DUP5 DUP3 DUP5 PUSH1 0x40 MLOAD PUSH2 0x510 SWAP4 SWAP3 SWAP2 SWAP1 PUSH2 0x1359 JUMP JUMPDEST PUSH1 0x40 MLOAD DUP1 SWAP2 SUB SWAP1 LOG1 POP POP POP POP JUMP JUMPDEST CALLER PUSH20 0xFFFFFFFFFFFFFFFFFFFFFFFFFFFFFFFFFFFFFFFF AND PUSH2 0x8FC PUSH1 0x2 PUSH1 0x0 CALLER PUSH20 0xFFFFFFFFFFFFFFFFFFFFFFFFFFFFFFFFFFFFFFFF AND PUSH20 0xFFFFFFFFFFFFFFFFFFFFFFFFFFFFFFFFFFFFFFFF AND DUP2 MSTORE PUSH1 0x20 ADD SWAP1 DUP2 MSTORE PUSH1 0x20 ADD PUSH1 0x0 KECCAK256 SLOAD SWAP1 DUP2 ISZERO MUL SWAP1 PUSH1 0x40 MLOAD PUSH1 0x0 PUSH1 0x40 MLOAD DUP1 DUP4 SUB DUP2 DUP6 DUP9 DUP9 CALL SWAP4 POP POP POP POP ISZERO DUP1 ISZERO PUSH2 0x5A3 JUMPI RETURNDATASIZE PUSH1 0x0 DUP1 RETURNDATACOPY RETURNDATASIZE PUSH1 0x0 REVERT JUMPDEST POP PUSH1 0x0 PUSH1 0x2 PUSH1 0x0 CALLER PUSH20 0xFFFFFFFFFFFFFFFFFFFFFFFFFFFFFFFFFFFFFFFF AND PUSH20 0xFFFFFFFFFFFFFFFFFFFFFFFFFFFFFFFFFFFFFFFF AND DUP2 MSTORE PUSH1 0x20 ADD SWAP1 DUP2 MSTORE PUSH1 0x20 ADD PUSH1 0x0 KECCAK256 DUP2 SWAP1 SSTORE POP JUMP JUMPDEST PUSH1 0x0 DUP1 PUSH1 0x0 DUP1 PUSH1 0x60 PUSH1 0x0 DUP1 PUSH1 0x0 DUP9 DUP2 MSTORE PUSH1 0x20 ADD SWAP1 DUP2 MSTORE PUSH1 0x20 ADD PUSH1 0x0 KECCAK256 PUSH1 0x0 ADD SLOAD SUB PUSH2 0x64B JUMPI PUSH1 0x40 MLOAD PUSH32 0x8C379A000000000000000000000000000000000000000000000000000000000 DUP2 MSTORE PUSH1 0x4 ADD PUSH2 0x642 SWAP1 PUSH2 0x13E3 JUMP JUMPDEST PUSH1 0x40 MLOAD DUP1 SWAP2 SUB SWAP1 REVERT JUMPDEST PUSH1 0x0 DUP1 DUP8 DUP2 MSTORE PUSH1 0x20 ADD SWAP1 DUP2 MSTORE PUSH1 0x20 ADD PUSH1 0x0 KECCAK256 PUSH1 0x0 ADD SLOAD SWAP5 POP PUSH1 0x0 DUP1 DUP8 DUP2 MSTORE PUSH1 0x20 ADD SWAP1 DUP2 MSTORE PUSH1 0x20 ADD PUSH1 0x0 KECCAK256 PUSH1 0x1 ADD SLOAD SWAP4 POP PUSH1 0x0 DUP1 DUP8 DUP2 MSTORE PUSH1 0x20 ADD SWAP1 DUP2 MSTORE PUSH1 0x20 ADD PUSH1 0x0 KECCAK256 PUSH1 0x2 ADD PUSH1 0x0 SWAP1 SLOAD SWAP1 PUSH2 0x100 EXP SWAP1 DIV PUSH20 0xFFFFFFFFFFFFFFFFFFFFFFFFFFFFFFFFFFFFFFFF AND SWAP3 POP PUSH1 0x0 DUP1 DUP8 DUP2 MSTORE PUSH1 0x20 ADD SWAP1 DUP2 MSTORE PUSH1 0x20 ADD PUSH1 0x0 KECCAK256 PUSH1 0x3 ADD SLOAD SWAP2 POP PUSH1 0x0 DUP1 DUP8 DUP2 MSTORE PUSH1 0x20 ADD SWAP1 DUP2 MSTORE PUSH1 0x20 ADD PUSH1 0x0 KECCAK256 PUSH1 0x4 ADD DUP1 SLOAD DUP1 PUSH1 0x20 MUL PUSH1 0x20 ADD PUSH1 0x40 MLOAD SWAP1 DUP2 ADD PUSH1 0x40 MSTORE DUP1 SWAP3 SWAP2 SWAP1 DUP2 DUP2 MSTORE PUSH1 0x20 ADD DUP3 DUP1 SLOAD DUP1 ISZERO PUSH2 0x72A JUMPI PUSH1 0x20 MUL DUP3 ADD SWAP2 SWAP1 PUSH1 0x0 MSTORE PUSH1 0x20 PUSH1 0x0 KECCAK256 SWAP1 JUMPDEST DUP2 SLOAD DUP2 MSTORE PUSH1 0x20 ADD SWAP1 PUSH1 0x1 ADD SWAP1 DUP1 DUP4 GT PUSH2 0x716 JUMPI JUMPDEST POP POP POP POP POP SWAP1 POP SWAP2 SWAP4 SWAP6 SWAP1 SWAP3 SWAP5 POP JUMP JUMPDEST PUSH1 0x0 DUP1 PUSH1 0x0 DUP1 DUP5 DUP2 MSTORE PUSH1 0x20 ADD SWAP1 DUP2 MSTORE PUSH1 0x20 ADD PUSH1 0x0 KECCAK256 PUSH1 0x0 ADD SLOAD SUB PUSH2 0x793 JUMPI PUSH1 0x40 MLOAD PUSH32 0x8C379A000000000000000000000000000000000000000000000000000000000 DUP2 MSTORE PUSH1 0x4 ADD PUSH2 0x78A SWAP1 PUSH2 0x13E3 JUMP JUMPDEST PUSH1 0x40 MLOAD DUP1 SWAP2 SUB SWAP1 REVERT JUMPDEST PUSH1 0x0 DUP1 DUP4 DUP2 MSTORE PUSH1 0x20 ADD SWAP1 DUP2 MSTORE PUSH1 0x20 ADD PUSH1 0x0 KECCAK256 PUSH1 0x3 ADD SLOAD SWAP1 POP SWAP2 SWAP1 POP JUMP JUMPDEST PUSH1 0x60 PUSH1 0x3 DUP1 SLOAD DUP1 PUSH1 0x20 MUL PUSH1 0x20 ADD PUSH1 0x40 MLOAD SWAP1 DUP2 ADD PUSH1 0x40 MSTORE DUP1 SWAP3 SWAP2 SWAP1 DUP2 DUP2 MSTORE PUSH1 0x20 ADD DUP3 DUP1 SLOAD DUP1 ISZERO PUSH2 0x7FE JUMPI PUSH1 0x20 MUL DUP3 ADD SWAP2 SWAP1 PUSH1 0x0 MSTORE PUSH1 0x20 PUSH1 0x0 KECCAK256 SWAP1 JUMPDEST DUP2 SLOAD DUP2 MSTORE PUSH1 0x20 ADD SWAP1 PUSH1 0x1 ADD SWAP1 DUP1 DUP4 GT PUSH2 0x7EA JUMPI JUMPDEST POP POP POP POP POP SWAP1 POP SWAP1 JUMP JUMPDEST PUSH1 0x60 PUSH1 0x1 PUSH1 0x0 CALLER PUSH20 0xFFFFFFFFFFFFFFFFFFFFFFFFFFFFFFFFFFFFFFFF AND PUSH20 0xFFFFFFFFFFFFFFFFFFFFFFFFFFFFFFFFFFFFFFFF AND DUP2 MSTORE PUSH1 0x20 ADD SWAP1 DUP2 MSTORE PUSH1 0x20 ADD PUSH1 0x0 KECCAK256 DUP1 SLOAD DUP1 PUSH1 0x20 MUL PUSH1 0x20 ADD PUSH1 0x40 MLOAD SWAP1 DUP2 ADD PUSH1 0x40 MSTORE DUP1 SWAP3 SWAP2 SWAP1 DUP2 DUP2 MSTORE PUSH1 0x20 ADD DUP3 DUP1 SLOAD DUP1 ISZERO PUSH2 0x893 JUMPI PUSH1 0x20 MUL DUP3 ADD SWAP2 SWAP1 PUSH1 0x0 MSTORE PUSH1 0x20 PUSH1 0x0 KECCAK256 SWAP1 JUMPDEST DUP2 SLOAD DUP2 MSTORE PUSH1 0x20 ADD SWAP1 PUSH1 0x1 ADD SWAP1 DUP1 DUP4 GT PUSH2 0x87F JUMPI JUMPDEST POP POP POP POP POP SWAP1 POP SWAP1 JUMP JUMPDEST PUSH1 0x3 DUP2 DUP2 SLOAD DUP2 LT PUSH2 0x8AD JUMPI PUSH1 0x0 DUP1 REVERT JUMPDEST SWAP1 PUSH1 0x0 MSTORE PUSH1 0x20 PUSH1 0x0 KECCAK256 ADD PUSH1 0x0 SWAP2 POP SWAP1 POP SLOAD DUP2 JUMP JUMPDEST PUSH1 0x0 PUSH1 0x2 PUSH1 0x0 CALLER PUSH20 0xFFFFFFFFFFFFFFFFFFFFFFFFFFFFFFFFFFFFFFFF AND PUSH20 0xFFFFFFFFFFFFFFFFFFFFFFFFFFFFFFFFFFFFFFFF AND DUP2 MSTORE PUSH1 0x20 ADD SWAP1 DUP2 MSTORE PUSH1 0x20 ADD PUSH1 0x0 KECCAK256 SLOAD SWAP1 POP SWAP1 JUMP JUMPDEST PUSH1 0x0 DUP1 PUSH1 0x0 DUP4 DUP2 MSTORE PUSH1 0x20 ADD SWAP1 DUP2 MSTORE PUSH1 0x20 ADD PUSH1 0x0 KECCAK256 PUSH1 0x0 ADD SLOAD SUB PUSH2 0x960 JUMPI PUSH1 0x40 MLOAD PUSH32 0x8C379A000000000000000000000000000000000000000000000000000000000 DUP2 MSTORE PUSH1 0x4 ADD PUSH2 0x957 SWAP1 PUSH2 0x13E3 JUMP JUMPDEST PUSH1 0x40 MLOAD DUP1 SWAP2 SUB SWAP1 REVERT JUMPDEST PUSH1 0x0 DUP1 DUP3 DUP2 MSTORE PUSH1 0x20 ADD SWAP1 DUP2 MSTORE PUSH1 0x20 ADD PUSH1 0x0 KECCAK256 PUSH1 0x3 ADD SLOAD CALLVALUE LT ISZERO PUSH2 0x9B8 JUMPI PUSH1 0x40 MLOAD PUSH32 0x8C379A000000000000000000000000000000000000000000000000000000000 DUP2 MSTORE PUSH1 0x4 ADD PUSH2 0x9AF SWAP1 PUSH2 0x144F JUMP JUMPDEST PUSH1 0x40 MLOAD DUP1 SWAP2 SUB SWAP1 REVERT JUMPDEST PUSH1 0x0 PUSH2 0x9D5 CALLVALUE PUSH1 0x0 DUP1 DUP6 DUP2 MSTORE PUSH1 0x20 ADD SWAP1 DUP2 MSTORE PUSH1 0x20 ADD PUSH1 0x0 KECCAK256 PUSH2 0xBAD JUMP JUMPDEST SWAP1 POP PUSH1 0x2 PUSH1 0x0 DUP1 PUSH1 0x0 DUP6 DUP2 MSTORE PUSH1 0x20 ADD SWAP1 DUP2 MSTORE PUSH1 0x20 ADD PUSH1 0x0 KECCAK256 PUSH1 0x2 ADD PUSH1 0x0 SWAP1 SLOAD SWAP1 PUSH2 0x100 EXP SWAP1 DIV PUSH20 0xFFFFFFFFFFFFFFFFFFFFFFFFFFFFFFFFFFFFFFFF AND PUSH20 0xFFFFFFFFFFFFFFFFFFFFFFFFFFFFFFFFFFFFFFFF AND PUSH20 0xFFFFFFFFFFFFFFFFFFFFFFFFFFFFFFFFFFFFFFFF AND DUP2 MSTORE PUSH1 0x20 ADD SWAP1 DUP2 MSTORE PUSH1 0x20 ADD PUSH1 0x0 KECCAK256 SLOAD DUP2 PUSH2 0xA57 SWAP2 SWAP1 PUSH2 0x12DD JUMP JUMPDEST PUSH1 0x2 PUSH1 0x0 DUP1 PUSH1 0x0 DUP7 DUP2 MSTORE PUSH1 0x20 ADD SWAP1 DUP2 MSTORE PUSH1 0x20 ADD PUSH1 0x0 KECCAK256 PUSH1 0x2 ADD PUSH1 0x0 SWAP1 SLOAD SWAP1 PUSH2 0x100 EXP SWAP1 DIV PUSH20 0xFFFFFFFFFFFFFFFFFFFFFFFFFFFFFFFFFFFFFFFF AND PUSH20 0xFFFFFFFFFFFFFFFFFFFFFFFFFFFFFFFFFFFFFFFF AND PUSH20 0xFFFFFFFFFFFFFFFFFFFFFFFFFFFFFFFFFFFFFFFF AND DUP2 MSTORE PUSH1 0x20 ADD SWAP1 DUP2 MSTORE PUSH1 0x20 ADD PUSH1 0x0 KECCAK256 DUP2 SWAP1 SSTORE POP PUSH32 0x412794071CA882AEA8AF3A77C06DDC350D5269100621CE7EB9DB4E47E9C18FA DUP3 DUP3 PUSH1 0x40 MLOAD PUSH2 0xB00 SWAP3 SWAP2 SWAP1 PUSH2 0x146F JUMP JUMPDEST PUSH1 0x40 MLOAD DUP1 SWAP2 SUB SWAP1 LOG1 PUSH32 0xC5CF601D86F12BD213AFA76B1E45CDA15388CE017DC71999D06A13E6460CE9B8 DUP3 CALLVALUE CALLER PUSH1 0x40 MLOAD PUSH2 0xB3B SWAP4 SWAP3 SWAP2 SWAP1 PUSH2 0x1498 JUMP JUMPDEST PUSH1 0x40 MLOAD DUP1 SWAP2 SUB SWAP1 LOG1 PUSH1 0x1 PUSH1 0x0 CALLER PUSH20 0xFFFFFFFFFFFFFFFFFFFFFFFFFFFFFFFFFFFFFFFF AND PUSH20 0xFFFFFFFFFFFFFFFFFFFFFFFFFFFFFFFFFFFFFFFF AND DUP2 MSTORE PUSH1 0x20 ADD SWAP1 DUP2 MSTORE PUSH1 0x20 ADD PUSH1 0x0 KECCAK256 DUP3 SWAP1 DUP1 PUSH1 0x1 DUP2 SLOAD ADD DUP1 DUP3 SSTORE DUP1 SWAP2 POP POP PUSH1 0x1 SWAP1 SUB SWAP1 PUSH1 0x0 MSTORE PUSH1 0x20 PUSH1 0x0 KECCAK256 ADD PUSH1 0x0 SWAP1 SWAP2 SWAP1 SWAP2 SWAP1 SWAP2 POP SSTORE POP POP JUMP JUMPDEST PUSH1 0x0 DUP2 PUSH1 0x1 ADD SLOAD DUP4 PUSH2 0xBBF SWAP2 SWAP1 PUSH2 0x14CF JUMP JUMPDEST SWAP3 POP PUSH1 0x2 PUSH1 0x0 DUP4 PUSH1 0x2 ADD PUSH1 0x0 SWAP1 SLOAD SWAP1 PUSH2 0x100 EXP SWAP1 DIV PUSH20 0xFFFFFFFFFFFFFFFFFFFFFFFFFFFFFFFFFFFFFFFF AND PUSH20 0xFFFFFFFFFFFFFFFFFFFFFFFFFFFFFFFFFFFFFFFF AND PUSH20 0xFFFFFFFFFFFFFFFFFFFFFFFFFFFFFFFFFFFFFFFF AND DUP2 MSTORE PUSH1 0x20 ADD SWAP1 DUP2 MSTORE PUSH1 0x20 ADD PUSH1 0x0 KECCAK256 SLOAD DUP3 PUSH1 0x1 ADD SLOAD PUSH2 0xC34 SWAP2 SWAP1 PUSH2 0x12DD JUMP JUMPDEST PUSH1 0x2 PUSH1 0x0 DUP5 PUSH1 0x2 ADD PUSH1 0x0 SWAP1 SLOAD SWAP1 PUSH2 0x100 EXP SWAP1 DIV PUSH20 0xFFFFFFFFFFFFFFFFFFFFFFFFFFFFFFFFFFFFFFFF AND PUSH20 0xFFFFFFFFFFFFFFFFFFFFFFFFFFFFFFFFFFFFFFFF AND PUSH20 0xFFFFFFFFFFFFFFFFFFFFFFFFFFFFFFFFFFFFFFFF AND DUP2 MSTORE PUSH1 0x20 ADD SWAP1 DUP2 MSTORE PUSH1 0x20 ADD PUSH1 0x0 KECCAK256 DUP2 SWAP1 SSTORE POP PUSH32 0x412794071CA882AEA8AF3A77C06DDC350D5269100621CE7EB9DB4E47E9C18FA DUP3 PUSH1 0x0 ADD SLOAD DUP4 PUSH1 0x1 ADD SLOAD PUSH1 0x40 MLOAD PUSH2 0xCD4 SWAP3 SWAP2 SWAP1 PUSH2 0x146F JUMP JUMPDEST PUSH1 0x40 MLOAD DUP1 SWAP2 SUB SWAP1 LOG1 PUSH1 0x0 JUMPDEST DUP3 PUSH1 0x4 ADD DUP1 SLOAD SWAP1 POP DUP2 LT ISZERO PUSH2 0xD3E JUMPI PUSH2 0xD29 DUP5 PUSH1 0x0 DUP1 DUP7 PUSH1 0x4 ADD DUP6 DUP2 SLOAD DUP2 LT PUSH2 0xD0B JUMPI PUSH2 0xD0A PUSH2 0x1213 JUMP JUMPDEST JUMPDEST SWAP1 PUSH1 0x0 MSTORE PUSH1 0x20 PUSH1 0x0 KECCAK256 ADD SLOAD DUP2 MSTORE PUSH1 0x20 ADD SWAP1 DUP2 MSTORE PUSH1 0x20 ADD PUSH1 0x0 KECCAK256 PUSH2 0xBAD JUMP JUMPDEST SWAP4 POP DUP1 DUP1 PUSH2 0xD36 SWAP1 PUSH2 0x1311 JUMP JUMPDEST SWAP2 POP POP PUSH2 0xCDF JUMP JUMPDEST POP DUP3 SWAP1 POP SWAP3 SWAP2 POP POP JUMP JUMPDEST DUP3 DUP1 SLOAD DUP3 DUP3 SSTORE SWAP1 PUSH1 0x0 MSTORE PUSH1 0x20 PUSH1 0x0 KECCAK256 SWAP1 DUP2 ADD SWAP3 DUP3 ISZERO PUSH2 0xD84 JUMPI SWAP2 PUSH1 0x20 MUL DUP3 ADD JUMPDEST DUP3 DUP2 GT ISZERO PUSH2 0xD83 JUMPI DUP3 MLOAD DUP3 SSTORE SWAP2 PUSH1 0x20 ADD SWAP2 SWAP1 PUSH1 0x1 ADD SWAP1 PUSH2 0xD68 JUMP JUMPDEST JUMPDEST POP SWAP1 POP PUSH2 0xD91 SWAP2 SWAP1 PUSH2 0xD95 JUMP JUMPDEST POP SWAP1 JUMP JUMPDEST JUMPDEST DUP1 DUP3 GT ISZERO PUSH2 0xDAE JUMPI PUSH1 0x0 DUP2 PUSH1 0x0 SWAP1 SSTORE POP PUSH1 0x1 ADD PUSH2 0xD96 JUMP JUMPDEST POP SWAP1 JUMP JUMPDEST PUSH1 0x0 PUSH1 0x40 MLOAD SWAP1 POP SWAP1 JUMP JUMPDEST PUSH1 0x0 DUP1 REVERT JUMPDEST PUSH1 0x0 DUP1 REVERT JUMPDEST PUSH1 0x0 DUP2 SWAP1 POP SWAP2 SWAP1 POP JUMP JUMPDEST PUSH2 0xDD9 DUP2 PUSH2 0xDC6 JUMP JUMPDEST DUP2 EQ PUSH2 0xDE4 JUMPI PUSH1 0x0 DUP1 REVERT JUMPDEST POP JUMP JUMPDEST PUSH1 0x0 DUP2 CALLDATALOAD SWAP1 POP PUSH2 0xDF6 DUP2 PUSH2 0xDD0 JUMP JUMPDEST SWAP3 SWAP2 POP POP JUMP JUMPDEST PUSH1 0x0 DUP1 REVERT JUMPDEST PUSH1 0x0 PUSH1 0x1F NOT PUSH1 0x1F DUP4 ADD AND SWAP1 POP SWAP2 SWAP1 POP JUMP JUMPDEST PUSH32 0x4E487B7100000000000000000000000000000000000000000000000000000000 PUSH1 0x0 MSTORE PUSH1 0x41 PUSH1 0x4 MSTORE PUSH1 0x24 PUSH1 0x0 REVERT JUMPDEST PUSH2 0xE4A DUP3 PUSH2 0xE01 JUMP JUMPDEST DUP2 ADD DUP2 DUP2 LT PUSH8 0xFFFFFFFFFFFFFFFF DUP3 GT OR ISZERO PUSH2 0xE69 JUMPI PUSH2 0xE68 PUSH2 0xE12 JUMP JUMPDEST JUMPDEST DUP1 PUSH1 0x40 MSTORE POP POP POP JUMP JUMPDEST PUSH1 0x0 PUSH2 0xE7C PUSH2 0xDB2 JUMP JUMPDEST SWAP1 POP PUSH2 0xE88 DUP3 DUP3 PUSH2 0xE41 JUMP JUMPDEST SWAP2 SWAP1 POP JUMP JUMPDEST PUSH1 0x0 PUSH8 0xFFFFFFFFFFFFFFFF DUP3 GT ISZERO PUSH2 0xEA8 JUMPI PUSH2 0xEA7 PUSH2 0xE12 JUMP JUMPDEST JUMPDEST PUSH1 0x20 DUP3 MUL SWAP1 POP PUSH1 0x20 DUP2 ADD SWAP1 POP SWAP2 SWAP1 POP JUMP JUMPDEST PUSH1 0x0 DUP1 REVERT JUMPDEST PUSH1 0x0 PUSH2 0xED1 PUSH2 0xECC DUP5 PUSH2 0xE8D JUMP JUMPDEST PUSH2 0xE72 JUMP JUMPDEST SWAP1 POP DUP1 DUP4 DUP3 MSTORE PUSH1 0x20 DUP3 ADD SWAP1 POP PUSH1 0x20 DUP5 MUL DUP4 ADD DUP6 DUP2 GT ISZERO PUSH2 0xEF4 JUMPI PUSH2 0xEF3 PUSH2 0xEB9 JUMP JUMPDEST JUMPDEST DUP4 JUMPDEST DUP2 DUP2 LT ISZERO PUSH2 0xF1D JUMPI DUP1 PUSH2 0xF09 DUP9 DUP3 PUSH2 0xDE7 JUMP JUMPDEST DUP5 MSTORE PUSH1 0x20 DUP5 ADD SWAP4 POP POP PUSH1 0x20 DUP2 ADD SWAP1 POP PUSH2 0xEF6 JUMP JUMPDEST POP POP POP SWAP4 SWAP3 POP POP POP JUMP JUMPDEST PUSH1 0x0 DUP3 PUSH1 0x1F DUP4 ADD SLT PUSH2 0xF3C JUMPI PUSH2 0xF3B PUSH2 0xDFC JUMP JUMPDEST JUMPDEST DUP2 CALLDATALOAD PUSH2 0xF4C DUP5 DUP3 PUSH1 0x20 DUP7 ADD PUSH2 0xEBE JUMP JUMPDEST SWAP2 POP POP SWAP3 SWAP2 POP POP JUMP JUMPDEST PUSH1 0x0 DUP1 PUSH1 0x0 PUSH1 0x60 DUP5 DUP7 SUB SLT ISZERO PUSH2 0xF6E JUMPI PUSH2 0xF6D PUSH2 0xDBC JUMP JUMPDEST JUMPDEST PUSH1 0x0 PUSH2 0xF7C DUP7 DUP3 DUP8 ADD PUSH2 0xDE7 JUMP JUMPDEST SWAP4 POP POP PUSH1 0x20 PUSH2 0xF8D DUP7 DUP3 DUP8 ADD PUSH2 0xDE7 JUMP JUMPDEST SWAP3 POP POP PUSH1 0x40 DUP5 ADD CALLDATALOAD PUSH8 0xFFFFFFFFFFFFFFFF DUP2 GT ISZERO PUSH2 0xFAE JUMPI PUSH2 0xFAD PUSH2 0xDC1 JUMP JUMPDEST JUMPDEST PUSH2 0xFBA DUP7 DUP3 DUP8 ADD PUSH2 0xF27 JUMP JUMPDEST SWAP2 POP POP SWAP3 POP SWAP3 POP SWAP3 JUMP JUMPDEST PUSH1 0x0 PUSH1 0x20 DUP3 DUP5 SUB SLT ISZERO PUSH2 0xFDA JUMPI PUSH2 0xFD9 PUSH2 0xDBC JUMP JUMPDEST JUMPDEST PUSH1 0x0 PUSH2 0xFE8 DUP5 DUP3 DUP6 ADD PUSH2 0xDE7 JUMP JUMPDEST SWAP2 POP POP SWAP3 SWAP2 POP POP JUMP JUMPDEST PUSH2 0xFFA DUP2 PUSH2 0xDC6 JUMP JUMPDEST DUP3 MSTORE POP POP JUMP JUMPDEST PUSH1 0x0 PUSH20 0xFFFFFFFFFFFFFFFFFFFFFFFFFFFFFFFFFFFFFFFF DUP3 AND SWAP1 POP SWAP2 SWAP1 POP JUMP JUMPDEST PUSH1 0x0 PUSH2 0x102B DUP3 PUSH2 0x1000 JUMP JUMPDEST SWAP1 POP SWAP2 SWAP1 POP JUMP JUMPDEST PUSH2 0x103B DUP2 PUSH2 0x1020 JUMP JUMPDEST DUP3 MSTORE POP POP JUMP JUMPDEST PUSH1 0x0 DUP2 MLOAD SWAP1 POP SWAP2 SWAP1 POP JUMP JUMPDEST PUSH1 0x0 DUP3 DUP3 MSTORE PUSH1 0x20 DUP3 ADD SWAP1 POP SWAP3 SWAP2 POP POP JUMP JUMPDEST PUSH1 0x0 DUP2 SWAP1 POP PUSH1 0x20 DUP3 ADD SWAP1 POP SWAP2 SWAP1 POP JUMP JUMPDEST PUSH2 0x1076 DUP2 PUSH2 0xDC6 JUMP JUMPDEST DUP3 MSTORE POP POP JUMP JUMPDEST PUSH1 0x0 PUSH2 0x1088 DUP4 DUP4 PUSH2 0x106D JUMP JUMPDEST PUSH1 0x20 DUP4 ADD SWAP1 POP SWAP3 SWAP2 POP POP JUMP JUMPDEST PUSH1 0x0 PUSH1 0x20 DUP3 ADD SWAP1 POP SWAP2 SWAP1 POP JUMP JUMPDEST PUSH1 0x0 PUSH2 0x10AC DUP3 PUSH2 0x1041 JUMP JUMPDEST PUSH2 0x10B6 DUP2 DUP6 PUSH2 0x104C JUMP JUMPDEST SWAP4 POP PUSH2 0x10C1 DUP4 PUSH2 0x105D JUMP JUMPDEST DUP1 PUSH1 0x0 JUMPDEST DUP4 DUP2 LT ISZERO PUSH2 0x10F2 JUMPI DUP2 MLOAD PUSH2 0x10D9 DUP9 DUP3 PUSH2 0x107C JUMP JUMPDEST SWAP8 POP PUSH2 0x10E4 DUP4 PUSH2 0x1094 JUMP JUMPDEST SWAP3 POP POP PUSH1 0x1 DUP2 ADD SWAP1 POP PUSH2 0x10C5 JUMP JUMPDEST POP DUP6 SWAP4 POP POP POP POP SWAP3 SWAP2 POP POP JUMP JUMPDEST PUSH1 0x0 PUSH1 0xA0 DUP3 ADD SWAP1 POP PUSH2 0x1114 PUSH1 0x0 DUP4 ADD DUP9 PUSH2 0xFF1 JUMP JUMPDEST PUSH2 0x1121 PUSH1 0x20 DUP4 ADD DUP8 PUSH2 0xFF1 JUMP JUMPDEST PUSH2 0x112E PUSH1 0x40 DUP4 ADD DUP7 PUSH2 0x1032 JUMP JUMPDEST PUSH2 0x113B PUSH1 0x60 DUP4 ADD DUP6 PUSH2 0xFF1 JUMP JUMPDEST DUP2 DUP2 SUB PUSH1 0x80 DUP4 ADD MSTORE PUSH2 0x114D DUP2 DUP5 PUSH2 0x10A1 JUMP JUMPDEST SWAP1 POP SWAP7 SWAP6 POP POP POP POP POP POP JUMP JUMPDEST PUSH1 0x0 PUSH1 0x20 DUP3 ADD SWAP1 POP PUSH2 0x116E PUSH1 0x0 DUP4 ADD DUP5 PUSH2 0xFF1 JUMP JUMPDEST SWAP3 SWAP2 POP POP JUMP JUMPDEST PUSH1 0x0 PUSH1 0x20 DUP3 ADD SWAP1 POP DUP2 DUP2 SUB PUSH1 0x0 DUP4 ADD MSTORE PUSH2 0x118E DUP2 DUP5 PUSH2 0x10A1 JUMP JUMPDEST SWAP1 POP SWAP3 SWAP2 POP POP JUMP JUMPDEST PUSH1 0x0 DUP3 DUP3 MSTORE PUSH1 0x20 DUP3 ADD SWAP1 POP SWAP3 SWAP2 POP POP JUMP JUMPDEST PUSH32 0x4974656D20616C72656164792070726573656E74000000000000000000000000 PUSH1 0x0 DUP3 ADD MSTORE POP JUMP JUMPDEST PUSH1 0x0 PUSH2 0x11DD PUSH1 0x14 DUP4 PUSH2 0x1196 JUMP JUMPDEST SWAP2 POP PUSH2 0x11E8 DUP3 PUSH2 0x11A7 JUMP JUMPDEST PUSH1 0x20 DUP3 ADD SWAP1 POP SWAP2 SWAP1 POP JUMP JUMPDEST PUSH1 0x0 PUSH1 0x20 DUP3 ADD SWAP1 POP DUP2 DUP2 SUB PUSH1 0x0 DUP4 ADD MSTORE PUSH2 0x120C DUP2 PUSH2 0x11D0 JUMP JUMPDEST SWAP1 POP SWAP2 SWAP1 POP JUMP JUMPDEST PUSH32 0x4E487B7100000000000000000000000000000000000000000000000000000000 PUSH1 0x0 MSTORE PUSH1 0x32 PUSH1 0x4 MSTORE PUSH1 0x24 PUSH1 0x0 REVERT JUMPDEST PUSH32 0x506172656E74206E6F7420666F756E6400000000000000000000000000000000 PUSH1 0x0 DUP3 ADD MSTORE POP JUMP JUMPDEST PUSH1 0x0 PUSH2 0x1278 PUSH1 0x10 DUP4 PUSH2 0x1196 JUMP JUMPDEST SWAP2 POP PUSH2 0x1283 DUP3 PUSH2 0x1242 JUMP JUMPDEST PUSH1 0x20 DUP3 ADD SWAP1 POP SWAP2 SWAP1 POP JUMP JUMPDEST PUSH1 0x0 PUSH1 0x20 DUP3 ADD SWAP1 POP DUP2 DUP2 SUB PUSH1 0x0 DUP4 ADD MSTORE PUSH2 0x12A7 DUP2 PUSH2 0x126B JUMP JUMPDEST SWAP1 POP SWAP2 SWAP1 POP JUMP JUMPDEST PUSH32 0x4E487B7100000000000000000000000000000000000000000000000000000000 PUSH1 0x0 MSTORE PUSH1 0x11 PUSH1 0x4 MSTORE PUSH1 0x24 PUSH1 0x0 REVERT JUMPDEST PUSH1 0x0 PUSH2 0x12E8 DUP3 PUSH2 0xDC6 JUMP JUMPDEST SWAP2 POP PUSH2 0x12F3 DUP4 PUSH2 0xDC6 JUMP JUMPDEST SWAP3 POP DUP3 DUP3 ADD SWAP1 POP DUP1 DUP3 GT ISZERO PUSH2 0x130B JUMPI PUSH2 0x130A PUSH2 0x12AE JUMP JUMPDEST JUMPDEST SWAP3 SWAP2 POP POP JUMP JUMPDEST PUSH1 0x0 PUSH2 0x131C DUP3 PUSH2 0xDC6 JUMP JUMPDEST SWAP2 POP PUSH32 0xFFFFFFFFFFFFFFFFFFFFFFFFFFFFFFFFFFFFFFFFFFFFFFFFFFFFFFFFFFFFFFFF DUP3 SUB PUSH2 0x134E JUMPI PUSH2 0x134D PUSH2 0x12AE JUMP JUMPDEST JUMPDEST PUSH1 0x1 DUP3 ADD SWAP1 POP SWAP2 SWAP1 POP JUMP JUMPDEST PUSH1 0x0 PUSH1 0x60 DUP3 ADD SWAP1 POP PUSH2 0x136E PUSH1 0x0 DUP4 ADD DUP7 PUSH2 0xFF1 JUMP JUMPDEST PUSH2 0x137B PUSH1 0x20 DUP4 ADD DUP6 PUSH2 0xFF1 JUMP JUMPDEST DUP2 DUP2 SUB PUSH1 0x40 DUP4 ADD MSTORE PUSH2 0x138D DUP2 DUP5 PUSH2 0x10A1 JUMP JUMPDEST SWAP1 POP SWAP5 SWAP4 POP POP POP POP JUMP JUMPDEST PUSH32 0x4974656D206E6F7420666F756E64000000000000000000000000000000000000 PUSH1 0x0 DUP3 ADD MSTORE POP JUMP JUMPDEST PUSH1 0x0 PUSH2 0x13CD PUSH1 0xE DUP4 PUSH2 0x1196 JUMP JUMPDEST SWAP2 POP PUSH2 0x13D8 DUP3 PUSH2 0x1397 JUMP JUMPDEST PUSH1 0x20 DUP3 ADD SWAP1 POP SWAP2 SWAP1 POP JUMP JUMPDEST PUSH1 0x0 PUSH1 0x20 DUP3 ADD SWAP1 POP DUP2 DUP2 SUB PUSH1 0x0 DUP4 ADD MSTORE PUSH2 0x13FC DUP2 PUSH2 0x13C0 JUMP JUMPDEST SWAP1 POP SWAP2 SWAP1 POP JUMP JUMPDEST PUSH32 0x4E6F7420656E6F7567687420666F756E64000000000000000000000000000000 PUSH1 0x0 DUP3 ADD MSTORE POP JUMP JUMPDEST PUSH1 0x0 PUSH2 0x1439 PUSH1 0x11 DUP4 PUSH2 0x1196 JUMP JUMPDEST SWAP2 POP PUSH2 0x1444 DUP3 PUSH2 0x1403 JUMP JUMPDEST PUSH1 0x20 DUP3 ADD SWAP1 POP SWAP2 SWAP1 POP JUMP JUMPDEST PUSH1 0x0 PUSH1 0x20 DUP3 ADD SWAP1 POP DUP2 DUP2 SUB PUSH1 0x0 DUP4 ADD MSTORE PUSH2 0x1468 DUP2 PUSH2 0x142C JUMP JUMPDEST SWAP1 POP SWAP2 SWAP1 POP JUMP JUMPDEST PUSH1 0x0 PUSH1 0x40 DUP3 ADD SWAP1 POP PUSH2 0x1484 PUSH1 0x0 DUP4 ADD DUP6 PUSH2 0xFF1 JUMP JUMPDEST PUSH2 0x1491 PUSH1 0x20 DUP4 ADD DUP5 PUSH2 0xFF1 JUMP JUMPDEST SWAP4 SWAP3 POP POP POP JUMP JUMPDEST PUSH1 0x0 PUSH1 0x60 DUP3 ADD SWAP1 POP PUSH2 0x14AD PUSH1 0x0 DUP4 ADD DUP7 PUSH2 0xFF1 JUMP JUMPDEST PUSH2 0x14BA PUSH1 0x20 DUP4 ADD DUP6 PUSH2 0xFF1 JUMP JUMPDEST PUSH2 0x14C7 PUSH1 0x40 DUP4 ADD DUP5 PUSH2 0x1032 JUMP JUMPDEST SWAP5 SWAP4 POP POP POP POP JUMP JUMPDEST PUSH1 0x0 PUSH2 0x14DA DUP3 PUSH2 0xDC6 JUMP JUMPDEST SWAP2 POP PUSH2 0x14E5 DUP4 PUSH2 0xDC6 JUMP JUMPDEST SWAP3 POP DUP3 DUP3 SUB SWAP1 POP DUP2 DUP2 GT ISZERO PUSH2 0x14FD JUMPI PUSH2 0x14FC PUSH2 0x12AE JUMP JUMPDEST JUMPDEST SWAP3 SWAP2 POP POP JUMP INVALID LOG2 PUSH5 0x6970667358 0x22 SLT KECCAK256 0x21 PUSH9 0x192AE1DD95F15EB686 PREVRANDAO PUSH17 0x543861ED6E66B8415B2FE0953865358566 SELFDESTRUCT RETURNDATACOPY PUSH5 0x736F6C6343 STOP ADDMOD SLT STOP CALLER "
				},
				"gasEstimates": {
					"creation": {
						"codeDepositCost": "1086600",
						"executionCost": "infinite",
						"totalCost": "infinite"
					},
					"external": {
						"add_item(uint256,uint256,uint256[])": "infinite",
						"buy_item(uint256)": "infinite",
						"get_item(uint256)": "infinite",
						"get_item_list()": "infinite",
						"get_owner_item()": "infinite",
						"get_price(uint256)": "infinite",
						"item_list_array(uint256)": "infinite",
						"my_balance()": "2592",
						"withdraw()": "infinite"
					},
					"internal": {
						"pay_item(uint256,struct Item storage pointer)": "infinite"
					}
				},
				"methodIdentifiers": {
					"add_item(uint256,uint256,uint256[])": "1602c9f5",
					"buy_item(uint256)": "fe3a51d3",
					"get_item(uint256)": "99834e7b",
					"get_item_list()": "d937d19f",
					"get_owner_item()": "e4ffc438",
					"get_price(uint256)": "d93580ff",
					"item_list_array(uint256)": "ef7a77a2",
					"my_balance()": "f8167eb8",
					"withdraw()": "3ccfd60b"
				}
			},
			"storageLayout": {
				"storage": [
					{
						"astId": 94,
						"contract": "smartcontract/Aipodo.sol:Aipodo",
						"label": "item_list",
						"offset": 0,
						"slot": "0",
						"type": "t_mapping(t_uint256,t_struct(Item)13_storage)"
					},
					{
						"astId": 99,
						"contract": "smartcontract/Aipodo.sol:Aipodo",
						"label": "owned_list",
						"offset": 0,
						"slot": "1",
						"type": "t_mapping(t_address,t_array(t_uint256)dyn_storage)"
					},
					{
						"astId": 103,
						"contract": "smartcontract/Aipodo.sol:Aipodo",
						"label": "balance_list",
						"offset": 0,
						"slot": "2",
						"type": "t_mapping(t_address,t_uint256)"
					},
					{
						"astId": 106,
						"contract": "smartcontract/Aipodo.sol:Aipodo",
						"label": "item_list_array",
						"offset": 0,
						"slot": "3",
						"type": "t_array(t_uint256)dyn_storage"
					}
				],
				"types": {
					"t_address": {
						"encoding": "inplace",
						"label": "address",
						"numberOfBytes": "20"
					},
					"t_array(t_uint256)dyn_storage": {
						"base": "t_uint256",
						"encoding": "dynamic_array",
						"label": "uint256[]",
						"numberOfBytes": "32"
					},
					"t_mapping(t_address,t_array(t_uint256)dyn_storage)": {
						"encoding": "mapping",
						"key": "t_address",
						"label": "mapping(address => uint256[])",
						"numberOfBytes": "32",
						"value": "t_array(t_uint256)dyn_storage"
					},
					"t_mapping(t_address,t_uint256)": {
						"encoding": "mapping",
						"key": "t_address",
						"label": "mapping(address => uint256)",
						"numberOfBytes": "32",
						"value": "t_uint256"
					},
					"t_mapping(t_uint256,t_struct(Item)13_storage)": {
						"encoding": "mapping",
						"key": "t_uint256",
						"label": "mapping(uint256 => struct Item)",
						"numberOfBytes": "32",
						"value": "t_struct(Item)13_storage"
					},
					"t_struct(Item)13_storage": {
						"encoding": "inplace",
						"label": "struct Item",
						"members": [
							{
								"astId": 3,
								"contract": "smartcontract/Aipodo.sol:Aipodo",
								"label": "hash",
								"offset": 0,
								"slot": "0",
								"type": "t_uint256"
							},
							{
								"astId": 5,
								"contract": "smartcontract/Aipodo.sol:Aipodo",
								"label": "price",
								"offset": 0,
								"slot": "1",
								"type": "t_uint256"
							},
							{
								"astId": 7,
								"contract": "smartcontract/Aipodo.sol:Aipodo",
								"label": "owner",
								"offset": 0,
								"slot": "2",
								"type": "t_address"
							},
							{
								"astId": 9,
								"contract": "smartcontract/Aipodo.sol:Aipodo",
								"label": "full_price",
								"offset": 0,
								"slot": "3",
								"type": "t_uint256"
							},
							{
								"astId": 12,
								"contract": "smartcontract/Aipodo.sol:Aipodo",
								"label": "parents",
								"offset": 0,
								"slot": "4",
								"type": "t_array(t_uint256)dyn_storage"
							}
						],
						"numberOfBytes": "160"
					},
					"t_uint256": {
						"encoding": "inplace",
						"label": "uint256",
						"numberOfBytes": "32"
					}
				}
			},
			"userdoc": {
				"kind": "user",
				"methods": {},
				"version": 1
			}
		}
	}
}